:0200000480007A
:100000006F0080496F00C0296F0000486F00C04733
:100010006F0080476F0040476F0000476F00C04689
:100020006F0080466F0040466F0000466F00C0457D
:100030006F0080456F0040456F0000456F00C04471
:100040006F0080446F0040446F0000446F00C04365
:100050006F0080436F0040436F0000436F00C04259
:100060006F0080426F0040426F0000426F00C0414D
:100070006F0080416F0040416F0000416F000052EF
:10008000975101009381816117010300130181F7EA
:1000900017050000130505F713651500731055309B
:1000A000138581F4138681253306A640930500004D
:1000B000EF70903717850000130585B1EF60001DC4
:1000C000EF701027130500009305000013060000D1
:0C00D000EF0000016F60C01C67800000A2
:1000E000130101812326117E2324817E2322917E08
:1000F0002320217F93060000130101FE1306000058
:100100009305000013050020EF309073630405167B
:100110001304050017350100130545C3EF7080284F
:10012000F32420B0732900B097350100938505CEE4
:100130001306010013050400EF408010F32220B0E5
:1001400033849240732300B017350100130505C1B5
:10015000B3042341EF7000251387040093060400C5
:10016000138604009305040017350100130505C02C
:10017000EF60507E371600001306068097350100A9
:100180009385C54813050100EF70806713090500CA
:1001900063180502173501001305C5C4EF708020F0
:1001A000130101028320C17E130509000324817E0F
:1001B0008324417E0329017E1301017F67800000B3
:1001C00017350100130585BDEF70C01DB71700007E
:1001D00093830780130401003389230097340100BF
:1001E0009384C4BF03162400831504001385040000
:1001F00013040402EF601076031664FE831544FEB8
:1002000013850400EF6010750316A4FE831584FEA9
:1002100013850400EF6010740316E4FE8315C4FE1A
:1002200013850400EF601073031624FF831504FF89
:1002300013850400EF601072031664FF831544FFFA
:1002400013850400EF6010710316A4FF831584FF6B
:1002500013850400EF6010700316E4FF8315C4FFDC
:1002600013850400EF60106FE31E24F713091000DC
:100270006FF01FF317350100130505ACEF70801206
:10028000130910006FF0DFF1000000000000000013
:100290001305000067800000130000001300000039
:1002A0001305000067800000130000001300000029
:1002B0001305000067800000130000001300000019
:1002C0001305000067800000130000001300000009
:1002D00013050000678000001300000013000000F9
:1002E00013050000678000001300000013000000E9
:1002F00013050000678000001300000013000000D9
:1003000013050000678000001300000013000000C8
:1003100013050000678000001300000013000000B8
:1003200013050000678000001300000013000000A8
:100330001305000067800000130000001300000098
:100340001305000067800000130000001300000088
:100350001305000067800000130000001300000078
:100360001305000067800000130000001300000068
:100370001305000067800000130000001300000058
:100380001305000067800000130000001300000048
:100390001305000067800000130000001300000038
:1003A0001305000067800000130000001300000028
:1003B0001305000067800000130000001300000018
:1003C0001305000067800000130000001300000008
:1003D00013050000678000001300000013000000F8
:1003E00013050000678000001300000013000000E8
:1003F00013050000678000001300000013000000D8
:1004000013050000678000001300000013000000C7
:1004100013050000678000001300000013000000B7
:1004200013050000678000001300000013000000A7
:100430001305000067800000130000001300000097
:100440001305000067800000130000001300000087
:100450001305000067800000130000001300000077
:100460001305000067800000130000001300000067
:100470001305000067800000130000001300000057
:100480001305000067800000172501001305D56DD6
:10049000EF6050716FF05FFF130101FC232011002A
:1004A0002322A1002324B1002326C1002328D10048
:1004B000232AE100232CF100232E01012320110324
:1004C0002322510223246102232671022328C1031F
:1004D000232AD103232CE103232EF103F32220341A
:1004E00013032000638862021303B0006388620074
:1004F00013033000638862006F00C002EF00403ECB
:100500006F004003172501001305C561EF60906976
:100510006F004002172501001305C55BEF6090686E
:100520006F004001172501001305E561EF6090673A
:100530006F004002F32210340383020013053000E1
:100540003373A3006314A3009382220093822200DA
:10055000739012348320010003254100832581001C
:100560000326C1008326010103274101832781015E
:100570000328C1018328010283224102032381024F
:100580008323C102032E0103832E4103032F810322
:10059000832FC10313010104730020307300203046
:1005A0003305A04023AEA1F41305F0FF67800000DF
:1005B000972701009387875D1308500537070010C0
:1005C0002320070183C61700638006062320D70077
:1005D00083C22700638A02042320570003C3370025
:1005E000630403042320670083C34700638E030270
:1005F0002320770003C55700630805022320A700C6
:1006000083C56700638205022320B70003C6770015
:1006100093878700630A06002320C70003C80700EA
:10062000E31008FA678000006780000013000000F4
:100630009307800523AEF1F41305F0FF67800000F7
:100640009307800523AEF1F41305F0FF67800000E7
:100650009307800523AEF1F41305F0FF67800000D7
:100660009307800523AEF1F41305F0FF67800000C7
:100670009307800523AEF1F41305F0FF67800000B7
:100680001305F0FF67800000130000001300000056
:100690009307C00023AEF1F41305F0FF678000005C
:1006A000B707048023A0A700730050106F0000005C
:1006B0009307800523AEF1F41305F0FF6780000077
:1006C0009307B00023AEF1F41305F0FF678000003C
:1006D000B727000023A2F500130500006780000083
:1006E0009307800523AEF1F41305F0FF6780000047
:1006F0009307800523AEF1F41305F0FF6780000037
:10070000930780FA23AEF1F4130500006780000020
:1007100013051000678000001300000013000000A4
:10072000930780FA23AEF1F41305F0FF6780000011
:100730001305F5FF13351500678000001300000056
:100740009307600123AEF1F41305F0FF678000000A
:100750009307F00123AEF1F41305F0FF678000006A
:100760001305000067800000130000001300000064
:100770009307800523AEF1F41305F0FF67800000B6
:100780001305F0FF67800000130000001300000055
:100790009307800523AEF1F41305F0FF6780000096
:1007A0001305000067800000130000001300000024
:1007B000B727000023A2F5001305000067800000A2
:1007C0001305F0FF67800000130000001300000015
:1007D0001305F0FF67800000130000001300000005
:1007E0009307200023AEF1F41305F0FF67800000AB
:1007F0009307800523AEF1F41305F0FF6780000036
:100800009307A00023AEF1F41305F0FF678000000A
:10081000130101FF23202101138981F4832709009B
:1008200023248100232291002326110093840500B4
:1008300013040600638A070213060400938504006C
:100840001745010013058565EF0080598320C1001D
:1008500013050400032481008324410003290100BF
:100860001301010167800000B7C5010013063000C5
:10087000938505201745010013054562EF004049A7
:1008800093021000232059006FF01FFB130000009B
:1008900023ACA1F2130500006780000013000000E4
:1008A000138781F3032307003305A3002320A70048
:1008B000637C250097F202009382C2746376550030
:1008C00013050300678000009307C0001303F0FFC7
:1008D00023AEF1F41305030067800000130000004D
:1008E000130101FF23229100232611009307100812
:1008F0009384050063CC170D9307F00263D61703AA
:10090000938008FD9302100563E41202172301008F
:100910001303032A9398200033876800832307007A
:10092000B385630067800500930E1001638AD80FBA
:10093000930450051727010013074725B70F001030
:1009400023A09F0083471700638E070423A0FF00A6
:10095000834027006388000423A01F0083423700E0
:100960006382020423A05F0003434700630C030279
:1009700023A06F00834857006386080223A01F014D
:10098000834367006380030223A07F0083457700D1
:10099000638A05001307870023A0BF008344070074
:1009A000E39004FA8320C100832441001301010174
:1009B000678000008320C100130E800523AEC1F5BF
:1009C0008324410013010101678000009300F0407F
:1009D000E3C010F79302F03F63D61203938808C078
:1009E0001303F000E36613F5172701001307C73060
:1009F000939328003385E300832505003386E500C3
:100A000067000600130EC00AE38EC8F963461E0392
:100A1000130F9009E388E8F9930F900AE39AF8F12D
:100A2000130F80FA23AEE1F56FF0DFF737250000F2
:100A300023A2A4006FF01FF7930E600DE39AD8EF86
:100A400023ACA1F26FF01FF61308F00123AE01F5FD
:100A50006FF05FF59306200023AED1F46FF09FF4A2
:100A6000370404802320A400730050106F0000009E
:100A70009304600123AE91F46FF0DFF22320210193
:100A8000138981F42324810013040600032609003E
:100A900063060602130604000324810003290100F3
:100AA0008320C10093850400832441001745010081
:100AB0001305C53E130101016F008032B7C6010066
:100AC0001306300093850620174501001305053DE8
:100AD000EF00002413081000232009016FF09FFB92
:100AE0008327C500638807208328050163840820C5
:100AF0000328050003469500032745018346480166
:100B0000B3E2C600A304550013F306026302031EFA
:100B1000B383E84093050001138F030063F475006D
:100B2000130F0001638AE81C338EE700834E0E002A
:100B3000930F1700130610002300D801232AF50194
:100B40006370761AB386F70183C206001303270089
:100B50009305200023005800232A650063F27518CE
:100B6000338E6700834E0E00130637009306300065
:100B70002300D801232AC50063F47616B382C70088
:100B800003C3020093054700130E400023006800D2
:100B9000232AB50063767E14B38EB70083C60E0099
:100BA00013065700930250002300D800232AC500E3
:100BB00063F872123383C70083450300930E670006
:100BC000130E60002300B800232AD501637A7E103B
:100BD000B386D70183C206001306770013037000A3
:100BE00023005800232AC500637C730EB385C70019
:100BF00083CE050093068700130E80002300D801E2
:100C0000232AD500637E7E0CB382D70003C3020083
:100C1000130697009305900023006800232AC5005F
:100C200063F0750CB38EC70083C60E009302A70055
:100C3000130EA0002300D800232A550063727E0AF9
:100C400033835700834503001306B700930EB000AB
:100C50002300B800232AC50063F47E08B386C700CA
:100C600083C206001303C700130EC0002300580000
:100C7000232A650063767E06B385670083CE050070
:100C80001306D7009306D0002300D801232AC500FD
:100C900063F87604B382C70003C302009305E7003C
:100CA000130EE00023006800232AB500637A7E0259
:100CB000B38EB70083C60E001306F7009302F00050
:100CC0002300D800232AC50063FC7200B387C70045
:100CD00003C307001307070123006800232AE50068
:100CE00093050000638403009305FFFF3387F5013C
:100CF0006384E800678000008348480023280500DB
:100D000013F5D80F2302A80067800000130000002D
:100D1000130101FE232A910083240500232C810066
:100D20002328210123263101232E110023820400D0
:100D300023840400930770FC2384F40023880400B8
:100D40002322B5001304050013890500930906004A
:100D5000930600001386050037D512139305000093
:100D6000EF50C009B7028000637455029350F5003C
:100D7000130700F82386E40013F3F00F13557500F2
:100D8000238264009373F50F23807400238604008C
:100D90002386340123043401A304040097050000D2
:100DA000938545D4232224018320C10123280400F4
:100DB00023260400232A0400232E0400232C0400ED
:100DC000232204022320B40203248101832441014D
:100DD000032901018329C10013010102678000007A
:100DE000130101FF23260100638C0522630A0622FA
:100DF000032505003386C50093071003034745010B
:100E0000232601008326C1009372F70F63E2D70AFD
:100E10000323C10093031300232671000328C1009C
:100E200063E807098328C100138E18002326C10137
:100E3000832EC10063EED707032FC100930F1F005D
:100E40002326F1010327C10063E4E7068326C100DE
:100E500013831600232661008323C10063EA77040D
:100E60000328C1009308180023261101032EC10096
:100E700063E0C705832EC100138F1E002326E10106
:100E8000832FC10063E6F7030327C1009306170011
:100E90002326D1000323C10063EC67008323C10034
:100EA00013881300232601018328C100E3F217F7FA
:100EB00093F20202E38402F423260100032EC10010
:100EC00063E2C70B832EC100138F1E002326E101AE
:100ED000832FC10063E8F7090327C10093061700B9
:100EE0002326D1000323C10063EE67068323C100DC
:100EF00013881300232601018328C10063E4170728
:100F00008322C100138E12002326C101832EC1004B
:100F100063EAD705032FC100930F1F002326F101B9
:100F20000327C10063E0E7048326C1001383160092
:100F3000232661008323C10063E677020328C100F2
:100F400093081800232611018322C10063EC570087
:100F5000032EC100930E1E002326D101032FC100D2
:100F6000E3F2E7F783CF05002300F5012326010014
:100F70000327C10063E2E70A8326C100138316003A
:100F8000232661008323C10063E877080328C1009A
:100F900093081800232611018322C10063EE57062F
:100FA000032EC100930E1E002326D101032FC10082
:100FB00063E4E707832FC10013871F002326E100A6
:100FC0008326C10063EAD7040323C10093031300FF
:100FD000232671000328C10063E007058328C100B0
:100FE0009382180023265100032EC10063E6C70335
:100FF000832EC100138F1E002326E101832FC10021
:1010000063ECF7010327C100930617002326D100E4
:101010000323C100E3F267F693851500E390C5DE74
:10102000130101016780000013000000130000009D
:101030006388050E03C605006304060E83270500BA
:10104000130101FF9386150003C747019372F70F41
:10105000A30751000343F100937303026396030A4D
:1010600003C547019375F50FA307B1000348F100CD
:1010700093780802639A080803CE4701937EFE0F17
:10108000A307D101034FF100937F0F02639E0F0668
:1010900003C747019372F70FA30751000343F10001
:1010A000937303026392030603C547019375F50F1B
:1010B000A307B1000348F10093780802639608047F
:1010C00003CE4701937EFE0FA307D101034FF1002A
:1010D000937F0F02639A0F0203C747019372F70FC2
:1010E000A30751000343F10093730302639E0300BF
:1010F00003C547019375F50FA307B1000348F1003D
:1011000093780802E38208F4938616002380C700D0
:1011100003C6F6FFE31A06F213010101678000001F
:10112000678000001300000013000000130000009F
:10113000630C0602638A0502032705009706000078
:101140009386469A2326B500834747002328C50087
:10115000232A05002320D50293E22700230257000B
:10116000732340F16304030067800000B723000C81
:1011700017460100130686D283A503003305C54038
:101180001338150093081000339E0801B36EBE009B
:1011900023A0D301678000001300000013000000AB
:1011A00083270500034795008326050183C2470175
:1011B00033E3E200A304650093F3F20F63980600A3
:1011C00013D5630013751500678000001305000038
:1011D00067800000130000001300000013000000EF
:1011E0009307050063800518630E061603270500A4
:1011F0000345950083464701B3E2A600A384570048
:1012000013F31600630003169373360013050000F2
:10121000638C030813081000638003079308200001
:101220006386130303470700130510002380E500BE
:1012300003A7070003CE9700834E470133EFCE018B
:10124000A384E70193FF1E0063820F128346070009
:10125000B382A500130515002380D20003A7070061
:1012600003C397008343470133E86300A384070166
:1012700093F81300638C080E034E07003387A50014
:10128000130515002300C70103A7070083CE9700AD
:10129000034F4701B36FDF01A384F70193761F006B
:1012A0006386060C6306A60C83420700B383A50081
:1012B000130515002380530003A8070003CE9700F1
:1012C0003383A5000347480193080500B36EC701A7
:1012D000A384D701137F1700630A0F08834F080008
:1012E00013051500B382A5002300F30183A30700B3
:1012F00083C6970003C343013368D300A384070167
:10130000137E130063040E0603C703001385280031
:10131000B38EA5002380E20003AF070083CF9700C0
:1013200083424F01B3E3F201A384770093F61200E6
:10133000638E060203430F001385380023806E007E
:1013400003A7070083C89700034E470133681E01B7
:10135000A3840701937E1E00638A0E00E316A6F4A1
:1013600067800000130500006780000067800000B0
:10137000678000001300000013000000130000004D
:10138000F32740F163960702B726000C17470100C8
:101390001307C7B003A60600B302E54013B312005B
:1013A0009303100033986300B368C80023A01601AC
:1013B000370E0100930EFEFF638CD5010325050057
:1013C00093F5F500034F4500B36FBF002302F5010D
:1013D00067800000130000001300000013000000ED
:1013E000638E05029307000C63EAC702032705001A
:1013F000232EB5008342870013F3F203B363C300C7
:1014000093F5F30F2304B7000346470093661600D5
:101410002302D700732840F16304080067800000AE
:10142000B728000C974E0100938E4EA703AE08001C
:101430003305D541133F1500930F1000B397EF010B
:1014400033E7C70123A0E800678000001300000015
:1014500063840502032705002320B5022326050027
:10146000834747002328050093E227002302570003
:10147000732340F16304030067800000B723000C6E
:1014800097450100938585A183A603003305B540E8
:101490001336150013081000B318C80033EED80037
:1014A00023A0C301678000001300000013000000A8
:1014B00063800502032705002322B5028347470006
:1014C00093E2870023025700732340F16304030073
:1014D00067800000B723000C974501009385059CA9
:1014E00083A603003305B54013361500130810001A
:1014F000B318C80033EED80023A0C30167800000F2
:10150000638805126306061283270500834695004B
:1015100003C74701B362D700A30455001373070242
:1015200063080310930300011305060063F4C3006E
:101530001305000103C8050093081000238007016C
:1015400063FAC80E03CE1500930E20002380C70156
:1015500063F2CE0E03CF2500930F30002380E70106
:1015600063FACF0C83C63500130740002380D700F1
:101570006372C70C83C245001303500023805700D9
:10158000637AC30A83C35500130860002380770081
:101590006372C80A83C86500130E700023801701A8
:1015A000637ACE0883CE7500130F80002380D701A5
:1015B0006372CF0883CF8500930690002380F701E4
:1015C00063FAC60683C295001307A0002380570064
:1015D0006372C70603C3A5009303B00023806700AE
:1015E00063FAC30403C8B5009308C0002380070151
:1015F00063F2C80403CEC500930ED0002380C70158
:1016000063FACE0203CFD500930FE0002380E701F9
:1016100063F2CF0283C6E5009302F0002380D70077
:1016200063FAC20083C5F5002380B700678000001D
:101630001305000067800000130000001300000085
:10164000832705000347950083C24701A3040500D3
:1016500033E5E2001375E509678000001300000020
:101660008327050003C58701678000001300000081
:1016700003270500834795008342470133E3F200C7
:10168000A304650013F50206678000001300000044
:10169000032705008347C70093E20704230657008A
:1016A000678000001300000013000000130000001A
:1016B000032705008347C70093F2F70B2306570063
:1016C0006780000000000000000000000000000033
:1016D000130101FB23286103139B2700232A5103D5
:1016E000930A050013050B0023248104232291048F
:1016F00023202105232E3103232C4103232611040B
:1017000013890700138A050013040600938406005A
:1017100093090700EF40903B630405666358302F40
:1017200023267103232481032322910393071000AE
:101730006392F9306356202D930BCBFF93D02B008F
:10174000B78C00009388FCFFB707010093F31000EB
:10175000B3CF2803138E0A0013060500330BAB002A
:1017600093860A00374800001383F7FF639403044D
:1017700083920A00039F2A001306450093864A00BD
:10178000B38EF2033307FF03B3850E0113DCF5407C
:10179000931B0C0193D00B01B3F36000B30C070152
:1017A00093D8FC4093970801B3E2F300232055003F
:1017B0006300660903970600039F26008395460091
:1017C000330CF703839E660013068600938686001B
:1017D0003307FF03B3000C0193D3F040939C030144
:1017E00093D80C01B3F26800B38BF503B300070183
:1017F00093D3F040939C0301B3E89201232C16FF8E
:10180000B38EFE03B3870B0193D5F740139F0501F9
:10181000135C0F01B37B6C00B3820E0113D7F2404F
:1018200093170701B3E5FB00232EB6FEE31466F918
:10183000835F050083502500130B10002390FA01ED
:1018400023911A00630E691B37080100130F000073
:1018500093080000930E4500B74200001303F8FF01
:10186000338629419376160093850E0093830900F1
:10187000130600006396060E1386080063C48800F2
:1018800033868840131C2600B38B840183930B009E
:10189000039B2B0083972E00839C0E0083A50A00D8
:1018A0003308FB0233879303B3867702330C074177
:1018B000B30B5C0093D3FB409397030113D707014D
:1018C000337C6700B30C9B03338B960133085B00BA
:1018D0009356F840939B0601B3637C01FB9575001A
:1018E00023A0BA009383190093854E006F00400730
:1018F000634486003306864093132600338B7400BE
:1019000003182B00031C0B0083962500839B050006
:1019100083A30A00B30CD80233077C03338C8603FD
:10192000330B9741B3065B0013D7F640931C0701B6
:1019300013DB0C0133776B00B30B780333087C01A6
:10194000330C58009356FC40939C0601336B97016F
:10195000FB93630123A07A009385450093831700CE
:10196000330616016344860033068640931726002B
:101970003387F400031B2700031C07008396250010
:10198000839B050003A80A00B30CDB02B3077C03AA
:10199000338C860333879741B306570093D7F640BD
:1019A000939C070113D70C01B3776700B30B7B033C
:1019B000330B7C01330C5B009356FC40939C060177
:1019C00033E797017B18E80023A00A0193871300EF
:1019D0003306160193854500E31CF9F013061F003A
:1019E000130E4E00B3884801630C7F00930A0E006B
:1019F0002310FE0123111E00130F06006FF05FE697
:101A0000832BC102032C8102832C41020324810415
:101A10008320C10483244104032901048329C103D1
:101A2000032A8103832A4103032B010313010105C8
:101A30006F40900AB30B3A03378700009302F7FF19
:101A4000B70E0100B305AB002320A103232EB10183
:101A500093800A0093932900930C0000130C00005C
:101A600023225100B74800009387FEFF930F4500E3
:101A7000130B0A00138809006350202F3383A540FD
:101A8000832D41001306C3FF9356260013FD160055
:101A9000B3CA2D03130A0500938E000063140D04CE
:101AA000039E0000039F2000130A4500B38E7000C0
:101AB000B3095E03B3025F03338719011353F74081
:101AC000131603019356060133FDF600B38D120180
:101AD00013DEFD40131F0E01B369ED012320350114
:101AE000630ABA0603960E0083922E0033837E00AB
:101AF000B306560303170300031D2300B30E730040
:101B0000130A8A00B38D5203338E1601135FFE4011
:101B1000B379FF003303570333861D019352F64018
:101B200013970201B3E6E900232CDAFE330D5D03BF
:101B3000B30D130113DEFD40337FFE00B3091D0119
:101B400013D3F94013160301B362CF00232E5AFEBC
:101B5000E31ABAF8035A0500835A2500930E1000C1
:101B60002390400123915001138E00006306D91F7A
:101B70002324A10013051000138D0500B305254192
:101B80002326810113F71500138F0C0093820000A8
:101B90009309000093850F00130C1000130600003A
:101BA00063080712232031016F0040076344860059
:101BB00033068640131C2600B38E840183960500ED
:101BC00003950E0083992500039C2E003387A602FF
:101BD000B38D8903B38E8603B306B741338C1601E8
:101BE0001357FC40931D070193D60D0133FCF600FB
:101BF00083260E0033053503B389AE00B38E190179
:101C000013D7FE40931D0701336CBC017B95860101
:101C10002320AE0093854500130C13003306E60124
:101C2000634486003306864093192600B38E340140
:101C30000397050003950E000393250083992E005A
:101C4000B306A702B30D3303B30E37033387B64190
:101C5000B309170193D6F940B3FDF60033056502C9
:101C60003383AE00B30E130113D7FE40931907015F
:101C7000B3E63D01832D0E007B95DD002320AE00F1
:101C800013031C003306E60193854500E31069F257
:101C9000032E0100B3827200330F7F0113061E0072
:101CA00063068E0B13051000B305254113F71500CD
:101CB000239042012391520193090600138E0200E2
:101CC00093850F00130C100013060000E31C07ECB3
:101CD00013060F0063448F0033068F40131C260049
:101CE000B38D840103932D0083960F00839E0D0016
:101CF00003952F00338C6602B385D6033307650244
:101D0000B38EAE02B38DE540B3861D0113D3F6400A
:101D10009315030113D70501B37DF70003270E00C8
:101D20003305DC01330C15019356FC401393060177
:101D3000B3E56D00FB1DB700130C20002320BE018E
:101D400093854F00232031016FF05FED0325810063
:101D5000032CC10093050D00130C1C009380400060
:101D6000B38C6C01E31A88D1832BC102032C81024E
:101D7000832C4102032D0102832DC1016FF01FC985
:101D8000173901000329497F032409001306700154
:101D9000930510008326C4001735010013058589BB
:101DA000EF50402A83240900930510001306900188
:101DB00083A6C4001735010013054589EF5080281C
:101DC000032A0900032481048320C1048325CA0057
:101DD00083244104032901048329C103032A8103C5
:101DE000832A4103032B01031305A00013010105FE
:101DF0006F504006130000001300000013000000A5
:101E0000B387B602130101F623264109139A26006F
:101E1000232E810833044501232C9108B304440187
:101E2000232A2109232071099392270033075600A2
:101E30003303570083130300232AA1072328B10784
:101E400033894401232ED100232A7100031D07008A
:101E5000831D2700831B2300330A4901635ED05092
:101E6000939615003388B60023283109232451099D
:101E700093992500939A350023226109232E810727
:101E8000232C9107B7280000938C0D00131B28000A
:101E900093954500370C010023205103930D0D004D
:101EA00023223103232661032324B1022322C1000C
:101EB0002324C1002326C100232C01009383989979
:101EC000B7470000930AFCFF2328C100138D0C00C4
:101ED00003160500031E2500B30E7602330F7E02A3
:101EE000B38FFE0093D2FF40231055003307FF004D
:101EF0001353F740231165008316040003182400D0
:101F0000B3887602B3097802338BF8009355FB400F
:101F10002310B400338CF900935CFC40231194012E
:101F200003960400039E2400B30E7602330F7E0254
:101F3000B38FFE0093D2FF40239054003307FF007D
:101F40001353F740239164008316090003182900F6
:101F500003270101B3887602B3097802338BF800B6
:101F60009355FB402310B9000328C100338CF900BE
:101F7000935CFC402311990103160A00031E2A00FA
:101F8000B30E7602330F7E02B38FFE0093D6FF406E
:101F90002310DA00B302FF0013D3F24023116A00CA
:101FA000831C2400031F2700031B04008319070060
:101FB000338EEC0383122800831E080083950400EF
:101FC000839F2400031C050003162500B3083B0370
:101FD0003388C841B308F80013DEF84013180E0127
:101FE0003387D5039358080133FE580133885F02C5
:101FF000330BEB03330F07413307FF009358F740D0
:1020000013980801135F080133775F01B3899903BF
:10201000B38EFE03B38C5502B3053B01B382F500CA
:1020200013DBF24093180B01336E1E012320C10510
:1020300083258100032B4100B38FDC013388FF002F
:10204000135FF84093190F0183920500831E290046
:10205000831C0900336737018399250033885C02AC
:10206000031F0B00831F2B002322E104B3853E03D3
:10207000330BB8403308FB009355F840139B050120
:10208000B388E60313580B0133785801330BF3037D
:10209000B38C3C03B3896841B388F90093D5F84009
:1020A000139B050193590B01B3F85901B382D20375
:1020B000B386F603B38E5C00B38FFE0093DCFF4063
:1020C00093950C01336BB800232461053303E303BC
:1020D000338F66003308FF009359F840939209014B
:1020E000B3E658002326D104FB1EDE00938C0E00BD
:1020F00093D80E01232CD1057B2EDE00935F0E01B9
:1021000093050E002322C1077B136701130F030001
:1021100013580301232E61047B276701139B0C01D5
:1021200013530B41032B410193190F0113DF094195
:10213000330EB303939C05019316080113D80C4189
:10214000835C0500931507011316060193D9054119
:10215000935506013306E301330B6F03B38CCC00B8
:1021600093920801131C0C01330EFE0093D8024118
:102170002310950193520C01135EFE40035C250071
:10218000330BFB00935CFB4093DE0641330E9E0154
:10219000832C41013386D801330CCC003386C20135
:1021A000935607412320E106231185013387B803A5
:1021B000131C0601135B0C01337E5B01939F0F011F
:1021C00093DF0F4133869E033307F7001357F74021
:1021D000330CF6001356FC403307C700338CE50080
:1021E00013160C013367CE00330BA8032328E10438
:1021F000338E7903330BFB001356FB40330EFE0086
:10220000135BFE4033066601338CAF03330EC040D0
:10221000231BC105338B7603330CFC001356FC40A3
:10222000330EFB00135BFE40330C6601231A81055D
:10223000032641057B2EC7002320C4017B17C7005E
:10224000330393032320EA00330FBF03330BF30060
:10225000135CFB40B3889803B30CFF0013D6FC401B
:10226000330ECC00B382C20113970201135307014E
:10227000337F5301B38EBE03338BF800135CFB40F6
:10228000B386A603B388FE0093DCF84033069C01B6
:10229000B385C500139E0501B362CF012324510607
:1022A000B38F7F033387F6001353F7403308780367
:1022B000338FFF00935EFF40330BD341131C0B01A0
:1022C00093560C01B3F85601B389A903B30CF80077
:1022D00013D6FC40B385F90013DEF540B30FC641B9
:1022E00013970F0133E3E800232661067B98620011
:1022F00023A00401FBA26200032F8101032C010132
:102300008328C10003268100832F4100032B410253
:10231000832901028325C102032781020328C10109
:10232000930E1F00B3066C01B38C3801330EB60058
:102330003383EF0023205900232CD1012328D1001F
:10234000232691012324C1012322610013054500A6
:10235000130444009384440013094900130A4A00FB
:10236000E318D8B783290109832A8108032B410880
:10237000032CC107832C81070324C109832481090D
:1023800003294109032AC108832B0108032D4107B2
:10239000832D01071301010A67800000130000006C
:1023A000130101F923202107232671050329470082
:1023B000832B0700232C410523286105138A06007F
:1023C000338B2B03232E310523261106232481066C
:1023D00023229106232A5105232481059306100008
:1023E000930A060013040500B309CA0293102B00D8
:1023F00093840500138C0700330B15009399290073
:102400006300D9402320A105338DCB0293078700B9
:1024100023229105232EB1032326F100931D2900C9
:10242000930C05000327C1009385040013850C005D
:1024300093070C0093060A0013060D00EFF05FF6F9
:10244000B38CBC01B38434010327C10093070C0093
:1024500093060A0013060D0013850C0093850400F3
:1024600063029B11EFF0DFF3B38CBC01B384340142
:102470000327C10093070C0093060A0013060D0002
:1024800013850C0093850400630E9B0DEFF05FF144
:10249000B38CBC01B38434010327C10093070C0043
:1024A00093060A0013060D0013850C0093850400A3
:1024B000630A9B0BEFF0DFEEB38CBC01B3843401F5
:1024C0000327C10093070C0093060A0013060D00B2
:1024D00013850C009385040063069B09EFF05FEC05
:1024E000B38CBC01B38434010327C10093070C00F3
:1024F00093060A0013060D0013850C009385040053
:1025000063029B07EFF0DFE9B38CBC01B3843401B5
:102510000327C10093070C0093060A0013060D0061
:1025200013850C0093850400630E9B03EFF05FE7B7
:10253000B38CBC01B38434010327C10093070C00A2
:1025400093060A0013060D0013850C009385040002
:10255000630A9B01B38CBC01EFF09FE4B3843401A8
:10256000E3129BED832C4104032D0104832DC10351
:10257000130B40000328CC00638C6B4563467B4102
:10258000130B2000638E6B5F930730006396FB5A3A
:10259000139E2A00130709003309C903930810008A
:1025A00093142700B30E280183902E00E3961A0798
:1025B000B3059400373E0000B70A0100B3869500CA
:1025C00013030800130CAEAAB7480000938EFAFF5D
:1025D00083140400831B240033898403B3878B0393
:1025E000330A19019359FA4023103401B3821701B9
:1025F00093DFF2402311F40183930500039F25002C
:10260000338B830333058F0333061B01135EF640C0
:102610002390C501B30A150193D4FA402391950084
:10262000839B060003992600B3878B03330A890333
:10263000B389170113DBF94023906601B3021A0135
:1026400013D5F2402391A600039F0500031608004E
:10265000039E2500831F28003309CF028313030044
:10266000831B2300B30AFE03B3846303B3075941FA
:10267000338A17019359FA409392090113D9020141
:10268000B377D901B30A7503B30FFF03338F5441F6
:10269000B3041F0113DAF44093190A0193D209011C
:1026A000B3FAD201330B7B03330ECE023385A30280
:1026B0003386CF01B30B160113D9FB40931F0901D9
:1026C000B3E7F7012320F102B303AB00338F13010B
:1026D0009354FF40139A0401B3E94A0123223103C2
:1026E000FB9A370193820A0013DE0A012324510367
:1026F0007BAB370113160B01935B064133891B0239
:10270000935F0B41835704001395020193530541D6
:1027100013DF1340B384E74123909500035A24004C
:1027200093190E01338B1F0233061901935BF64098
:1027300093D2094113990B0113DE1240935F0901F3
:10274000B307CA4133F5DF0183230400330F1B01B4
:102750009354FF40139A0401B369450113084800DC
:10276000130383002391F50093520A01138E09008D
:10277000232E3101FB9A530103DB0500139602015E
:10278000935B06012320540133896B0123902601BA
:1027900083DF250013150E0193530501B3877F4096
:1027A0002391F60003DF050083D425001307F7FF0C
:1027B000330A7F41B389930023904501239135016A
:1027C000130444009386460093854500E31207E016
:1027D0008320C106032481068324410603290106C0
:1027E0008329C105032A8105832A4105032B01059D
:1027F000832BC104032C81041301010767800000AF
:10280000B302AB401383C2FF93532300138513001D
:1028100093757500130704006382050C6382250B12
:10282000130620006382C508130830006382050781
:102830009308400063821505130E50006382C503A0
:10284000930E6000639CD55B03DA04001307470016
:10285000231E47FF83D62400B3843401231FD7FEF1
:1028600083D0040013074700231E17FE83D72400DC
:10287000B3843401231FF7FE83D2040013074700FB
:10288000231E57FE03D32400B3843401231F67FEA5
:1028900083D3040013074700231E77FE03D52400CB
:1028A000B3843401231FA7FE83D504001307470018
:1028B000231EB7FE03D62400B3843401231FC7FEB2
:1028C00003D8040013074700231E07FF83D8240002
:1028D000B3843401231F17FFE30CEBC803DE0400AD
:1028E000B38E3401130707022310C7FF83D42400DB
:1028F000338F3E01B30F3F01231197FE83D00E00AB
:10290000338A3F01B3023A01231217FE03D32E008C
:10291000B3863201B3873601231367FE83530F005A
:10292000B3843701231477FE03552F002315A7FE28
:1029300083D50F002316B7FE03D62F002317C7FE3B
:1029400003580A00231807FF83582A00231917FF8A
:1029500003DE0200231AC7FF83DE2200231BD7FFFA
:1029600003DF0600231CE7FF83DF2600231DF7FF9C
:1029700003DA0700231E47FF83D02700231F17FE1B
:10298000E31EEBF46FF0DFBE930550006396BB1AB5
:1029900013050400032481068320C1068324410615
:1029A0008329C105032A8105032B0105832BC1045B
:1029B000032C81049306090093850A00032901066C
:1029C000832A410513060800130101076FF04FC366
:1029D00083294C00939B1A00130B090033895B0178
:1029E000131C2B0093942A0093923A00931629000B
:1029F0006384092C930B1000B305840163947A7FE0
:102A00003386850193741B00B3078601930A08007F
:102A1000130C08009302FBFF63840406032B0400DD
:102A200083A605002B00DB00032E060003AF070082
:102A30002B10EE01832F08002BA0FF012BCA0F00E3
:102A400023204401AB50000023A01500AB59000027
:102A5000232036012B53000023A06700130C8800AD
:102A6000138B020013084800938ACA001304440021
:102A7000938545001306460093874700E38A02D4F6
:102A80008323040003A705002B80E300832B0600AB
:102A900003A907002B902B010325080083280C00B5
:102AA0002B20150183AE0A00ABC40E002320940036
:102AB000AB52000023A05500AB5600002320D600E7
:102AC0002B5E000023A0C701032F440083AF450005
:102AD0002B00FF01032A460083A047002B101A0099
:102AE0008329480003238C002BA0690083A3CA001C
:102AF0002BC703002322E400AB5B000023A2750177
:102B00002B590000232226012B55000023A2A700E9
:102B1000130BEBFF13088800130C0C01938A8A0136
:102B2000130484009385850013068600938787002D
:102B3000E3180BF46FF0DFC91305040003248106CA
:102B400003260C008320C106832441068329C10586
:102B5000032A8105032B0105032C810493870B00B5
:102B600013070900832BC1040329010693850A007A
:102B7000832A410593060800130101076FE05FB542
:102B8000131C290093081000B3078401639A1A4BA1
:102B9000937339001305F9FF638C0306638E5303A7
:102BA0006396736183A80700832E08005BB6D80183
:102BB00083240400DBA2C40023A05700032E0400DA
:102BC0005B1FCE002320E4011308480093874700D1
:102BD000130444001309F9FF83AF0700832608009C
:102BE0005BBADF0083200400DBA9400123A037018A
:102BF00003230400DB134301232074001309F9FFAE
:102C0000130848009387470013044400E30209BCFB
:102C100003A50700832A08005B375501832B0400B6
:102C2000DBA5EB0023A0B700032B04005B1CEB002B
:102C30002320840183A84700832E48005BB6D80177
:102C400083244400DBA2C40023A25700032E4400C7
:102C50005B1FCE002322E40183AF87008326880018
:102C60005BBADF0083208400DBA9400123A4370185
:102C700003238400DB1343012324740003A5C7004E
:102C8000832AC8005B375501832BC400DBA5EB000A
:102C900023A6B700032BC4005B1CEB002326840192
:102CA0001309C9FF130808019387070113040401DE
:102CB000E31009F66FF0DFB113031000B3058401D0
:102CC00063946A663386850193741B00B30786019B
:102CD00013090800930B08009302FBFF63840406AA
:102CE000032B040083A605002B00DB00032E060047
:102CF00083AE07002B10DE01032F08002B20EF010D
:102D0000AB3F0F002320F4012B5A000023A0450104
:102D1000AB50000023201600AB59000023A0370160
:102D2000930B8800138B0200130848001309C90095
:102D3000130444009385450013064600938747001B
:102D4000E38802A8032C040003A305002B006C00F9
:102D5000832A060083A307002B907A00032708002C
:102D600003A50B002B20A70083280900ABB40800A3
:102D700023209400AB52000023A05500AB56000066
:102D80002320D6002B5E000023A0C701832E440021
:102D900003AF45002B80EE01832F460003AA4700B6
:102DA0002B904F018320480083A98B002BA030017A
:102DB000032CC9002B330C0023226400AB5A000003
:102DC00023A25501AB530000232276002B570000AD
:102DD00023A2E700130BEBFF13088800938B0B0172
:102DE0001309890113048400938585001306860066
:102DF00093878700E3180BF46FF09F9D03DF0400B7
:102E0000130744002310E40183DF2400B38434015A
:102E10002311F4016FF05FA333069400B732000072
:102E2000370F0100939A3A00330596001303080008
:102E3000138CA2AAB74500009308FFFF831F04006C
:102E4000031A2400B3868F03B3098A03B383B60041
:102E500093DBF34023107401338BB9009357FB408D
:102E60002311F4000319060083142600B30E89030E
:102E7000B3828403338FBE00935FFF402310F601BB
:102E8000338AB2009356FA402311D6008319050005
:102E900083132500B38B8903338B8303B387BB0074
:102EA00093DEF7402310D5013309BB00135FF940CF
:102EB0002311E5018316080083132800831F0600F1
:102EC000031A260083140300338BDF0283192300C7
:102ED000B30B7A02B3077B413389B700B3829E02FA
:102EE000135BF940931B0B0193D70B0133FB1701C5
:102EF00033093F03B38F7F02B3832241B382B30010
:102F000093DBF24093970B0113D90701B3721901B8
:102F1000B38E3E03338A4603330F9F02B3864F01BD
:102F2000B389B60093DFF94093930F01336B7B00B5
:102F300023206103B384EE01B38BB40093D7FB402D
:102F40001399070133EA220123224103FB1E4B019F
:102F500093890E0093D20E012324D103FB2F4B0142
:102F600093960F0193D30641338B130213DF0F4166
:102F700083540400939B090193D70B4113D9174045
:102F8000338A24412310460183592400939202017D
:102F9000330F1F0293DF0241B306BB0093D31F40E0
:102FA00013DBF640B387794093140B0193DB0401E4
:102FB00033F91B01032A0400B309BF0093D2F9407F
:102FC000939F0201B363F9013308C801330353012E
:102FD0002311F60013DF0F01138B0300232E710062
:102FE000FB1EDA018356060093140F0193DB0401E4
:102FF0002320D4013389DB002310250183572600C9
:10300000131A0B0193590A01B3823741231155005A
:10301000835F0600835326001307F7FF338F7F413A
:10302000338B79002310E601231166011304440059
:103030001305450013064600E31207E06FF04FF951
:10304000937E3900939A2A001306F9FF63860E0ACD
:1030500063881E07638C7E0383A407008322080015
:103060005BBE5400832604005BAFC60123A0E701CA
:10307000832F04005B9ACF012320440133085801B9
:1030800093874700130444001309060083A0070038
:10309000832908005BB33001832304005BA763002E
:1030A00023A0E700832B04005B956B002320A40082
:1030B0003308580193874700130444001309F9FFAC
:1030C00083A50700032B08005BBC6501832804006F
:1030D000DBAE880123A0D70103260400DB148601A0
:1030E000232094001309F9FF330858019387470000
:1030F00013044400630E09EC83A20700032E0800AA
:103100005BBFC20183260400DBAFE60123A0F70109
:10311000032A0400DB10EA012320140033085801BD
:1031200083A9470003230800DBB369000327440099
:10313000DB2B770023A2770103254400DB15750004
:103140002322B400330B580103AC870083280B0003
:10315000DB3E1C0103268400DB24D60123A4970058
:10316000832284005B9ED2012324C401330F5B01C0
:1031700083AFC70083260F005BBADF008320C40043
:103180005BA8400123A607018329C4005B93490182
:10319000232664001309C9FF33085F0193870701E1
:1031A00013040401E31A09F46FF08FE283AA070005
:1031B000032908005BB72A01832B0400DBA5EB0081
:1031C00023A0B700032B04005B1CEB002320840129
:1031D00013084800938747001304440013090500AF
:1031E0006FF05F9C3386850113791B00B30786015E
:1031F00013030800130C08001305FBFF6304090602
:10320000032B040083A805002B001B01832E06005E
:1032100003AE07002B90CE01032F08002B20EF01F7
:10322000AB4F0F002320F4012B5A000023A04501CF
:10323000AB50000023201600AB59000023A037013B
:10324000330C5800130B0500330898003303D300E8
:1032500013044400938545001306460093874700F6
:10326000630805D6832A040083A305002B807A0017
:103270000327060083AB07002B1077010329080002
:1032800003250C002B20A90083280300ABCE0800E7
:103290002320D4012B5E000023A0C5012B5F00007A
:1032A0002320E601AB5F000023A0F701032A4400BE
:1032B00083A0450033089800B3095C003303D300B2
:1032C0002B001A00032C460083AA47002B105C0138
:1032D0008323080003A709002BA0E300832B03002E
:1032E0002BC90B00232224012B55000023A2A5008B
:1032F000AB58000023221601AB5E000023A2D701C9
:10330000130BEBFF33089800338C59003303D300C1
:103310001304840093858500130686009387870035
:10332000E3120BF46FF0CFCA33868501937A1B004A
:10333000B3078601930B0800930908009303FBFF72
:1033400063840A060327040003A505002B00A700D9
:103350008328060003AE07002B90C801832E0800C7
:103360002BA0DE012BBF0E002320E401AB5F000089
:1033700023A0F5012B5A000023204601AB5000008A
:1033800023A01700B3095800138B030033089800DB
:10339000B38BDB00130444009385450013064600FD
:1033A00093874700638603C20329040003AC05002A
:1033B0002B0089010323060083AA07002B10530169
:1033C0008323080003A709002BA0E30003A50B003B
:1033D000AB380500232014012B5E000023A0C5019B
:1033E000AB5E00002320D6012B5F000023A0E70185
:1033F000832F440003AA4500B3009800B389590005
:10340000B38BDB002B804F010328460003A9470044
:103410002B10280103AC000003A309002B206C0033
:1034200083AA0B00ABB30A00232274002B570000C1
:1034300023A2E5002B5500002322A600AB58000074
:1034400023A21701130BEBFF33889000B3895900B7
:10345000B38BDB001304840093858500130686007C
:1034600093878700E3120BF46FF08FB61300000010
:10347000130101FB232291032320A10383AC460007
:1034800003AD0600232C410323261104330A9D03B8
:103490002324810423229104232A51032328610336
:1034A000232671039307100013040500130B060075
:1034B0009384050093102A00930A0700931B2600AB
:1034C000330A1500638EFC5423202105232E31037B
:1034D0002324810393898600139C2C001309050083
:1034E000938504001305090093870A0013870900D8
:1034F00093060B0013060D00EFE09FEA33098901E4
:10350000B384740193870A001387090093060B00A4
:1035100013060D00130509009385040063022A11A8
:10352000EFE01FE833098901B384740193870A002F
:103530001387090093060B0013060D0013050900FD
:1035400093850400630E2A0DEFE09FE5330989019E
:10355000B384740193870A001387090093060B0054
:1035600013060D001305090093850400630A2A0B56
:10357000EFE01FE333098901B384740193870A00E4
:103580001387090093060B0013060D0013050900AD
:103590009385040063062A09EFE09FE0330989015F
:1035A000B384740193870A001387090093060B0004
:1035B00013060D00130509009385040063022A0712
:1035C000EFE01FDE33098901B384740193870A0099
:1035D0001387090093060B0013060D00130509005D
:1035E00093850400630E2A03EFE09FDB3309890112
:1035F000B384740193870A001387090093060B00B4
:1036000013060D001305090093850400630A2A01BF
:1036100033098901EFE0DFD8B3847401E3122AEDA6
:10362000032901048329C103032C8102130A4000EA
:1036300003A8CA0063024D5F634CAA55930E200095
:10364000630CDD27930730006316FD58232E3103EA
:1036500093992C00232021053309380113870C008E
:10366000831C2900B3053401B73F0000370A01006D
:10367000B386350113030800938BAFAA374D0000C2
:10368000930EFAFF831A0400031E240033867A0384
:10369000330F7E03B304A60113DBF440231064014F
:1036A000B300AF0193D2F04023115400839305007F
:1036B00003952500B3887303B3077503B389A80185
:1036C00013D9F94023902501B38FA70113DAFF40E6
:1036D00023914501839A0600039E260033867A03D0
:1036E000330F7E03B304A60113DBF440239066017D
:1036F000B300AF0193D2F040239156008399250087
:10370000831F28000395050083180800B38AF90376
:103710008313030003192300B3071503330A7B0245
:10372000338E57413306AE01135FF64093140F01F9
:1037300093D00401B3F7D001B38A22033305F50314
:10374000B30F5A41338AAF01135EFA4013160E01CC
:10375000135F0601B370DF01330B2B03B38838030B
:10376000B3827202B30915013389A9019354F94058
:10377000939A0401B3E757012328F100B3035B00D8
:103780003385A301935FF540139A0F0133EE400197
:10379000232AC101FB90C7019388000013DF0001B9
:1037A000232C11007BABC70113160B019359064163
:1037B0003389990393540B41835A0400939708016A
:1037C00093D2074193D3124033857A40131A0F01E5
:1037D0002390A500835F2400338B9403330FA9014A
:1037E0001356FF4093190601135E0A4113D90901CC
:1037F00093581E40B374D901B38A1F418322040039
:10380000B307AB0193D3F74013950301B3EFA400C3
:10381000130848001303830023915501135A05012F
:10382000138E0F002326F101FB90120083D80500B0
:10383000131B0A0193590B0123201400338F190124
:103840002390E60103D9250013160E0193540601B7
:10385000B30A99402391560183D2050083D32500F2
:103860001307F7FFB3873241338574002390F500C7
:103870002391A500130444009386460093854500D8
:10388000E31207E0032901048329C1038320C10453
:103890000324810483244104032A8103832A4103EE
:1038A000032B0103832BC102832C4102032D010250
:1038B0001301010567800000139E2C0093F53C0066
:1038C000B307C401138FFCFF6388050A9306100039
:1038D0006388D506638CA50383A40700032B080027
:1038E000DBB06401832204005BA7120023A0E70081
:1038F000832304005B9513002320A40013084800D1
:103900009387470013044400930C0F0003A30700A0
:1039100083280800DB3F1301832B04005BAAFB0113
:1039200023A04701832A04005B9DFA012320A40100
:10393000130848009387470013044400938CFCFF4E
:1039400003A60700832E08005B3ED60183250400F2
:103950005BAFC50123A0E70183260400DB94C60109
:1039600023209400938CFCFF1308480093874700A2
:1039700013044400E38C0CF003AB07008320080021
:10398000DB321B0003270400DB23570023A0770052
:10399000032504005B1355002320640083A847001F
:1039A000832F4800DBBBF801032A4400DB2A7A019D
:1039B00023A25701032D44005B167D012322C4007E
:1039C00083AE8700032E8800DBB5CE01032F840071
:1039D000DB26BF0023A4D700832484005B9BB400B4
:1039E0002324640183A0C7008322C8005BB7500072
:1039F0008323C4005BA5E30023A6A7000323C40020
:103A0000DB18E30023261401938CCCFF1308080174
:103A10009387070113040401E3900CF66FF01FE78E
:103A20003307AA409302C7FF13D322009303130066
:103A30009307050013F57300631296476302050CA4
:103A40006302950B930B200063027509130B300082
:103A5000630265079300400063021504930250005F
:103A60006302550213076000631EE55A03D5040084
:103A70009387470093844400239EA7FE83D6E4FFE8
:103A8000239FD7FE83D50400938747009384440087
:103A9000239EB7FE03D6E4FF239FC7FE83D804000E
:103AA0009387470093844400239E17FF03DEE4FFBF
:103AB000239FC7FF03D804009387470093844400E3
:103AC000239E07FF83DEE4FF239FD7FF03DF04006D
:103AD0009387470093844400239EE7FF83DFE4FF3E
:103AE000239FF7FF83DB0400938444009387470000
:103AF000239E77FF03DBE4FF239F67FFE308FAB20F
:103B000083D004009384040293870702239017FE56
:103B100083D224FE239157FE03D744FE2392E7FE6F
:103B200003D364FE239367FE83D384FE239477FE3E
:103B300003D5A4FE2395A7FE83D6C4FE2396D7FE05
:103B400083D5E4FE2397B7FE03D604FF2398C7FE70
:103B500083D824FF239917FF03DE44FF239AC7FF6E
:103B600003D864FF239B07FF83DE84FF239CD7FFDA
:103B700003DFA4FF239DE7FF83DFC4FF239EF7FF3E
:103B800083DBE4FF239F77FFE31CFAF66FF01FAAA5
:103B9000130650006310CD041305040003248104B0
:103BA0008320C10483244104032A8103832A41031F
:103BB000032B0103832BC102032D010293860C000A
:103BC000832C410213060800930510001301010520
:103BD0006FE00FA3130504000324810403A60A0069
:103BE0008320C10483244104032A8103832A4103DF
:103BF000032B0103832BC10293070D0013870C00D5
:103C0000032D0102832C4102930608009305100046
:103C1000130101056FD0DFAB83AA4A00938E0C001D
:103C2000939C2C0033069401638E0A12B30696010E
:103C300013FF1E00B387960193050800130E0800BA
:103C40009384FEFF63040F06832E0400032B0600FB
:103C50002B806E0183A0060083A207002B905000EA
:103C6000032708002B20E700AB4307002320740044
:103C70002B530000232066002B55000023A0A60034
:103C8000AB58000023A01701130E8800938E040088
:103C9000130848009385C50013044400130646002A
:103CA0009386460093874700E38204BE832F040077
:103CB000832B06002B807F0103AA060083AA07003E
:103CC0002B105A01832C0800032D0E002BA0AC01F1
:103CD00003AF0500AB440F00232094002B5B0000D2
:103CE00023206601AB50000023A01600AB52000059
:103CF00023A0570003274400832346002B007700AE
:103D000003A5460003A347002B1065008328480045
:103D1000832F8E002BA0F80183ABC5002BCA0B00AC
:103D200023224401AB5A000023225601AB5C000061
:103D300023A296012B5D000023A2A701938EEEFF24
:103D400013088800130E0E01938585011304840067
:103D5000130686009386860093878700E3980EF407
:103D60006FF0DFB2B306960113FD1E00B387960114
:103D700093050800130F08009384FEFF63040D06EB
:103D8000032B0400832006002B001B0083A20600E7
:103D900003A707002B90E200032308002B206300F9
:103DA000AB330300232074002B5500002320A60012
:103DB000AB58000023A016012B5E000023A0C70112
:103DC000130F8800938E0400130848009385C500E4
:103DD0001304440013064600938646009387470069
:103DE000E38604AA832F0400832B06002B807F0127
:103DF00003AA060083AA07002B105A01832C08008F
:103E0000032D0F002BA0AC0183A405002BBB0400E5
:103E100023206401AB50000023201600AB520000A9
:103E200023A056002B57000023A0E7008323440063
:103E3000032346002B80630003A5460083A84700A8
:103E40002B101501032E4800832F8F002B20FE011D
:103E500083ABC5002BBA0B0023224401AB5A0000F0
:103E600023225601AB5C000023A296012B5D0000CB
:103E700023A2A701938EEEFF13088800130F0F01F2
:103E800093858501130484001306860093868600BB
:103E900093878700E3980EF46FF05F9F630E050C25
:103EA000630E950B93062000630ED5089305300032
:103EB000630EB50613064000630EC50413085000D8
:103EC000630E050393086000630E150103DE040012
:103ED000930744002310C40183DE2400B3847401DB
:103EE0002311D40103DF040093874700239EE7FFDB
:103EF00083DF2400B3847401239FF7FF03DB0400F6
:103F000093874700239E67FF83D02400B384740106
:103F1000239F17FE03D7040093874700239EE7FEE5
:103F200083D22400B3847401239F57FE03D304007B
:103F300093874700239E67FE83D32400B3847401D4
:103F4000239F77FE03D5040093874700239EA7FE97
:103F500083D62400B3847401239FD7FE83D5040045
:103F600093874700239EB7FE03D62400B3847401D1
:103F7000239FC7FE630CFAEA83D80400338E7401D2
:103F800093870702239017FF83D4240033087E0110
:103F9000B30E7801239197FE835F0E00338F7E016D
:103FA000330B7F012392F7FF83522E00B3007B0176
:103FB00033877001239357FE03530800B30477013E
:103FC000239467FE83532800239577FE03D50E00C4
:103FD0002396A7FE83D62E002397D7FE83550F0086
:103FE0002398B7FE03562F002399C7FE83580B0072
:103FF000239A17FF035E2B00239BC7FF03D8000003
:10400000239C07FF83DE2000239DD7FF035F07006B
:10401000239EE7FF835F2700239FF7FFE31EFAF449
:104020006FF0CFE003D3050093074400938445006D
:104030002310640083D32500231174006FF01FA3A5
:10404000130101FE232C810093073500232E11005C
:104050001304050013952700638006066302060417
:1040600083A0060063EEA00223A0A60013050600AD
:104070008320C101232085000324810197120100C0
:1040800083A2424F171301000323434F2322B5009D
:1040900023265500232465001301010267800000D8
:1040A00023A0A600130500008320C1010324810181
:1040B00013010102678000002326B100EF200021D8
:1040C0008325C100E31605FA130500006FF0DFFD3C
:1040D000130101FE232C810023263101232E110020
:1040E00013040500938906006384C50283268400B7
:1040F00013070400032481018320C1011305060076
:10410000138609008329C100130101026FF04FB625
:10411000232A910093840500638205060325050088
:104120002328210113152500EF20401A130905004B
:104130006308050A83268400130704001386090018
:1041400093850400EFF0CFB2032604009305090025
:104150001385040013162600EF30D03A03248101A2
:10416000832441018320C1018329C1001305090073
:1041700003290101130101026F20001697190100A4
:1041800083A9893F83A009001306700193051000DD
:1041900083A6C000170501001305054DEF20906AA6
:1041A00083A30900930510001306100183A6C30022
:1041B000170501001305C54CEF20D06883A5090041
:1041C000832441011305A00083A5C50003248101B8
:1041D0008320C1018329C100130101026F20904790
:1041E00017140100032444398327040013067001C7
:1041F0009305100083A6C700170501001305854924
:10420000EF20506483220400930510001306800100
:1042100083A6C2001705010013054549EF209062EF
:104220000323040083244101032901018325C300E2
:104230001305A0006FF09FF91300000013000000A9
:10424000130101FB2324810423229104232021054F
:1042500023261104138405009304060013090500A6
:10426000638AC53E232A5103832A850023267103CE
:104270002324810383AB4A0003AC0A00232C4103AF
:1042800093071000330A7C0393102A00E380FB029B
:10429000232E310323286103330A1600938A8A00F0
:1042A000139B2B009309060013850900930709004F
:1042B00013870A009306100013060C0093050400F0
:1042C000EFE00F8EB38969019307090013870A0095
:1042D0009306100013060C00138509009305440093
:1042E00063063A0FEFE0CF8BB389690193070900AA
:1042F00013870A009306100013060C0013850900AB
:104300009305840063043A0DEFE08F89B389690156
:104310009307090013870A009306100013060C0088
:10432000138509009305C40063023A0BEFE04F8741
:10433000B38969019307090013870A0093061000E7
:1043400013060C00138509009305040163003A0964
:10435000EFE00F85B38969019307090013870A000D
:104360009306100013060C00138509009305440101
:10437000630E3A05EFE0CF82B38969019307090024
:1043800013870A009306100013060C00138509001A
:1043900093058401630C3A03EFE08F80B3896901D0
:1043A0009307090013870A009306100013060C00F8
:1043B000138509009305C401630A3A01B3896901B1
:1043C000EFD01FFE13040402E3103AEF8329C10368
:1043D000032B0103130440000328C900E30A8C3EA9
:1043E000E342841F93022000E3045C0A9307300039
:1043F000E310FC3A232E310393992B0013870B0013
:10440000B30B3801839E2B00B3853401B733000012
:1044100037060100B3863501130308009380A3AA71
:1044200037450000130CF6FF839204000399240023
:10443000338F1202B30F1902330AAF00935AFA40B6
:10444000239054013384AF009358F4402391140116
:10445000039E050083972500B3091E02B38B170244
:10446000B383A90013D6F3402390C500B382AB00F9
:1044700013D9F24023912501039F0600839F260054
:10448000330A1F02B38A1F023304AA009358F44070
:1044900023901601338EAA00935BFE402391760190
:1044A0000396050003992500031F280083120800C6
:1044B00083130300B30FE90383192300B3075602E4
:1044C000B38AF741338A78023384AA00135EF4403A
:1044D00093170E0193DF070133F48F01B38A3B0377
:1044E000330EE60333065A41330FA600135AFF403A
:1044F00093170A0193DF0701B3FA8F01B3883803DA
:10450000B3822203B38B7B0233095E00B309A90097
:1045100013DEF94013160E013364C4002328810012
:10452000B3837801338FA300135AFF4093170A0116
:10453000B3EAFA00232A5101FB1F540193820F00B2
:1045400093D80F01232CF1017B2954019319090100
:1045500013DE09413306DE031354094183DB0400F3
:104560009393020113DF0341135A1F40B3874B415A
:104570002390F50083DA240093920801B309D40351
:10458000330EA60093D802411356FE4013D91840AB
:1045900013140601338F2A41935B0401B3F38B019B
:1045A00003AA0400B387A90093DAF74093920A01A3
:1045B000B3E8530013084800130383002391E50177
:1045C00013D902019389080023261101FB1FFA0168
:1045D00003DE0500131609011354060123A0F4019C
:1045E000B30BC4012390760183D32500139F0901E7
:1045F000135A0F01B38743412391F60083DA050074
:1046000083D225001307F7FFB3888A4033095A0085
:10461000239015012391250193844400938646003D
:1046200093854500E31207E08329C1038320C10479
:1046300003248104032A8103832A4103832BC102BB
:10464000032C810283244104032901041301010581
:1046500067800000E384052C03280500232E310326
:1046600013152800EF109046930905006314050008
:104670006F10800923286103032B89002324810301
:1046800023229103032C4B00832C0B00232A51037C
:10469000930E1000B3808C03139520006304DC7725
:1046A000232C410323267103B38AA900130B8B002B
:1046B000931B2C00138A090013050A0093070900B5
:1046C00013070B009306100013860C0093050400DB
:1046D000EFD01FCD330A7A019307090013070B00AF
:1046E0009306100013860C0013050A00930544007E
:1046F00063864A0FEFD0DFCA330A7A0193070900B5
:1047000013070B009306100013860C0013050A0014
:104710009305840063844A0DEFD09FC8330A7A0161
:104720009307090013070B009306100013860C0073
:1047300013050A009305C40063824A0BEFD05FC6DD
:10474000330A7A019307090013070B009306100040
:1047500013860C0013050A009305040163804A09BF
:10476000EFD01FC4330A7A019307090013070B0027
:104770009306100013860C0013050A0093054401EC
:10478000638E4A05EFD0DFC1330A7A01930709002F
:1047900013070B009306100013860C0013050A0084
:1047A00093058401638C4A03EFD09FBF330A7A01DB
:1047B0009307090013070B009306100013860C00E3
:1047C00013050A009305C401638A4A01330A7A017A
:1047D000EFD01FBD13040402E3904AEF032A8103C4
:1047E000832BC102130440000323C900E38A8C1801
:1047F00063409445130F2000E38CEC2F1307300027
:10480000E398EC2C23267103931B2C00232C4103EB
:10481000330A7301831C2A0013070C0033867901C5
:10482000373C0000B7070100B3067601930E030082
:10483000938809009300ACAAB74500001385F7FFE1
:10484000039B0800839A2800B3021B02B38F1A024D
:10485000B383B20013D4F340131E040113580E01A6
:10486000337FA800B38BBF0013DAFB40131C0A018F
:10487000B3678F0123A0F800031B0600831A2600EC
:10488000B3021B02B38F1A02B383B20013D4F340F6
:10489000131E040113580E01337FA800B38BBF0011
:1048A00013DAFB40131C0A01B3678F012320F600C3
:1048B000039B0600839A2600B3021B02B38F1A02E1
:1048C000B383B20013DEF34013140E011358040136
:1048D000337FA800B38BBF0093D3FB40139A03012F
:1048E000336C4F0123A0860183170600031B2600AB
:1048F000031F03008312230003940E003388E70391
:10490000839A2E00B30B5B02330A7841330CBA0052
:10491000B30F8E021358FC40931B080113DA0B01EE
:104920003378AA00338C5303B3825702B3878F4185
:10493000B38FB70093DBFF40139A0B01135C0A019E
:10494000B37FAC00330E5E03330F6F03B383830278
:10495000338BE201B30ABB0093D2FA409397020172
:104960003368F8002328010133047E00B30BB40040
:1049700013DAFB40131C0A0133EF8F01232AE101F4
:10498000FB1FE801138E0F0013DB0F01232CF10135
:10499000FB2AE80193920A0193D70241B38B970354
:1049A00013D80A4103DC080013140E01135A044102
:1049B000135F1A40B30AEC4183D32800131E0B0186
:1049C000135B0E4133089803B387BB0093920A012F
:1049D00093DBF740135C1B4013D40201139A0B01C5
:1049E000B3838341135F0A01337BA400B302B80091
:1049F00013D8F240B37AAF00931B0801139E030152
:104A0000B3E77A01336CCB0103A40800130343001E
:104A1000938E8E002320860113DA0B01138F07007B
:104A20002326F1007B1EF401035B0600931F0A019D
:104A30008353260093DA0F01B3826A01131C0F011E
:104A400013540C0113980201935B0801B387834050
:104A500033FFAB00139A070123A0C801336E4F0147
:104A600023A0C601035B0600835326001307F7FF4C
:104A7000B30F5B41939A0F0113DC0A0133047400F6
:104A8000931204013378AC00B36B580023207601F5
:104A9000938848001306460093864600E31207DA1F
:104AA000032A8103832BC1026F00401A1387C0FFC2
:104AB00093522700138312009373730033851500FC
:104AC00093070600638E030C638E730B930620001E
:104AD000638ED30893053000638EB306130640003F
:104AE000638EC30413085000638E030393086000B1
:104AF000638E1301035E0400938744001304440093
:104B00002390C401835EE4FF2391D401035F04007A
:104B10009387470013044400239EE7FF835FE4FF6D
:104B2000239FF7FF8350040093874700130444003A
:104B3000239E17FE035AE4FF239F47FF835A040076
:104B40009387470013044400239E57FF0357E4FF55
:104B5000239FE7FE83520400938747001304440019
:104B6000239E57FE0353E4FF239F67FE83530400F5
:104B70009387470013044400239E77FE8356E4FF87
:104B8000239FD7FE835504001304440093874700F6
:104B9000239EB7FE0356E4FF239FC7FEE30CA482C7
:104BA000035804001304040293870702239007FFAD
:104BB000835824FE239117FF035E44FE2392C7FF10
:104BC000835E64FE2393D7FF035F84FE2394E7FF95
:104BD000835FA4FE2395F7FF8350C4FE239617FE40
:104BE000035AE4FE239747FF835A04FF239857FF95
:104BF000035724FF2399E7FE835244FF239A57FE6D
:104C0000035364FF239B67FE835384FF239C77FE3B
:104C10008356A4FF239DD7FE8355C4FF239EB7FE72
:104C20000356E4FF239FC7FEE31CA4F66FF08FFA40
:104C300013065000639ECC6893060C001306030015
:104C40009305100013850900EFD08F9B03290900FD
:104C5000938509001385040013162900EF30800A9C
:104C600003248104832A4103032B0103032C8102C3
:104C7000832C41028320C1048324410403290104BD
:104C8000138509008329C103130101056F10C06456
:104C900013992B0093F53B00B38724011385FBFF89
:104CA000638E050693061000638ED502E39285237A
:104CB00003A30700032C0800DB38830103AE0400C4
:104CC000DB231E0123A0770083AE04005B961E0148
:104CD00023A0C4001308480093874700938444002E
:104CE000938BFBFF83A2070003290800DBB5220199
:104CF00003A50400DB26B50023A0D70003AF040002
:104D0000DB1FBF0023A0F401938BFBFF13084800B7
:104D10009387470093844400E38A0B9083A00700A5
:104D2000032A0800DBBA400103A704005B245701F3
:104D300023A0870003A304005B1C530123A084016C
:104D400083A84700032E4800DBB3C80183AE4400AC
:104D50005BA67E0023A2C70083A244005B99720079
:104D600023A2240183A58700032588005BBFA5003B
:104D700083A68400DBAFE60123A4F70183A08400AF
:104D80005B9AE00123A4440183AAC7000327C8005B
:104D90005BB4EA0003A3C4005B2C830023A6870155
:104DA00083A8C4005B9E880023A6C401938BCBFF1D
:104DB000130808019387070193840401E3900BF61D
:104DC0006FF0DF86130650006314CC1C03248104AB
:104DD000032A8103832A4103032C81028320C10417
:104DE0000329010493860B0013850400832BC10261
:104DF00083244104130608009305100013010105E4
:104E00006FD00F801303C5FF935F2300138E1F0025
:104E100013767E00B300A40093870900630E060C8E
:104E2000630E860B93032000630E7608130F300089
:104E3000630EE60713074000630EE604930250007A
:104E4000630E560293086000630E16018356040039
:104E500083552400938749002390D9002391B900FA
:104E60001304440003580400835E24009387470022
:104E7000239E07FF239FD7FF13044400035504001C
:104E8000835A240093874700239EA7FE239F57FF42
:104E900013044400035B040003532400938747007A
:104EA000239E67FF239F67FE13044400835F040073
:104EB000035E240093874700239EF7FF239FC7FFCD
:104EC00013044400035604008353240093874700CF
:104ED000239EC7FE239F77FE13044400035F040054
:104EE00003572400130444002390E7012391E700B3
:104EF00093874700E308148E232C4103835A040050
:104F0000035A2400035B440083526400835F8400DF
:104F10008353A400835EC400035EE40003530401D2
:104F200083582401035844010355640183558401C7
:104F30000356A4018356C401035FE4012390570183
:104F40002391470123926701239357002394F7018C
:104F5000239577002396D7012397C70123986700ED
:104F600023991701239A0701239BA700239CB700CD
:104F7000239DC700239ED700239FE701130404024B
:104F800093870702E31C14F6032A81036FF09F85C1
:104F90000324810403260900032A8103832A410391
:104FA0008320C1040329010493070C0013870B001D
:104FB000032C8102832BC102138504008324410446
:104FC0009306080093051000130101056FC04FF010
:104FD0000329490093820B00939B2B0033867401B5
:104FE000630E0946B306760193F31200B387760188
:104FF0009305080013090800938EF2FF63840306EB
:1050000083A20400032506002B80A20003AF060044
:1050100083AF07002B10FF01832008002BA0100096
:105020002BCA000023A04401AB5A000023205601E4
:105030002B57000023A0E6002B54000023A087007C
:105040001309880093820E00130848009385C50059
:1050500093844400130646009386460093874700D6
:1050600063860EDC83AB0400032306002B806B00F9
:1050700003AC060083A807002B101C01032E0800B8
:10508000832309002B207E0083AE05002BC50E0074
:1050900023A0A4002B5F00002320E601AB5F0000EB
:1050A00023A0F601AB50000023A0170003AA440080
:1050B000832A46002B005A0103A7460003A4470099
:1050C0002B108700832B4800032389002BA06B0043
:1050D00003ACC500AB480C0023A214012B5E0000FA
:1050E0002322C601AB53000023A27600AB5E000072
:1050F00023A2D7019382E2FF130888001309090154
:105100009385850193848400130686009386860028
:1051100093878700E39802F46FF04FD117040100E2
:1051200003248445832004001306700193051000B6
:1051300083A6C00017F5000013050553EF1090700B
:105140000325040093051000130610018326C500F3
:1051500017F500001305C552EF10D06E832E040022
:105160001305A00083A5CE00032481048320C1047D
:105170008324410403290104130101056F10904D9C
:10518000832C4900130F0C00131C2C00338689015B
:1051900063820C40B306860113741F00B387860137
:1051A0001305030013070300138B0900930EFFFF81
:1051B0006304040603AF0900832506002B00BF002B
:1051C00003AE060083A807002B101E01032803006E
:1051D0002B200801AB4C080023A099012B5C000098
:1051E00023208601AB50000023A01600AB5A00001C
:1051F00023A0570113078300138F0E0013034300EE
:105200001305C500138B490013064600938646001C
:1052100093874700E38C0EA283220B00832F0600A6
:105220002B80F20183A3060003A407002B908300C8
:10523000832E0300832507002BA0BE00032E05004C
:10524000AB480E0023201B012B5800002320060131
:10525000AB5C000023A096012B5C000023A087011B
:1052600083204B00832A46002B80500183A24600F6
:1052700083AF47002B90F201832343000324870070
:105280002BA08300832EC500ABC50E002322BB00DC
:105290002B5E00002322C601AB58000023A216019A
:1052A0002B58000023A20701130FEFFF1303830005
:1052B0001307070113058501130B8B0013068600E6
:1052C0009386860093878700E3180FF46FF01F988A
:1052D0000326090093870C0013070C0093060300B4
:1052E0009305100013850900EFC08FBE6FF01F9665
:1052F00013172C0013753C003387E90093870900CE
:10530000130BFCFF6308050A930610006308D5061B
:10531000630C950383270700832C03005BBC970174
:1053200083A00900DBAA80012320570183A2090082
:10533000DB9F820123A0F9011303430013074700F9
:1053400093874900130C0B008323070003240300F9
:10535000DBBE830083A507005BAED5012320C70118
:1053600083A807005B98D80123A00701130343001B
:105370001307470093874700130CFCFF032F070018
:10538000032603005B35CF0003AB0700DB26AB0031
:105390002320D70083AC0700DB90AC0023A01700CC
:1053A000130CFCFF130343001307470093874700C8
:1053B000E30E0C88832A070083220300DBBF5A0018
:1053C00083A307005BA4F3012320870083AE0700BB
:1053D000DB95FE0123A0B700032E4700832843007E
:1053E0005B381E0103AF47005B260F012322C70075
:1053F00003A547005B1B050123A2670183268700E5
:10540000832C8300DBB0960183AA8700DBA21A00FD
:105410002324570083AF8700DB931F0023A477006A
:105420000324C700832EC300DB35D40103AEC700BD
:10543000DB28BE002326170103A8C7005B1FB800A6
:1054400023A6E701130CCCFF130303011307070185
:1054500093870701E3100CF66FF04FFFB306760158
:1054600013FC1200B387760193050800930308002C
:105470009388F2FF63040C0603AE040003250600C4
:105480002B00AE0083AE060003AF07002B90EE01A9
:10549000832F08002BA0FF01ABB00F0023A0140046
:1054A0002B5A000023204601AB5A000023A05601CE
:1054B0002B57000023A0E700930388009382080085
:1054C000130848009385C5009384440013064600E2
:1054D0009386460093874700638A089403A40400D8
:1054E000032306002B00640003A9060083AB07001A
:1054F0002B107901032C080083A803002B201C012A
:1055000003AE05002B350E0023A0A400AB5E000007
:105510002320D6012B5F000023A0E601AB5F000033
:1055200023A0F70183A04400032A46002B804001FA
:1055300083AA460003A747002B90EA0003244800F3
:1055400003A383002B20640003A9C500AB3B090023
:1055500023A274012B5C000023228601AB580000BB
:1055600023A216012B5E000023A2C7019382E2FF53
:105570001308880093830301938585019384840035
:10558000130686009386860093878700E39802F4CB
:105590006FF0CF89B306860193701F00B387860131
:1055A000130503001304030093850900930AFFFF0A
:1055B0006384000603A70900032B06002B00670184
:1055C00083A2060083AF07002B90F2018323030020
:1055D0002BA07300ABBE030023A0D9012B5E0000FB
:1055E0002320C601AB58000023A016012B58000051
:1055F00023A0070113048300138F0A001303430041
:105600001305C5009385490013064600938646009E
:1056100093874700638C0AE283AC0500032C0600E5
:105620002B808C0183A0060083AA07002B905001D9
:1056300003270300032B04002B20670183220500AE
:10564000ABBF020023A0F501AB530000232076007E
:10565000AB5E000023A0D6012B5E000023A0C70193
:1056600083A84500032846002B80080183AC460030
:1056700003AC47002B908C0183204300832A8400D5
:105680002BA050010327C5002B3B070023A2650177
:10569000AB52000023225600AB5F000023A2F601AC
:1056A000AB53000023A27700130FEFFF1303830017
:1056B00013040401130585019385850013068600F4
:1056C0009386860093878700E3180FF46FF00FD856
:1056D00003AF0700832F0800DB30FF0103AA04009B
:1056E000DB2A1A0023A0570103A704005B1417004C
:1056F00023A0840013084800938747009384440044
:10570000930B05006FF0CFDA9704010083A4C4E681
:1057100083A90400130670019305100083A6C90035
:1057200017F50000130505F7EF10D01103A30400CF
:1057300093051000130680018326C30017F50000AF
:105740001305C5F6EF10101083A504008329C103CB
:105750001305A00083A5C5006FF01FA11300000072
:105760006780000013000000130000001300000019
:1057700093771500930630001307500013081000AC
:10578000639407189307050013D6F701B302F600D8
:1057900093D7124013D3F70193F51700B303F30027
:1057A0006394050893D7134093D8F70193FE17002D
:1057B000338EF800639A0E0693571E4013DFF701ED
:1057C00013F61700B30FFF006310060693D71F40B0
:1057D00093D2F70193F317003383F2006396030427
:1057E0009357134093D5F70113FE1700B388F500C4
:1057F000631C0E0293D7184093DEF70193FF170046
:10580000338FFE0063920F0293571F4013D6F701A8
:1058100013F31700B302F6006318030093D7124086
:1058200093F31700E38203F6B3E5D702639205060C
:10583000B3C7D702B3E8D702639C0804B3C7D70243
:1058400033EED70263160E04B3C7D702B3EED70206
:1058500063900E04B3C7D70233EFD702631A0F0267
:10586000B3C7D702B3EFD70263940F02B3C7D7020F
:1058700033E6D702631E0600B3C7D702B3E2D702EE
:1058800063980200B3C7D70233E3D702E30203FAF7
:10589000B3E3E70263920306B3C7E702B3E5E702A7
:1058A000639C0504B3C7E702B3E8E7026396080404
:1058B000B3C7E70233EEE70263100E04B3C7E70293
:1058C000B3EEE702639A0E02B3C7E70233EFE702D3
:1058D00063140F02B3C7E702B3EFE702639E0F0042
:1058E000B3C7E70233E6E70263180600B3C7E7026F
:1058F000B3E2E702E38202FA635CF80013051500E5
:1059000093771500E38007E8930705006FF0DFF158
:1059100067800000000000000000000000000000A0
:105920001308000063C6051263DC0600B337C0002D
:10593000B306D0401348F8FFB386F6403306C040A4
:10594000930806001307050013830500639A060EEB
:1059500063F4C516B70701006364F622B7070001B8
:10596000930680016374F60093060001B747018037
:10597000335ED6009387476CB387C70183C70700A0
:10598000130E0002B387D700B306FE40630CFE007F
:105990003393D500B357F500B318D60033E367004F
:1059A0003317D50013D608013355C3029396080167
:1059B00093D60601935707013373C302B385A6023A
:1059C00013130301B3E7670063FCB700B387F80064
:1059D0001303F5FF63E4170163E6B7401305030003
:1059E000B387B740B3D5C702131707011357070191
:1059F000B3F7C702B386B602939707013367F70080
:105A0000637ED7003387E8009387F5FF636617014D
:105A10009385E5FF6364D70093850700131505019F
:105A20003365B50093050000630A0800B337A00092
:105A3000B305B040B385F5403305A0406780000052
:105A400063F4D50293050000130500006FF0DFFD3D
:105A5000B337A000B305B040B385F5403305A0408F
:105A60001308F0FF6FF05FECB707010063E8F61E64
:105A7000B70700019308800163F4F6009308000162
:105A8000B747018033D716019387476CB387E70088
:105A900003C707009307000233071701B388E740E5
:105AA0006396E71C63E4B6303335C5001335150043
:105AB000930500006FF05FF7630C060CB707010059
:105AC000637CF62C133306101333130013133300C7
:105AD000B3566600B74701809387476CB387D700FA
