:0200000480007A
:100000006F0080496F00C0296F0000486F00C04733
:100010006F0080476F0040476F0000476F00C04689
:100020006F0080466F0040466F0000466F00C0457D
:100030006F0080456F0040456F0000456F00C04471
:100040006F0080446F0040446F0000446F00C04365
:100050006F0080436F0040436F0000436F00C04259
:100060006F0080426F0040426F0000426F00C0414D
:100070006F0080416F0040416F0000416F000052EF
:10008000973101009381813417010300130181F737
:1000900017050000130505F713651500731055309B
:1000A000138581F4138681253306A640930500004D
:1000B000EF50900A1765000013058584EF3010702B
:1000C000EF50007A130500009305000013060000AE
:0C00D000EF0000016F30D06F678000006F
:1000E000130101812326117E2324817E2322917E08
:1000F0002320217F93060000130101FE1306000058
:100100009305000013050020EF30800263040516FC
:10011000130405001715010013054596EF40907B69
:10012000F32420B0732900B097150100938505A131
:100130001306010013050400EF30801FF32220B0E6
:1001400033849240732300B0171501001305059402
:10015000B3042341EF401078138704009306040092
:100160001386040093050400171501001305059379
:10017000EF40505137160000130606809715010016
:100180009385C51B13050100EF50803A1309050044
:1001900063180502171501001305C597EF4090730A
:1001A000130101028320C17E130509000324817E0F
:1001B0008324417E0329017E1301017F67800000B3
:1001C0001715010013058590EF40D070B717000098
:1001D00093830780130401003389230097140100DF
:1001E0009384C4920316240083150400138504002D
:1001F00013040402EF401049031664FE831544FE05
:1002000013850400EF4010480316A4FE831584FEF6
:1002100013850400EF4010470316E4FE8315C4FE67
:1002200013850400EF401046031624FF831504FFD6
:1002300013850400EF401045031664FF831544FF47
:1002400013850400EF4010440316A4FF831584FFB8
:1002500013850400EF4010430316E4FF8315C4FF29
:1002600013850400EF401042E31E24F71309100029
:100270006FF01FF3170501001305057FEF40906530
:10028000130910006FF0DFF1000000000000000013
:100290001305000067800000130000001300000039
:1002A0001305000067800000130000001300000029
:1002B0001305000067800000130000001300000019
:1002C0001305000067800000130000001300000009
:1002D00013050000678000001300000013000000F9
:1002E00013050000678000001300000013000000E9
:1002F00013050000678000001300000013000000D9
:1003000013050000678000001300000013000000C8
:1003100013050000678000001300000013000000B8
:1003200013050000678000001300000013000000A8
:100330001305000067800000130000001300000098
:100340001305000067800000130000001300000088
:100350001305000067800000130000001300000078
:100360001305000067800000130000001300000068
:100370001305000067800000130000001300000058
:100380001305000067800000130000001300000048
:100390001305000067800000130000001300000038
:1003A0001305000067800000130000001300000028
:1003B0001305000067800000130000001300000018
:1003C0001305000067800000130000001300000008
:1003D00013050000678000001300000013000000F8
:1003E00013050000678000001300000013000000E8
:1003F00013050000678000001300000013000000D8
:1004000013050000678000001300000013000000C7
:1004100013050000678000001300000013000000B7
:1004200013050000678000001300000013000000A7
:100430001305000067800000130000001300000097
:100440001305000067800000130000001300000087
:100450001305000067800000130000001300000077
:100460001305000067800000130000001300000067
:100470001305000067800000130000001300000057
:100480001305000067800000170501001305D54023
:10049000EF4050446FF05FFF130101FC2320110077
:1004A0002322A1002324B1002326C1002328D10048
:1004B000232AE100232CF100232E01012320110324
:1004C0002322510223246102232671022328C1031F
:1004D000232AD103232CE103232EF103F32220341A
:1004E00013032000638862021303B0006388620074
:1004F00013033000638862006F00C002EF00403ECB
:100500006F004003170501001305C534EF40903C10
:100510006F004002170501001305C52EEF40903B08
:100520006F004001170501001305E534EF40903AD4
:100530006F004002F32210340383020013053000E1
:100540003373A3006314A3009382220093822200DA
:10055000739012348320010003254100832581001C
:100560000326C1008326010103274101832781015E
:100570000328C1018328010283224102032381024F
:100580008323C102032E0103832E4103032F810322
:10059000832FC10313010104730020307300203046
:1005A0003305A04023AEA1F41305F0FF67800000DF
:1005B000970701009387873013085005370700100D
:1005C0002320070183C61700638006062320D70077
:1005D00083C22700638A02042320570003C3370025
:1005E000630403042320670083C34700638E030270
:1005F0002320770003C55700630805022320A700C6
:1006000083C56700638205022320B70003C6770015
:1006100093878700630A06002320C70003C80700EA
:10062000E31008FA678000006780000013000000F4
:100630009307800523AEF1F41305F0FF67800000F7
:100640009307800523AEF1F41305F0FF67800000E7
:100650009307800523AEF1F41305F0FF67800000D7
:100660009307800523AEF1F41305F0FF67800000C7
:100670009307800523AEF1F41305F0FF67800000B7
:100680001305F0FF67800000130000001300000056
:100690009307C00023AEF1F41305F0FF678000005C
:1006A000B707048023A0A700730050106F0000005C
:1006B0009307800523AEF1F41305F0FF6780000077
:1006C0009307B00023AEF1F41305F0FF678000003C
:1006D000B727000023A2F500130500006780000083
:1006E0009307800523AEF1F41305F0FF6780000047
:1006F0009307800523AEF1F41305F0FF6780000037
:10070000930780FA23AEF1F4130500006780000020
:1007100013051000678000001300000013000000A4
:10072000930780FA23AEF1F41305F0FF6780000011
:100730001305F5FF13351500678000001300000056
:100740009307600123AEF1F41305F0FF678000000A
:100750009307F00123AEF1F41305F0FF678000006A
:100760001305000067800000130000001300000064
:100770009307800523AEF1F41305F0FF67800000B6
:100780001305F0FF67800000130000001300000055
:100790009307800523AEF1F41305F0FF6780000096
:1007A0001305000067800000130000001300000024
:1007B000B727000023A2F5001305000067800000A2
:1007C0001305F0FF67800000130000001300000015
:1007D0001305F0FF67800000130000001300000005
:1007E0009307200023AEF1F41305F0FF67800000AB
:1007F0009307800523AEF1F41305F0FF6780000036
:100800009307A00023AEF1F41305F0FF678000000A
:10081000130101FF23202101138981F4832709009B
:1008200023248100232291002326110093840500B4
:1008300013040600638A070213060400938504006C
:100840001725010013058538EF0080598320C1006A
:1008500013050400032481008324410003290100BF
:100860001301010167800000B7C5010013063000C5
:10087000938505201725010013054535EF004049F4
:1008800093021000232059006FF01FFB130000009B
:1008900023ACA1F2130500006780000013000000E4
:1008A000138781F3032307003305A3002320A70048
:1008B000637C250097F202009382C2746376550030
:1008C00013050300678000009307C0001303F0FFC7
:1008D00023AEF1F41305030067800000130000004D
:1008E000130101FF23229100232611009307100812
:1008F0009384050063CC170D9307F00263D61703AA
:10090000938008FD9302100563E4120217030100AF
:10091000130303FD939820003387680083230700A7
:10092000B385630067800500930E1001638AD80FBA
:100930009304500517070100130747F8B70F00107D
:1009400023A09F0083471700638E070423A0FF00A6
:10095000834027006388000423A01F0083423700E0
:100960006382020423A05F0003434700630C030279
:1009700023A06F00834857006386080223A01F014D
:10098000834367006380030223A07F0083457700D1
:10099000638A05001307870023A0BF008344070074
:1009A000E39004FA8320C100832441001301010174
:1009B000678000008320C100130E800523AEC1F5BF
:1009C0008324410013010101678000009300F0407F
:1009D000E3C010F79302F03F63D61203938808C078
:1009E0001303F000E36613F5170701001307C703AD
:1009F000939328003385E300832505003386E500C3
:100A000067000600130EC00AE38EC8F963461E0392
:100A1000130F9009E388E8F9930F900AE39AF8F12D
:100A2000130F80FA23AEE1F56FF0DFF737250000F2
:100A300023A2A4006FF01FF7930E600DE39AD8EF86
:100A400023ACA1F26FF01FF61308F00123AE01F5FD
:100A50006FF05FF59306200023AED1F46FF09FF4A2
:100A6000370404802320A400730050106F0000009E
:100A70009304600123AE91F46FF0DFF22320210193
:100A8000138981F42324810013040600032609003E
:100A900063060602130604000324810003290100F3
:100AA0008320C100938504008324410017250100A1
:100AB0001305C511130101016F008032B7C6010093
:100AC0001306300093850620172501001305051035
:100AD000EF00002413081000232009016FF09FFB92
:100AE0008327C500638807208328050163840820C5
:100AF0000328050003469500032745018346480166
:100B0000B3E2C600A304550013F306026302031EFA
:100B1000B383E84093050001138F030063F475006D
:100B2000130F0001638AE81C338EE700834E0E002A
:100B3000930F1700130610002300D801232AF50194
:100B40006370761AB386F70183C206001303270089
:100B50009305200023005800232A650063F27518CE
:100B6000338E6700834E0E00130637009306300065
:100B70002300D801232AC50063F47616B382C70088
:100B800003C3020093054700130E400023006800D2
:100B9000232AB50063767E14B38EB70083C60E0099
:100BA00013065700930250002300D800232AC500E3
:100BB00063F872123383C70083450300930E670006
:100BC000130E60002300B800232AD501637A7E103B
:100BD000B386D70183C206001306770013037000A3
:100BE00023005800232AC500637C730EB385C70019
:100BF00083CE050093068700130E80002300D801E2
:100C0000232AD500637E7E0CB382D70003C3020083
:100C1000130697009305900023006800232AC5005F
:100C200063F0750CB38EC70083C60E009302A70055
:100C3000130EA0002300D800232A550063727E0AF9
:100C400033835700834503001306B700930EB000AB
:100C50002300B800232AC50063F47E08B386C700CA
:100C600083C206001303C700130EC0002300580000
:100C7000232A650063767E06B385670083CE050070
:100C80001306D7009306D0002300D801232AC500FD
:100C900063F87604B382C70003C302009305E7003C
:100CA000130EE00023006800232AB500637A7E0259
:100CB000B38EB70083C60E001306F7009302F00050
:100CC0002300D800232AC50063FC7200B387C70045
:100CD00003C307001307070123006800232AE50068
:100CE00093050000638403009305FFFF3387F5013C
:100CF0006384E800678000008348480023280500DB
:100D000013F5D80F2302A80067800000130000002D
:100D1000130101FE232A910083240500232C810066
:100D20002328210123263101232E110023820400D0
:100D300023840400930770FC2384F40023880400B8
:100D40002322B5001304050013890500930906004A
:100D5000930600001386050037D512139305000093
:100D6000EF20D05CB7028000637455029350F50009
:100D7000130700F82386E40013F3F00F13557500F2
:100D8000238264009373F50F23807400238604008C
:100D90002386340123043401A304040097050000D2
:100DA000938545D4232224018320C10123280400F4
:100DB00023260400232A0400232E0400232C0400ED
:100DC000232204022320B40203248101832441014D
:100DD000032901018329C10013010102678000007A
:100DE000130101FF23260100638C0522630A0622FA
:100DF000032505003386C50093071003034745010B
:100E0000232601008326C1009372F70F63E2D70AFD
:100E10000323C10093031300232671000328C1009C
:100E200063E807098328C100138E18002326C10137
:100E3000832EC10063EED707032FC100930F1F005D
:100E40002326F1010327C10063E4E7068326C100DE
:100E500013831600232661008323C10063EA77040D
:100E60000328C1009308180023261101032EC10096
:100E700063E0C705832EC100138F1E002326E10106
:100E8000832FC10063E6F7030327C1009306170011
:100E90002326D1000323C10063EC67008323C10034
:100EA00013881300232601018328C100E3F217F7FA
:100EB00093F20202E38402F423260100032EC10010
:100EC00063E2C70B832EC100138F1E002326E101AE
:100ED000832FC10063E8F7090327C10093061700B9
:100EE0002326D1000323C10063EE67068323C100DC
:100EF00013881300232601018328C10063E4170728
:100F00008322C100138E12002326C101832EC1004B
:100F100063EAD705032FC100930F1F002326F101B9
:100F20000327C10063E0E7048326C1001383160092
:100F3000232661008323C10063E677020328C100F2
:100F400093081800232611018322C10063EC570087
:100F5000032EC100930E1E002326D101032FC100D2
:100F6000E3F2E7F783CF05002300F5012326010014
:100F70000327C10063E2E70A8326C100138316003A
:100F8000232661008323C10063E877080328C1009A
:100F900093081800232611018322C10063EE57062F
:100FA000032EC100930E1E002326D101032FC10082
:100FB00063E4E707832FC10013871F002326E100A6
:100FC0008326C10063EAD7040323C10093031300FF
:100FD000232671000328C10063E007058328C100B0
:100FE0009382180023265100032EC10063E6C70335
:100FF000832EC100138F1E002326E101832FC10021
:1010000063ECF7010327C100930617002326D100E4
:101010000323C100E3F267F693851500E390C5DE74
:10102000130101016780000013000000130000009D
:101030006388050E03C605006304060E83270500BA
:10104000130101FF9386150003C747019372F70F41
:10105000A30751000343F100937303026396030A4D
:1010600003C547019375F50FA307B1000348F100CD
:1010700093780802639A080803CE4701937EFE0F17
:10108000A307D101034FF100937F0F02639E0F0668
:1010900003C747019372F70FA30751000343F10001
:1010A000937303026392030603C547019375F50F1B
:1010B000A307B1000348F10093780802639608047F
:1010C00003CE4701937EFE0FA307D101034FF1002A
:1010D000937F0F02639A0F0203C747019372F70FC2
:1010E000A30751000343F10093730302639E0300BF
:1010F00003C547019375F50FA307B1000348F1003D
:1011000093780802E38208F4938616002380C700D0
:1011100003C6F6FFE31A06F213010101678000001F
:10112000678000001300000013000000130000009F
:10113000630C0602638A0502032705009706000078
:101140009386469A2326B500834747002328C50087
:10115000232A05002320D50293E22700230257000B
:10116000732340F16304030067800000B723000C81
:1011700017260100130686A583A503003305C54085
:101180001338150093081000339E0801B36EBE009B
:1011900023A0D301678000001300000013000000AB
:1011A00083270500034795008326050183C2470175
:1011B00033E3E200A304650093F3F20F63980600A3
:1011C00013D5630013751500678000001305000038
:1011D00067800000130000001300000013000000EF
:1011E0009307050063800518630E061603270500A4
:1011F0000345950083464701B3E2A600A384570048
:1012000013F31600630003169373360013050000F2
:10121000638C030813081000638003079308200001
:101220006386130303470700130510002380E500BE
:1012300003A7070003CE9700834E470133EFCE018B
:10124000A384E70193FF1E0063820F128346070009
:10125000B382A500130515002380D20003A7070061
:1012600003C397008343470133E86300A384070166
:1012700093F81300638C080E034E07003387A50014
:10128000130515002300C70103A7070083CE9700AD
:10129000034F4701B36FDF01A384F70193761F006B
:1012A0006386060C6306A60C83420700B383A50081
:1012B000130515002380530003A8070003CE9700F1
:1012C0003383A5000347480193080500B36EC701A7
:1012D000A384D701137F1700630A0F08834F080008
:1012E00013051500B382A5002300F30183A30700B3
:1012F00083C6970003C343013368D300A384070167
:10130000137E130063040E0603C703001385280031
:10131000B38EA5002380E20003AF070083CF9700C0
:1013200083424F01B3E3F201A384770093F61200E6
:10133000638E060203430F001385380023806E007E
:1013400003A7070083C89700034E470133681E01B7
:10135000A3840701937E1E00638A0E00E316A6F4A1
:1013600067800000130500006780000067800000B0
:10137000678000001300000013000000130000004D
:10138000F32740F163960702B726000C17270100E8
:101390001307C78303A60600B302E54013B3120088
:1013A0009303100033986300B368C80023A01601AC
:1013B000370E0100930EFEFF638CD5010325050057
:1013C00093F5F500034F4500B36FBF002302F5010D
:1013D00067800000130000001300000013000000ED
:1013E000638E05029307000C63EAC702032705001A
:1013F000232EB5008342870013F3F203B363C300C7
:1014000093F5F30F2304B7000346470093661600D5
:101410002302D700732840F16304080067800000AE
:10142000B728000C971E0100938E4E7A03AE080079
:101430003305D541133F1500930F1000B397EF010B
:1014400033E7C70123A0E800678000001300000015
:1014500063840502032705002320B5022326050027
:10146000834747002328050093E227002302570003
:10147000732340F16304030067800000B723000C6E
:10148000971501009385857483A603003305B54045
:101490001336150013081000B318C80033EED80037
:1014A00023A0C301678000001300000013000000A8
:1014B00063800502032705002322B5028347470006
:1014C00093E2870023025700732340F16304030073
:1014D00067800000B723000C971501009385056F06
:1014E00083A603003305B54013361500130810001A
:1014F000B318C80033EED80023A0C30167800000F2
:10150000638805126306061283270500834695004B
:1015100003C74701B362D700A30455001373070242
:1015200063080310930300011305060063F4C3006E
:101530001305000103C8050093081000238007016C
:1015400063FAC80E03CE1500930E20002380C70156
:1015500063F2CE0E03CF2500930F30002380E70106
:1015600063FACF0C83C63500130740002380D700F1
:101570006372C70C83C245001303500023805700D9
:10158000637AC30A83C35500130860002380770081
:101590006372C80A83C86500130E700023801701A8
:1015A000637ACE0883CE7500130F80002380D701A5
:1015B0006372CF0883CF8500930690002380F701E4
:1015C00063FAC60683C295001307A0002380570064
:1015D0006372C70603C3A5009303B00023806700AE
:1015E00063FAC30403C8B5009308C0002380070151
:1015F00063F2C80403CEC500930ED0002380C70158
:1016000063FACE0203CFD500930FE0002380E701F9
:1016100063F2CF0283C6E5009302F0002380D70077
:1016200063FAC20083C5F5002380B700678000001D
:101630001305000067800000130000001300000085
:10164000832705000347950083C24701A3040500D3
:1016500033E5E2001375E509678000001300000020
:101660008327050003C58701678000001300000081
:1016700003270500834795008342470133E3F200C7
:10168000A304650013F50206678000001300000044
:10169000032705008347C70093E20704230657008A
:1016A000678000001300000013000000130000001A
:1016B000032705008347C70093F2F70B2306570063
:1016C0006780000000000000000000000000000033
:1016D000130101F52322910A232C41098324470099
:1016E000032A0700232A5109930A060033089A02A5
:1016F0002320A1092326110A2324810A2320210B58
:1017000023229109232EB107232E310923286109B1
:1017100023267109338D5603931028002324810951
:10172000130610001304050013890500938C0700AD
:10173000B30D1500131D2D006384C444B30B5A036D
:1017400013890A0093098700139C2400130B0500DA
:10175000138E0500930A05001384060013050B0081
:1017600093870C00138709009306040013860B006F
:1017700093050E002320C101EFF09FF583220100A5
:10178000330B8B0193870C003383A201138709006D
:101790009306040013860B0013050B00930503004A
:1017A000638E6D1323206100EFF09FF2832301000D
:1017B000330B8B0193870C00B388A3012320110105
:1017C000138709009306040013860B0013050B0012
:1017D0009385080063846D11EFF09FEF832501006E
:1017E000330B8B0193870C00338EA5012320C1019D
:1017F000138709009306040013860B0013050B00E2
:1018000093050E00638C6D0DEFF09FEC832E0100AD
:10181000330B8B0193870C00338FAE012320E10142
:10182000138709009306040013860B0013050B00B1
:1018300093050F0063846D0BEFF09FE9832F010088
:10184000330B8B0193870C003388AF0123200101F8
:10185000138709009306040013860B0013050B0081
:1018600093050800638C6D07EFF09FE6832201006B
:10187000330B8B0193870C003383A201232061007B
:10188000138709009306040013860B0013050B0051
:101890009305030063846D05EFF09FE3832301004C
:1018A000330B8B0193870C00B388A3012320110114
:1018B000138709009306040013860B0013050B0021
:1018C00093850800638C6D01EFF09FE00325010014
:1018D000330B8B01330EA501E3926DE913840A00EB
:1018E000930A0900930D4000E300BA1763CE4D41FF
:1018F000930F2000E308FA5113073000E31EEA209B
:10190000939D2A00B38BB40303A8CC00930210006C
:101910009393240033097801831C290063845A00BF
:101920006F10C02333077400B73D00003705010076
:10193000B305770093080800138CADAA374D00005B
:101940009300F5FF03190400031B2400B309890366
:10195000330F8B03B382A90193D7F2402310F40015
:101960003306AF01935FF6402311F401031A070019
:10197000831A2700B30B8A03338E8A03B38EAB011D
:1019800093D3FE40231077003303AE019356F34008
:101990002311D700839D05000395250033898D030E
:1019A000330B8503B309A90193D2F9402390550065
:1019B000330FAB011356FF402391C500031A0800F3
:1019C000831B2700031E2800831F0700839E080037
:1019D000B30A7E0383932800B307FA03338F4B03C4
:1019E000B3865741B38DA60113D5FD4013190501E8
:1019F000135B0901B3771B00B30FFE0333835E0251
:101A0000330EFF01B389C302B3825302330A334159
:101A1000B30BAA0193DAFB4013930A019356030117
:101A2000B3FD16003386CE02B30EAE0113D5FE40D1
:101A30001319050133EB270123206105B303560079
:101A4000B387A30193D9F740139F090133EAED014E
:101A500023224105FB1B4B01938A0B0013D30B017F
:101A600023247105FB2D4B0193960D0193DF064155
:101A700033869F0313DE0D41835E040013950A0134
:101A800013590541135B1940B3826E41231057006F
:101A90009317030183532400330A9E03B30AA6015C
:101AA00013D3FA40931D030193D9074193D60D0137
:101AB00013DF194033F61600338EE341832F040001
:101AC000B30EAA0113D5FE4013190501336B26018D
:101AD00013084800938888002311C7019352090115
:101AE00093030B00232E6103FB9B7F0183590700A7
:101AF0009397020113DA070123207401330F3A018F
:101B00002390E501835A270013930301935D03019A
:101B1000B386BA412391D50003560700035E270020
:101B20009384F4FFB30F4641B38ECD012310F70128
:101B30002311D70113044400938545001307470080
:101B4000E39204E08320C10A0324810A8324410A2A
:101B50000329010A8329C109032A8109832A41092A
:101B6000032B0109832BC108032C8108832C410816
:101B7000032D0108832DC1071301010B67800000AD
:101B8000B387AD409386C7FF13D72600130617000F
:101B900093707600130705006382000C6382900A3D
:101BA000930B200063827009930930006382300731
:101BB000130C400063828005930550006382B002DD
:101BC000930E6000E392D0570358090013074700B3
:101BD000231E07FF835229003309A901231F57FE43
:101BE0000353090013074700231E67FE8353290090
:101BF0003309A901231F77FE835809001307470003
:101C0000231E17FF035B29003309A901231F67FF68
:101C10000355090013074700231EA7FE035E290092
:101C20003309A901231FC7FF835709001307470082
:101C3000231EF7FE835629003309A901231FD7FE6F
:101C40000356090013074700231EC7FE83502900CF
:101C50003309A901231F17FEE386EDC8835B090042
:101C6000B309A90113070702231077FF835E290038
:101C7000338CA901330FAC012311D7FF83DF090097
:101C8000B305AF01B382A5012312F7FF03D82900E2
:101C90003383A201B303A301231307FF83580C006E
:101CA0003389A301231417FF035B2C00231567FF5F
:101CB00003550F002316A7FE035E2F002317C7FF4F
:101CC00083D705002318F7FE83D625002319D7FEF6
:101CD00003D60200231AC7FE83D02200231B17FE5F
:101CE000835B0300231C77FF83592300231D37FFE9
:101CF00003DC0300231E87FF83DE2300231FD7FF9F
:101D0000E39EEDF46FF01FBE130F50006316EA61FF
:101D1000B38E9A0283ACCC00939B2400B30274016F
:101D2000B383720133897301330A7901939D2E00C5
:101D30003387BC01B30FB7018310070003162700D8
:101D4000039B0F00039C2F0023261100232CC100AE
:101D50002328610123228101E35690DE13951A00A6
:101D6000B309550113932A0093983A00139D290053
:101D7000B7260000939A4A00370E01002324A103DE
:101D8000232E6100232011032322510323209101DC
:101D9000138D0C00938D0C00232A0100938F9699CC
:101DA000B74700009300FEFF23269102831404002E
:101DB00003182400B385F403330FF803B38EF50042
:101DC00093DBFE40231074013307FF001356F740E6
:101DD0002311C400039B0200039C22003305FB0374
:101DE000B309FC03B306F50013D3F6402390620059
:101DF000B388F90093DAF84023915201039E03005F
:101E0000839423003308FE03B385F403330FF800F3
:101E1000935EFF402390D301B38BF50013D7FB40B3
:101E20002391E30003160900031B2900330CF6037A
:101E30003305FB03B309FC0093D6F9402310D90006
:101E40003303F5009358F34023111901831A0A0054
:101E5000031E2A00B384FA033308FE03B385F4009B
:101E600093DBF54023107A01330FF800935AFF40BB
:101E700023115A01039E220003972C00839902002C
:101E800083960C00B308EE0203960300839E2300A2
:101E900083942D0003930D00031B0400031C2400F6
:101EA0003385D902B3051541338FF500B389E902B3
:101EB0001355FF409318050193D5080133FF150012
:101EC000B386C6033308660233859E02330E96023C
:101ED0003386D900B304F6003307A8403308F7006F
:101EE00093D9F4409358F840139809019395080149
:101EF000B3680F013303D30313D5050133771500FE
:101F000023201105B30E6E00338FFE009355FF4062
:101F1000139505013367A7002322E1048316090006
:101F20000313290003180D0003162D00832401005C
:101F3000338F0603039E0400839E2400B309C3026B
:101F4000B3053F41B384F50013DFF4403385CB0381
:101F500093190F0193D50901B3F41500338FDA03F8
:101F60003386C602B306E5413385F6009359F54042
:101F70009395090113DF050133751F00B38BDB0354
:101F800033086802B38ACA0333030601B30EF300B1
:101F900013D6FE4093160601B3E4D4002324910423
:101FA000338E5B01B309FE0093D5F940139F050101
:101FB000B36BE501232671057B93780113080300B9
:101FC00013550301232C6104FBA8780193DE08015B
:101FD0001386080023221107FB169700938A060038
:101FE00093D90601232ED1047B279700832BC100B0
:101FF0009314080113D80441B3087803832B01011B
:10200000139E0A01935A0E41139F090193590741E8
:1020100023243101035E04009316070193D4064183
:10202000B3897A03B3065801131B0B0113530F41F5
:10203000330EDE00135F0B0193150501035B2400D3
:10204000B388F80013D50541B386F90093D9F6405B
:1020500013160601131C0C0193D8F8409355064142
:10206000B388380113560C01330C6500330B8B0118
:10207000330C1F01832BC1002310C401131E0C015C
:10208000032C01012320E1062311640133077503AA
:10209000135B0E01B3791B0083268101939E0E0111
:1020A00093DE0E41330E83033307F7001357F740D7
:1020B000330BFE00135EFB403307C701330BE60012
:1020C000131E0B0133E7C90183294100B388D502F0
:1020D0002328E104338E3403B388F80093D8F84002
:1020E000B309FE0013DEF940B388C801B3091041FB
:1020F000032E410083288100338BDE02231B310530
:10210000338EC803330BFB009359FB40B308FE002A
:1021100013DEF840338BC901231A6105832841057A
:10212000FB29170123A032017B171701330888030D
:102130002320EA00B38A7A03330EF800135BFE40D3
:1021400033058503338CFA009358FC40B3091B0117
:10215000330F3F0113170F0113580701B37A18000B
:10216000138B06008326810033037303B30BF50042
:1021700013DEFB403305F3009358F540B3091E010D
:1021800033063601131F060133E8EA01832A4100B2
:10219000338C660323240107B38E5E033307FC00F0
:1021A0001353F740B3855503B38BFE0013DEFB409A
:1021B000B306C341139C060113550C01B3781500F7
:1021C000B3846403338BF5009359FB403386F400EA
:1021D000135FF640B38AE941939E0A0133E7D801C1
:1021E0002326E1067B13E80023A063007B28E80098
:1021F000832541010325010083284102032EC101EB
:1022000083260102032C8102032BC102938B15004C
:10221000B304150123200901232A71012320910011
:10222000130444009382420093834300130949003E
:10223000130A4A00B38CCC01B38DDD00330D8D0140
:10224000E3167BB76FF01F90130D100003A6CC00B0
:1022500013850400139A24006396AA6F330844017F
:10226000B305480193FA140083AC4C00B3874501D1
:102270009308060013030600130F4000638E0A5AEA
:10228000032E04007B79EE0123202401832F080014
:10229000832006007BBD1F0003AA05007B3B1A00BC
:1022A00003A30700FB3313007B7CEA0123A0850115
:1022B00083290400FBAB6901FB227D00FB9E6901C1
:1022C0002320D401FB1D7D007BA5BE0123A0A5001A
:1022D000832604007B97B6012320E40013038600C5
:1022E0009388C80013064600E39E0C28FBDA5B00C7
:1022F000232058017BCE5B0023A0C7011385F4FF88
:102300001304440013084800938545009387470051
:10231000631405526FF01F83131C2A0013050C0071
:1023200003A90C0083A9CC00EF10504DE30A055619
:10233000635E905A930C1000E39A94276358405BB5
:102340009300CCFF93D22000378D00009306FDFF51
:102350003708010093FB1200B3CC4603130E0400B0
:1023600013060500B30FAC0093080400B745000046
:10237000930DF8FF63940B0483170400031C2400DF
:102380001306450093084400338B970333079C03DF
:10239000B303BB0013DFF340931E0F0113D30E01F1
:1023A000B370B301B302B70093DBF240139D0B018E
:1023B000B3E6A0012320D5006300F60903980800C6
:1023C00083974800039C280033079803039B680009
:1023D0001306860093888800B3839703330FB700F2
:1023E000935EFF4013930E0193500301B3F2B001CB
:1023F000B30B9C03338DB3009356FD401398060135
:102400009357080133FCB701330B9B033387BB00A1
:102410009353F740139F0301B3EEE201232CD6FF41
:102420003303BB009350F34093920001B36B5C0005
:10243000232E76FFE314F6F9835F0500835225000F
:10244000930C10002310F4012311540063009A4BE5
:10245000B7050100930E000093080000130F45001C
:10246000374800001383F5FFB30D9A4013FD1D009C
:1024700013060F009385040093060000630E0D06FB
:102480009386080063C42801B3862841139626006A
:10249000B387C900039B07008393270003172F000E
:1024A000031C0F00832C0400B38BE302B3008B03E7
:1024B000B30D6703B3857041338D05011356FD409D
:1024C0009317060113DB0701B3706B00338C830392
:1024D00033878D01B303070193DBF340939D0B0119
:1024E000B3E5B001FB9CBC0023209401938514004C
:1024F00013064F006308BA0EB386160163C42601A3
:10250000B3862641139D2600B387A901039C0700CB
:10251000039B270003172600831006008323040073
:10252000B30DEB02B30B1C02B30C8703338DBB411D
:10253000B3070D0113DCF74013170C01935B070180
:10254000B3FD6B00B3001B02338B1C00B30C0B01FB
:1025500013DDFC4093170D0133ECFD00FB93830169
:1025600023207400B38616011306460093851500D8
:1025700063C42601B386264113972600B38DE90074
:1025800083900D00039B2D00031D2600831B060076
:10259000032C0400B30CAB03B3877003B3031D0219
:1025A00033879741B30D070193D0FD40139D000180
:1025B00093570D01B3FC6700B30B7B03338B73019F
:1025C000B3030B0113D7F340931D0701B3E0BC0124
:1025D0007B1C1C00232084019385150013064600F4
:1025E000E31CBAF0938E1E00130E4E00B388580100
:1025F000630EDA2F13040E002310FE0123115E0078
:102600006FF09FE69390240093F734003307140093
:102610009389F4FF6388070A130610006388C706CE
:10262000638C4703035F2700835A0700832E04004F
:1026300013130F0133685301DBA50E012320B700EC
:10264000832B0400DB920B01232054001307470067
:10265000130444009384090083532700035907009F
:10266000032A0400139E0301B36C2E01DB269A019A
:102670002320D700832D04005B9C9D01232084012F
:1026800013074700130444009384F4FF035D2700FD
:102690000355070083280400131B0D01B36FAB0023
:1026A000DBA0F8012320170083270400DB99F70142
:1026B000232034019384F4FF1307470013044400DC
:1026C000638204C8035F270003560700832A0400BF
:1026D000931E0F0133E3CE005BA86A00232007019D
:1026E00083250400DB9B650083526700835347000A
:1026F00003294400139A020123207401336E7A00E7
:10270000DB2CC9012322970183264400DB9DC601EF
:10271000035CA700035D87000325840093180C0168
:102720002322B40133EBA801DB2F65012324F70139
:1027300083208400DB9960018357E700035FC700B3
:102740000326C400939A070123243401B3EEEA015F
:102750005B23D601232667000328C400DB15D801BC
:102760002326B4009384C4FF130707011304040154
:10277000E39A04F46FF00FBD7BCB2A01232068019C
:10278000FBD32A0123A07700032C4400930B4400C1
:10279000930EF5FF930D4800938A450093824700FE
:1027A0007B75EC012322A4008329480083260D00B9
:1027B0007BB9D90003AE450003270300FB3FEE00C1
:1027C00083A4470083A008007BB614007B7AEE0147
:1027D00023A24501032B4400FB23FB017B2CC900F2
:1027E0007B15FB012322A400FB19C900FB26350140
:1027F00023A2D500832544007B993501232224019F
:1028000013064D00130383009388C800638A0C0AE3
:102810007BCD83012322A8017BDE830123A2C70194
:102820001385FEFF13844B0013884D0093854A00E7
:1028300093874200630805B083240400FBF0E401A1
:1028400023201400032D0800032A06007B3B4D01C2
:1028500083A30500032C0300FBB9830183AB0700AE
:1028600083A20800FBBE5B00FBFDE30123A0B501D2
:1028700083260400FBAA36017B29DB017B9E3601FF
:102880002320C4017B17DB01FB2FEE0023A0F50101
:1028900083240400FB90E40023201400130D460061
:1028A000130383009388C800E3980CEC7BD62A01BD
:1028B0002320C8007BCA2A0123A047016FF0DFEC68
:1028C0007BD48301232288007BC8830123A20701D4
:1028D0006FF01FF5832D81000325C100938616003C
:1028E00013044400330DCD00639EDD4E0324810AA2
:1028F0008320C10A8324410A0329010A8329C109CB
:10290000032A8109832A4109032B0109832BC1086A
:10291000032C8108832C4108032D0108832DC10756
:102920001301010B6F10406E035F09001307450090
:102930002310E501835F29003309A9012311F50163
:102940006FF08FA813971A00B3064401330957019B
:1029500093FF140033874601139F2A0083AC4C0079
:10296000939A3A0093182900B3074701930506008C
:1029700093020600130E4000638E0F14832204009E
:102980007BF3C2012320640003A80600032B06008A
:10299000FB30680103250700FB33650183AB0700AB
:1029A000FBB96B017B7CC50123208701832E0400CA
:1029B000FBAD7E007BAD30017B9A7E00232044017D
:1029C0007B993001FB2F2A012320F7018322040089
:1029D0007B93220123206400B3025601B3851501C5
:1029E0003306E60163940C6A7BD8AD0123A006018F
:1029F0007BCBAD0123A067011385F4FF13044400D2
:102A00009386460013074700938747006314050C1D
:102A10006FF04F937B4D180023A0A6017B5A18003E
:102A200023A047010323440013094400930FF5FF3B
:102A30009380460093044700138847007B75C301C9
:102A40002322A40003AB460083A30E00FB397B00C6
:102A5000032C470083AB0200FB357C0103A6470033
:102A600003AD0D007B33A6017B7ACC012322470105
:102A7000032B44007B25BB00FBA369007B1CBB0030
:102A800023228401FB996900FB2B3C01232277015F
:102A900003274400FB1537012322B4003386EE01DF
:102AA000B3825201B3851D0163880C2EFB4E750065
:102AB00023A2D601FB5D750023A2B7011385FFFF9A
:102AC000130449009386400013874400930748008D
:102AD000630A058683240400FBF3C40123207400E9
:102AE00083AB0600832906007BBC3B01832E0700D5
:102AF00083AD02007BBDBE0103AA070003A9050048
:102B00007B332A01FBFFCE012320F701032B0400B6
:102B10007B28AB01FB206C00FB14AB01232094004D
:102B2000FB136C00FBAB74002320770183290400A6
:102B30007B9C790023208401B30EE601B38252010D
:102B4000B38D1501E3980CECFB55180023A0B600DB
:102B50007B46180023A0C7006FF0DFECB3067400BB
:102B6000373A0000370E0100139C3A00B385760017
:102B700093080800130DAAAA374500009300FEFF32
:102B8000031B0400831F2400B309AB03B387AF0307
:102B9000338FA9001356FF402310C400B38AA70047
:102BA00093DEFA402311D40103930600839B260091
:102BB0003307A303B382AB03B303A70013D9F340D6
:102BC00023902601338AA200135EFA402391C601A6
:102BD000039B0500839F2500B309AB03B387AF03B5
:102BE000338FA9001356FF402390C500B38AA70076
:102BF00093DEFA402391D50103170800031928003A
:102C0000039306008392260083930800330EE302A9
:102C1000039A2800B38B2203330B7602B30F7E4155
:102C2000B389AF0093D7F940139F0701935A0F015F
:102C300033FE1A00B38B4E033303230333097B4166
:102C4000330BA900935FFB4093990F0193D70901C0
:102C500033FF170033064603B3025702B38E7E02DA
:102C600033075300330AA700935AFA40939B0A0193
:102C7000336E7E012320C105B303D6013383A30045
:102C80001359F340131B0901B3696F012322310566
:102C90007B1F3E0193020F00935F0F012324E10588
:102CA000FB273E011396070113570641330A97038A
:102CB00093DA0741835B0400139E0201935E0E4189
:102CC00093D31E4033837B40139B0F0123906600F8
:102CD00003592400B3879A03B30FAA0013D6FF4009
:102CE0001317060193590B41135A070193D2194048
:102CF000B37A1A00B30B5940032E0400B38EA70019
:102D000093D3FE401393030133E96A003308B801FB
:102D1000B388880123917601135B030193090900AD
:102D2000232E21037B1FEE0183D2060093170B0194
:102D300013D607012320E401B30F56002390F501B9
:102D400003DA260013970901935A0701B30B5A417E
:102D50002391750103DE060083DE26009384F4FFD1
:102D6000B303CE403383DA012390760023916600CB
:102D7000130444009385450093864600E39204E0E3
:102D80006FE05FDC7BC95B0023202801FBDF5B0079
:102D900023A0F7016FF08FD67B54750023A2860025
:102DA000FB46750023A2D7006FF05FD1B3809A0273
:102DB000378800009308F8FF370B01009392240036
:102DC000B30BAC00130D0000930600002322110189
:102DD000B74C0000130EFBFF930F4500938D0400CA
:102DE00013860A00E35C40AFB384AB40832A410002
:102DF0009383C4FF93D7230013FF170033C34A0301
:102E0000930505001308040063140F04831E0400D7
:102E1000031724009305450033085400338C6E02D9
:102E2000B3086702330B9C019354FB409393040156
:102E300093D7030133FFC701B38A980193DEFA40A9
:102E400013970E01336CEF0023208501638A750709
:102E5000031B0800B3085800831428008397080058
:102E6000039F2800B30A6B023388580093858500BE
:102E7000B3836402B38E9A0113D7FE40337CC7013B
:102E8000B3886702338B93019354FB4093970401FB
:102E9000B36AFC0023AC55FF330F6F02B383980174
:102EA00093DEF34033FCCE0133079F019358F74084
:102EB000139B0801B3646C0123AE95FEE39A75F988
:102EC000835A0500835425009305100023105401F4
:102ED0002311940013030400E302BAA0930E0D0023
:102EE000130F0400930300002324B1012326A10043
:102EF000130B100033056A41937D150093880F0072
:102F000093050000638E0D0693850E0063C42E01A9
:102F1000B3852E4113982500B38709010397270035
:102F2000039C0F000395070083982F003308EC02E1
:102F3000330BAC02B38DE80233051503B307BB4175
:102F4000338C97011357FC40131B0701935D0B0152
:102F5000B3F7CD01832D0300B308A800338898018F
:102F6000135CF84013170C0133EBE700FB976D017E
:102F7000130B20002320F30093884F0063086A0F8F
:102F800023207100B385D50163C42501B385254194
:102F90009393250033887900839708000315080070
:102FA00083932800031C28003387A702B38D830373
:102FB00033888703B307B741338C97011357FC401D
:102FC000B37DC70133057502B303A80033889301AD
:102FD0009357F840139C070133E78D01832D0300BD
:102FE0007B95ED002320A300B385D501938848008D
:102FF000130B1B0063C42501B38525419393250062
:10300000338879000397080003150800839328008C
:10301000031C2800B307A702B38D8303330887037B
:103020003387B741330C97019357FC40939D0701B9
:1030300013D70D01337CC701032703003305750245
:10304000B303A800338893019357F840939D070179
:10305000336CBC017B1587012320A300130B1B00DD
:1030600093884800E3106AF38323010093831300DD
:10307000330F5F00B38E1E00E30E7A8413030F003C
:1030800023105F0123119F006FF09FE6FBC0AD018D
:1030900023A016007BD5AD0123A0A7006FF0DF951C
:1030A0001704010003244420032A040013067001BE
:1030B000930510008326CA0017F500001305852A22
:1030C000EF10504B032904009305100013069001E4
:1030D0008326C90017F500001305452AEF10904913
:1030E000832904000324810A8320C10A83A5C9001F
:1030F0008324410A0329010A8329C109032A81097A
:10310000832A4109032B0109832BC108032C810861
:10311000832C4108032D0108832DC1071305A0004E
:103120001301010B6F1010261300000013000000A4
:10313000130101FE232C810093073500232E11007B
:103140001304050013952700638006066302060436
:1031500083A0060063EEA00223A0A60013050600CC
:103160008320C101232085000324810197020100EF
:1031700083A2421317030100032343132322B50044
:1031800023265500232465001301010267800000F7
:1031900023A0A600130500008320C10103248101A0
:1031A00013010102678000002326B100EF001065C3
:1031B0008325C100E31605FA130500006FF0DFFD5B
:1031C000130101FE232C8100232E1100130405009E
:1031D0006382C5020327840093070400032481014E
:1031E0008320C1011305060013061000130101021C
:1031F0006FE00FCE232A91009384050063880506B3
:10320000032505002328210123263101131525005C
:1032100013890600EF00905E930905006308050A14
:103220000327840093070400930609009385040094
:1032300013061000EFE0CFC90326040093850900B0
:103240001385040013162600EF20C07E032481019D
:1032500083244101032901018320C1011385090051
:103260008329C100130101026F00105A9704010065
:1032700083A4840383A00400130670019305100047
:1032800083A6C00017F5000013050511EF10902E5E
:1032900083A30400930510001306100183A6C30046
:1032A00017F500001305C510EF10D02C83A50400FE
:1032B000832441011305A00083A5C50003248101D7
:1032C0008320C101130101026F10D00B170401000C
:1032D000032484FD83270400130670019305100066
:1032E00083A6C70017F500001305C50DEF10902841
:1032F00083220400930510001306800183A6C200F8
:1033000017F500001305850DEF10D02603230400E8
:1033100083244101032901018325C3008329C100BE
:103320001305A0006FF09FF91300000013000000C8
:10333000130101FF2324810023261100130405003B
:103340006384C502032784009307040003248100DB
:103350008320C10013050600930610001306100019
:10336000130101016FE0CFB6232291009384050081
:10337000638205060325050023202101131525007E
:10338000EF00D047130905006306050A03278400F0
:1033900093070400938504009306100013061000A1
:1033A000EFE00FB303260400930509001385040022
:1033B00013162600EF2000680324810083244100B7
:1033C0008320C10013050900032901001301010135
:1033D0006F0090439704010083A404ED83A00400D0
:1033E000130670019305100083A6C00017F50000B6
:1033F000130585FAEF10101883A30400930510003D
:103400001306100183A6C30017F50000130545FA43
:10341000EF10501683A50400832441001305A0007B
:1034200083A5C500032481008320C100130101018D
:103430006F10407517040100032404E7832704007C
:10344000130670019305100083A6C70017F500004E
:10345000130545F7EF1010128322040093051000A6
:103460001306800183A6C20017F50000130505F7B7
:10347000EF105010032304008324410003290100AE
:103480008325C3001305A0006FF0DFF913000000CF
:10349000678000001300000013000000130000000C
:1034A000937715009306300013075000130810009F
:1034B000639407189307050013D6F701B302F600CB
:1034C00093D7124013D3F70193F51700B303F3001A
:1034D0006394050893D7134093D8F70193FE170020
:1034E000338EF800639A0E0693571E4013DFF701E0
:1034F00013F61700B30FFF006310060693D71F40A3
:1035000093D2F70193F317003383F2006396030419
:103510009357134093D5F70113FE1700B388F500B6
:10352000631C0E0293D7184093DEF70193FF170038
:10353000338FFE0063920F0293571F4013D6F7019B
:1035400013F31700B302F6006318030093D7124079
:1035500093F31700E38203F6B3E5D70263920506FF
:10356000B3C7D702B3E8D702639C0804B3C7D70236
:1035700033EED70263160E04B3C7D702B3EED702F9
:1035800063900E04B3C7D70233EFD702631A0F025A
:10359000B3C7D702B3EFD70263940F02B3C7D70202
:1035A00033E6D702631E0600B3C7D702B3E2D702E1
:1035B00063980200B3C7D70233E3D702E30203FAEA
:1035C000B3E3E70263920306B3C7E702B3E5E7029A
:1035D000639C0504B3C7E702B3E8E70263960804F7
:1035E000B3C7E70233EEE70263100E04B3C7E70286
:1035F000B3EEE702639A0E02B3C7E70233EFE702C6
:1036000063140F02B3C7E702B3EFE702639E0F0034
:10361000B3C7E70233E6E70263180600B3C7E70261
:10362000B3E2E702E38202FA635CF80013051500D7
:1036300093771500E38007E8930705006FF0DFF14B
:103640006780000000000000000000000000000093
:103650001308000063C6051263DC0600B337C00020
:10366000B306D0401348F8FFB386F6403306C04097
:10367000930806001307050013830500639A060EDE
:1036800063F4C516B70701006364F622B7070001AB
:10369000930680016374F60093060001B72701804A
:1036A000335ED6009387473FB387C70183C70700C0
:1036B000130E0002B387D700B306FE40630CFE0072
:1036C0003393D500B357F500B318D60033E3670042
:1036D0003317D50013D608013355C302939608015A
:1036E00093D60601935707013373C302B385A6022D
:1036F00013130301B3E7670063FCB700B387F80057
:103700001303F5FF63E4170163E6B74013050300F5
:10371000B387B740B3D5C702131707011357070183
:10372000B3F7C702B386B602939707013367F70072
:10373000637ED7003387E8009387F5FF6366170140
:103740009385E5FF6364D700938507001315050192
:103750003365B50093050000630A0800B337A00085
:10376000B305B040B385F5403305A0406780000045
:1037700063F4D50293050000130500006FF0DFFD30
:10378000B337A000B305B040B385F5403305A04082
:103790001308F0FF6FF05FECB707010063E8F61E57
:1037A000B70700019308800163F4F6009308000155
:1037B000B727018033D716019387473FB387E700C8
:1037C00003C707009307000233071701B388E740D8
:1037D0006396E71C63E4B6303335C5001335150036
:1037E000930500006FF05FF7630C060CB70701004C
:1037F000637CF62C133306101333130013133300BA
:10380000B3566600B72701809387473FB387D70039
:1038100083C6070093070002B3866600B38ED740C5
:103820006394D70CB386C5401353060113160601E3
:10383000135606019305100033D56602935707010E
:10384000B3F66602330EC50293960601B3E7D700BE
:1038500063FCC701B387F8009306F5FF63E4170123
:1038600063E4C72B13850600B387C741B3D667024D
:103870001317070113570701B3F767023386C60210
:10388000939707013367F700637EC7003387E8002B
:103890009387F6FF636617019386E6FF6364C700AC
:1038A00093860700131505013365D5006FF0DFEA35
:1038B0009336061093B61600939636006FF01FDE0F
:1038C000B7270180930600009387473FB387D7004F
:1038D00083C607001303000093070002B386660047
:1038E000B38ED740E380D7F4B318D60133DED500CA
:1038F00013D30801B3576E0213960801135606013D
:10390000B356D5003317D501B395D501B3E6B6004C
:1039100093D50601337E6E023305F602131E0E01A7
:10392000B3E5C50163FEA500B385B800138EF7FFAC
:1039300063E4151D63F2A51C9387E7FFB3851501AA
:10394000B385A54033D565029396060193D606014B
:10395000B3F56502330EA60293950501B3E6B600F2
:1039600063FEC601B386D8009305F5FF63EE161714
:1039700063FCC6171305E5FFB3861601939507018F
:10398000B386C641B3E5A5006FF01FEB93B80610F0
:1039900093B81800939838006FF09FE1B35EE6008B
:1039A000B3961601B3EEDE0033D3E50013DF0E014C
:1039B000B357E303139E0E01B3951501135E0E0179
:1039C0003357E5003367B7009356070133161601E6
:1039D0003373E303B305FE0213130301B3E666007A
:1039E00063FEB600B386DE001383F7FF63EAD611E9
:1039F00063F8B6109387E7FFB386D601B386B64067
:103A0000B3D5E6031317070113570701B3F6E6030F
:103A10003303BE02939606013367D700637E6700C7
:103A20003387EE009386F5FF6364D70D6372670CEE
:103A30009385E5FF3307D70193970701370F0100FF
:103A4000B3E7B7009306FFFFB3F5D70013DE070116
:103A5000B376D60013560601B38ED50233076740FE
:103A6000B306DE0213D30E01B385C502B385D500BC
:103A7000B305B300330ECE0263F4D500330EEE016E
:103A800093D60501B386C601636AD7026308D700DF
:103A900013850700930500006FF01FCCB7060100E7
:103AA0009386F6FF33F7D50013170701B3FEDE0048
:103AB000331515013307D701E37CE5FC1385F7FFC8
:103AC000930500006FF05FC9B7070001637AF60441
:103AD00093560601130300016FF0DFD29305000037
:103AE000130510006FF05FC7138505006FF01FE925
:103AF000938506006FF05FF493070E006FF05FE4AC
:103B0000930703006FF09FEF1305E5FFB3871701DD
:103B10006FF09FD51305E5FFB38717016FF05FBF07
:103B200093568601130380016FF0DFCD1308060062
:103B300093080500138705006390060E63FEC51207
:103B4000B7070100636EF61EB707000193068001F8
:103B50006374F60093060001B72701803353D60043
:103B60009387473FB387670083C7070013030002AB
:103B7000B387D700B306F340630CF3003397D50047
:103B8000B357F5003318D60033E7E700B318D50074
:103B9000135608013355C7029316080193D6060140
:103BA00093D708013377C702B385A602131707011D
:103BB000B3E7E70063FCB700B307F8001307F5FFAE
:103BC00063E4070163E0B73E13050700B387B7401E
:103BD00033D7C7029398080193D80801B3F7C702F7
:103BE000B386E60293970701B3E8F80063FED800B6
:103BF000B30818019307F7FF63E608011307E7FF0F
:103C000063E4D80013870700131505013365E50049
:103C1000930500006780000063F8D500930500005D
:103C20001305000067800000B707010063E8F61E77
:103C3000B70700011308800163F4F60013080001C0
:103C4000B727018033D706019387473FB387E70043
:103C500003C7070093070002330707013388E740D3
:103C60006396E71C63E4B6303335C50013351500A1
:103C70009305000067800000630C060CB707010085
:103C8000637CF62C13370610133717001317370011
:103C9000B356E600B72701809387473FB387D70025
:103CA00083C7070093060002B387E700B38EF64090
:103CB0006394F60CB387C5409356060113160601AC
:103CC000135606019305100033D5D70213D7080108
:103CD000B3F7D7023303C50293970701B367F70021
:103CE00063FC6700B307F8001307F5FF63E40701FF
:103CF00063E4672A13050700B387674033D7D70209
:103D00009398080193D80801B3F7D7023306C70286
:103D100093970701B3E8F80063FEC800B3081801E1
:103D20009307F7FF63E608011307E7FF63E4C800A2
:103D300013870700131505013365E5006780000050
:103D40009336061093B61600939636006FF0DFE0B8
:103D5000B7270180930600009387473FB387D700BA
:103D600083C707001307000093060002B387E7002C
:103D7000B38EF640E380F6F43318D60133D3F50062
:103D800093560801335ED30213160801B395D5018B
:103D900013560601B357F500B3E7B70013D7070171
:103DA000B318D5013373D302B305C603131303014C
:103DB00033676700637EB7003307E8001305FEFF33
:103DC0006364071D6372B71C130EEEFF3307070110
:103DD0003307B7403355D7029397070193D70701AD
:103DE0003377D7023303A60213170701B3E7E700BF
:103DF00063FE6700B307F8001307F5FF63EE0717CC
:103E000063FC67161305E5FFB387070193150E01E1
:103E1000B3876740B3E5A5006FF01FEB13B806103A
:103E200013381800131838006FF09FE1335EE60076
:103E3000B3960601336EDE00B3D8E500935E0E0143
:103E4000B3D7D80313130E01B39505011353030120
:103E50003357E5003367B700935607013316060161
:103E6000B3F8D803B305F30293980801B3E616013B
:103E700063FEB600B306DE009388F7FF63EAC6115F
:103E800063F8B6109387E7FFB386C601B386B640E2
:103E9000B3D5D6031317070113570701B3F6D6039B
:103EA000B308B302939606013367D700637E170108
:103EB0003307EE009386F5FF6364C70D6372170D39
:103EC0009385E5FF3307C70193970701B70E0100FC
:103ED000B3E7B7009386FEFFB3F5D70013D307010E
:103EE000B376D60013560601338ED5023307174139
:103EF000B306D30293580E01B385C502B385D5002E
:103F0000B385B8003303C30263F4D5003303D30190
:103F100093D60501B3866600636AD7026308D700AB
:103F2000138507009305000067800000B7060100B5
:103F30009386F6FF33F7D50013170701337EDE00B3
:103F4000331505013307C701E37CE5FC1385F7FF53
:103F50009305000067800000B7070001637AF6044C
:103F600093560601130700016FF0DFD2930500009E
:103F70001305100067800000130507006FF01FE9AC
:103F8000938506006FF05FF4130E05006FF05FE499
:103F9000938708006FF09FEF1305E5FFB3870701D4
:103FA0006FF09FD51305E5FFB38707016FF01FC2C0
:103FB00093568601130780016FF0DFCD930505004E
:103FC0009306000013060000130500006F109049CF
:103FD000130101FF93050000232481002326110013
:103FE00013040500EF10905183A781F56384070047
:103FF000E780070013050400EFC08FEA9305050072
:1040000003A541F46F0000019305050003A541F4E9
:104010006F109075130101FD232E3101232611022B
:104020002324810223229102232021039387B500B8
:1040300013076001930905006360F7089307000107
:1040400063E0B720EF00007893078001930520001C
:104050009304000113898182B307F90003A4470088
:10406000138787FF6300E434832744008326C4005A
:104070000326840093F7C7FFB307F40003A74700A4
:104080002326D60023A4C600136717001385090052
:1040900023A2E700EF004073130584008320C102D0
:1040A0000324810283244102032901028329C101DF
:1040B000130101036780000093F487FF63C20718B0
:1040C00063E0B418EF0000709307701F63F6973E2B
:1040D00093D79400638E071613074000636CF73282
:1040E00093D764009385970313888703139635004D
:1040F000138981823306C90003244600130686FF14
:10410000630886021305F0006F0040018326C40097
:1041100063560728630ED6001384060083274400E5
:1041200093F7C7FF33879740E352E5FE93050800F6
:104130000324090193088900630E14258327440092
:104140009306F00093F7C7FF3387974063CCE636BA
:10415000232A190123281901635007341307F01F7C
:10416000032549006368F72413F787FF13078700C7
:104170003307E9008326070013D657009307100082
:10418000B397C7003365F500930787FF2326F40034
:104190002324D4002322A9002320870023A68600FD
:1041A00093D72540130610003316F600636AC50A3C
:1041B000B377A600639407021316160093F5C5FFA4
:1041C000B377A60093854500639A0700131616007F
:1041D000B377A60093854500E38A07FE1308F00035
:1041E0001393350033036900130503008327C500CB
:1041F000138E05006302F52403A74700138407000C
:1042000083A7C7001377C7FFB30697406342D8243C
:10421000E3C206FE3307E40083264700032684003A
:104220001385090093E616002322D7002326F60003
:1042300023A4C700EF004059130584006FF01FE668
:104240009307C00023A0F900130500006FF01FE5DD
:1042500013060020930500041308F0036FF05FE9D4
:1042600003248900232861018327440013FBC7FF2F
:1042700063689B0033079B409307F00063CAE70C19
:1042800023229101232A510103A7C1F383AA41F5F7
:10429000232C4101232671019307F0FF330A6401A7
:1042A000B38A54016306F73CB71700009387F70001
:1042B000B38AFA00B7F7FFFFB3FAFA0093850A0052
:1042C00013850900EF10804D9307F0FF930B050055
:1042D000630AF54423248101636E4523138C81F620
:1042E00083250C00B385BA002320BC00138705008A
:1042F0006316AA2A931745016392072A832B890024
:10430000B3075B0193E7170023A2FB0083A601F527
:1043100063F4B60023A8B1F483A6C1F463F4B60035
:1043200023A6B1F4032C810013840B0093F7C7FF7D
:104330003387974063EA97389307F00063D6E738EE
:10434000032A8101832A4101832BC100832C410070
:1043500093E714002322F400B3049400232499006B
:10436000136717001385090023A2E400EF00C0457E
:104370008320C1021305840003248102032B010161
:1043800083244102032901028329C101130101038E
:1043900067800000032549006FF09FE0032684003A
:1043A0006FF09FCD03A4C70093852500E38287D8D3
:1043B0006FF09FCB13D797009306400063F2E6148B
:1043C0009306400163E4E6321306C7059306B7057A
:1043D000131636003306C90003270600130686FFAE
:1043E0006318E6006F004029032787006308E60092
:1043F0008326470093F6C6FFE3E8D7FE0326C700EF
:104400002326C4002324E4002324860023268700D7
:104410006FF01FD9130740016378F71013074005A9
:104420006364F72E93D7C4009385F7061388E706D5
:10443000139635006FF0DFCB130E1E0093773E000E
:1044400013058500638007108327C5006FF09FDA8E
:104450000326840093E514002322B4002326F600EB
:1044600023A4C700B3049400232A990023289900A9
:1044700093E7160023A6140123A4140123A2F40039
:104480003307E400138509002320D700EF00C03371
:10449000130584006FF09FC0B307F40003A7470023
:1044A000138509001367170023A2E700EF00C0314E
:1044B000130584006FF09FBE93D53400938784006A
:1044C0006FF05FB993E614002322D400B304940084
:1044D000232A9900232899009366170023A6140124
:1044E00023A4140123A2D400B307F4001385090008
:1044F00023A0E700EF00402D130584006FF01FBAE2
:1045000013D7670013069703930687031316360025
:104510006FF05FEC630C240703248900032C8100F7
:10452000832744006FF09FE09385C7051388B70584
:10453000139635006FF0DFBB832783009385F5FF6B
:10454000639E672693F73500130383FFE39607FE08
:10455000032749009347F6FFB3F7E7002322F9004A
:1045600013161600E3EEC7CEE30C06CE3377F60043
:10457000631A0700131616003377F600130E4E0069
:10458000E30A07FE93050E006FF09FC5138C81F6BA
:1045900003270C003387EA002320EC0083A6C1F335
:1045A0009307F0FF6386F618B3874B41B387E700A4
:1045B0002320FC0093FC7B00638C0C0CB38B9B4191
:1045C000B717000093878700938B8B00B3859741C3
:1045D000B38A5B01B38555419395450113DA4501D3
:1045E00093050A0013850900EF10401B9307F0FFA5
:1045F0006300F51833057541B30A450103270C0024
:104600002324790193E71A00B305EA002320BC00B4
:1046100023A2FB00E30C24CF9306F00063F0660BAB
:104620000327440093074BFF93F787FF1377170087
:104630003367F7002322E400130650003307F40029
:104640002322C7002324C70063E6F60083A74B009C
:104650006FF0DFCB9305840013850900EF10D010B5
:10466000832B890083250C0083A74B006FF01FCAA2
:10467000938A0A016FF09FC493D6264093071000D7
:10468000B397D7003365F5002322A9006FF05FD7F9
:10469000B3855B01B305B0409395450113DA45013D
:1046A00093050A0013850900EF10400F9307F0FFF0
:1046B000E312F5F4130A00006FF05FF4032C81009D
:1046C0009307100023A2FB0013850900EF00C00F21
:1046D00013050000032A8101832A4101032B0101F4
:1046E000832BC100832C41006FF05F9B9306400534
:1046F00063E4E60413D7C7001306F7069306E7063C
:10470000131636006FF01FCD130740156364F704CE
:1047100093D7F4009385870713887707139635009E
:104720006FF01F9D03248900832744006FF01FC092
:1047300023AE71F36FF01FE89306401563E4E604BF
:1047400013D7F7001306870793067707131636006B
:104750006FF05FC8130740556364F70493D72401D3
:104760009385D7071388C707139635006FF05F98B6
:10477000938C8CFFB38A9A01B38A7A41130A0000A2
:104780006FF0DFE79306405563E4E60213D7270195
:104790001306D7079306C707131636006FF09FC39B
:1047A0001306803F9305F0071308E0076FF05F944E
:1047B0001306803F9306E0076FF0DFC183274900AF
:1047C0006FF01FDA678000006780000013050000AB
:1047D00067800000B7950080138601C393858534F8
:1047E000138501C46F000041130101FF83254500BB
:1047F000232481002322910023261100138401F930
:104800009304050063848500EF40103483A5840081
:10481000930784066386F50013850400EF40D032C9
:1048200083A5C4001304040D638E85000324810056
:104830008320C1001385040083244100130101017A
:104840006F4090308320C100032481008324410005
:10485000130101016780000013050000678000005C
:10486000130101FE232C8100B7470080138401F956
:104870009387477D232E1100232A910023282101AD
:10488000232631012324410123ACF1F413068000D7
:1048900093074000930500001305C4052326F40088
:1048A00023200400232204002324040023220406DE
:1048B00023280400232A0400232C0400EF10C0093D
:1048C000B7070100375A0080B75900803759008078
:1048D000B7540080130A0A0E938949141309C91C9E
:1048E0009384442493879700130680009305000067
:1048F0001305440C232044032322340323242403DC
:1049000023269402232AF406232E8400232404065B
:1049100023260406232804062326040C232C04063D
:10492000232E040623200408EF100003B70702001B
:1049300013078406938727011305C412130680000A
:10494000930500002324440923263409232824093D
:10495000232A9408232EF40C2322E4082328040C91
:10496000232A040C232C040C232A04122320040ED3
:104970002322040E2324040EEF00107E9307040D5F
:104980002328440F232A340F232C240F232E940E84
:104990008320C1012326F40E0324810183244101D5
:1049A000032901018329C100032A810013010102A7
:1049B0006780000083A781F5130101FE23263101E2
:1049C000232E1100232C8100232A9100232821016A
:1049D000930905006386070E138901C39304F0FF52
:1049E00083274900032489009387F7FF63D80700D2
:1049F0006F00000813048406638C97060317C40035
:104A00009387F7FFE31807FEB707FFFF93871700A9
:104A10002326F40023220406232004002324040078
:104A20002322040023280400232A0400232C04004A
:104A300013068000930500001305C405EF00D07134
:104A400023280402232A0402232204042324040426
:104A50008320C10113050400032481018324410143
:104A6000032901018329C1001301010267800000AD
:104A70000324090063060400130904006FF05FF6C5
:104A80009305C01A13850900EFF0CFD81304050071
:104A9000630C05021305C5009307400023200400A2
:104AA0002322F4002324A4001306001A9305000017
:104AB000EF00906A23208900130904006FF05FF271
:104AC000EFF01FDA6FF05FF1232009009307C000B9
:104AD00023A0F9006FF0DFF7832745036384070005
:104AE0006780000003A781F5B74700809387877E22
:104AF000232AF502E31607FE6FF09FD667800000B9
:104B000067800000B7450080138601C39385C57C8C
:104B1000130500006F00000EB7550080138601C317
:104B200093858585130500006F00C00C130101FEFD
:104B3000232C8100232E11001304050063060500B9
:104B400083274503638C07001305040003248101B8
:104B50008320C101130101026F0080372326C100A9
:104B60002324B100EFF05FF7130504000324810153
:104B70000326C100832581008320C10113010102A6
:104B80006F000035130101FE232A910083A441F434
:104B9000232C8100232E1100130405001386050029
:104BA0006386040083A7440363800702930504001F
:104BB000032481018320C101138504008324410162
:104BC000130101026F00C030138504002326B100D9
:104BD000EFF09FF093050400032481010326C10038
:104BE0008320C101138504008324410113010102C4
:104BF0006F00002E130101FD23202103232E31011C
:104C0000232C4101232A510123286101232671010C
:104C1000232611022324810223229102130B050073
:104C2000938B0500930A0600130A000093091000F5
:104C30001309F0FF83A44A0003A48A009384F4FFBD
:104C400063C804028357C40063FEF9008317E400BD
:104C50009305040013050B0063862701E7800B0012
:104C6000336AAA009384F4FF13048406E39C24FDB2
:104C700083AA0A00E3900AFC8320C1020324810274
:104C800083244102032901028329C101832A4101AE
:104C9000032B0101832BC10013050A00032A8101A4
:104CA0001301010367800000130101FB232021058C
:104CB0003389C6029307C1012322F1029307100032
:104CC0002324810423229104232E3103232EB100B7
:104CD000232611042324F102232021032326210368
:104CE000930906001384060093040500930507004A
:104CF0006306050083274503638607068397C5007F
:104D0000139727016342070203A74506B7E6FFFF93
:104D10009386F6FF37260000B3E7C7003377D70046
:104D20002396F50023A2E50613064102138504002D
:104D3000EF405025630805008327C1023309F9407D
:104D4000335439038320C104130504000324810470
:104D500083244104032901048329C10313010105AC
:104D6000678000002326E100EFF01FD78325C100F4
:104D70006FF0DFF8130101FB23229104B384C50215
:104D8000232E310383A941F49307C1012322F102A9
:104D900093071000232481042320210523261104D6
:104DA000232EA1002324F102232091022326910225
:104DB0001389050013040600938506006386090025
:104DC00083A74903638607068397C50013972701C6
:104DD0006342070203A74506B7E6FFFF9386F6FF87
:104DE00037260000B3E7C7003377D7002396F500D6
:104DF00023A2E5061306410213850900EF4090182F
:104E0000630805008327C102B384F44033D424032C
:104E10008320C10413050400032481048324410476
:104E2000032901048329C1031301010567800000E0
:104E3000138509002326D100EFF01FCA8325C10086
:104E40006FF09FF8130101FC2324C1022326D10235
:104E50002328E102232AF102232C0103232E11032C
:104E6000138605008325850093068102232E1100F9
:104E70002326D100EF10803F8320C10113010104DC
:104E80006780000003A341F4130101FC2324C10245
:104E90002326D1022322B1022328E102232AF10290
:104EA000232C0103232E1103832583009306410243
:104EB0001306050013050300232E11002326D1003D
:104EC000EF10C03A8320C101130101046780000084
:104ED000130101FE232C8100232E11001304050071
:104EE0006306050083274503638007068327860042
:104EF0009387F7FF2324F60063DC0700032786016E
:104F000063CAE70293F7F50F1307A0006384E70273
:104F10008327060013F5F50F138717002320E600FB
:104F20002380B7008320C101032481011301010202
:104F30006780000013050400032481018320C10160
:104F4000130101026F0080302326C1002324B10029
:104F5000EFF09FB80326C100832581006FF01FF991
:104F6000130101FE232A210103A941F4232C9100FE
:104F7000232E1100930405006306090083274903CB
:104F80006388070683A785009387F7FF23A4F500AE
:104F900063DC070003A7850163CCE70293F7F40FF6
:104FA0001307A0006386E70283A7050013F5F40F3B
:104FB0001387170023A0E500238097008320C101F9
:104FC000832481010329410113010102678000004C
:104FD0008320C10113860500130509009385040091
:104FE0000329410183248101130101026F0000267E
:104FF000130509002326B100EFF01FAE8325C10081
:105000006FF05FF8130101FC232C810213040500EB
:1050100013850500232A9102232E11029384050093
:10502000EF00903BB7170180938747AC2324F10230
:10503000930710002326F10203274403930701027C
:1050400093061500232AF1009307200023209102E4
:105050002322A102232ED100232CF10083258400DA
:10506000630007068397C500139727016342070271
:1050700003A74506B7E6FFFF9386F6FF3726000035
:10508000B3E7C7003377D7002396F50023A2E506E0
:105090001306410113050400EF40C06E8320C103D5
:1050A00003248103133515003305A0401375B500A3
:1050B000832441031305F5FF1301010467800000F9
:1050C000130504002326B100EFF01FA18325C100C2
:1050D0006FF05FF99305050003A541F46FF09FF2AF
:1050E000130101FF23248100138405008395E5004B
:1050F00023261100EF0000646340050283270405A6
:105100008320C100B387A7002328F404032481006F
:1051100013010101678000008357C40037F7FFFFC8
:105120001307F7FFB3F7E7008320C1002316F4004D
:1051300003248100130101016780000013050000B2
:10514000678000008397C500130101FE232C8100B6
:10515000232A91002328210123263101232E110027
:1051600013F70710138405009304050013090600C4
:10517000938906006310070437F7FFFF1307F7FF53
:10518000B3F7E7008315E4002316F400032481013C
:105190008320C10193860900130609008329C100F9
:1051A0000329010113850400832441011301010235
:1051B0006F0080648395E5009306200013060000CD
:1051C000EF00C0508317C4006FF01FFB130101FFF5
:1051D00023248100138405008395E5002326110014
:1051E000EF00C04E9307F0FF6308F5028357C40039
:1051F000371700008320C100B3E7E700939707014A
:1052000093D707412328A4042316F4000324810024
:1052100013010101678000008357C40037F7FFFFC7
:105220001307F7FFB3F7E7009397070193D70741F9
:105230008320C1002316F40003248100130101011F
:10524000678000008395E5006F004036130101FE82
:10525000232C8100232A910023282101232E1100D1
:105260001309050093840500130406006306050076
:105270008327450363800716832784010317C4002F
:105280002324F400937787006380070883270401B1
:10529000638C0706232631019316270193F9F40F37
:1052A00093F4F40F63D8060803270400832644010F
:1052B000B307F74063D8D70A832684001306170084
:1052C0002320C4009386F6FF2324D4002300370153
:1052D00003274401938717006302F70C8357C40028
:1052E00093F71700639A070C8329C1008320C1013B
:1052F0000324810103290101138504008324410152
:1053000013010102678000009305040013050900E2
:10531000EF00000E631E05080317C40023263101A9
:10532000832704019316270193F9F40F93F4F40FE4
:10533000E3CC06F68326440637E6FFFFB7250000D8
:105340003367B7001306F6FFB3F6C6002316E40072
:10535000032704002322D40683264401B307F74021
:10536000E3CCD7F49305040013050900EF40C033E4
:10537000631E0502032704008326840093071000A0
:10538000130617009386F6FF2320C4002324D400BD
:105390002300370103274401E312F7F493050400C7
:1053A00013050900EF404030E30005F48329C100F4
:1053B0009304F0FF6FF09FF39307A000E396F4F2DD
:1053C0009305040013050900EF40002EE30E05F0DD
:1053D0006FF0DFFDEFF04FF06FF01FEA930705006D
:1053E00003A541F413860500938507006FF01FE6BF
:1053F00083A741F4130101FF23248100232291009C
:10540000232611009304050013840500638607001A
:1054100003A74703630C070E8317C40013F7870025
:10542000630A0706032704016306070893F61700BB
:105430006388060283264401232404001305000028
:10544000B306D040232CD400630A07028320C10096
:1054500003248100832441001301010167800000BF
:1054600093F6270013060000639406000326440108
:105470002324C40013050000E31A07FC13F70708F0
:10548000E30607FC93E707042316F4001305F0FF77
:105490006FF0DFFB13F707016300070813F74700FE
:1054A000631C07020327040193E787002316F40017
:1054B000E31E07F693F6072813060020E388C6F6D6
:1054C0009305040013850400EF40C07C8317C400DB
:1054D000032704016FF09FF583250403638E050005
:1054E000130704046388E50013850400EF00D02748
:1054F0008317C400232804020327040193F7B7FD90
:10550000232204002320E4006FF01FFA1385070014
:10551000EFF08FDC6FF05FF01307900023A0E40042
:1055200093E707042316F4001305F0FF6FF01FF252
:105530009307300063FEC702B3E7A50093F7370077
:1055400063940702930630006F0040011306C6FF04
:10555000130545009385450063FCC600032705003D
:1055600083A70500E304F7FE9306F6FF6F00C00073
:105570009306F6FF6308060293861600B306D5006D
:105580006F0080006380A6028347050003C7050003
:105590001305150093851500E386E7FE3385E74084
:1055A000678000001305000067800000130101FF01
:1055B0002324810023229100130405001385050094
:1055C0002326110023AE01F4EFB08F8B9307F0FF79
:1055D000630CF5008320C100032481008324410073
:1055E000130101016780000083A7C1F5E38407FE72
:1055F0008320C1002320F400032481008324410080
:10560000130101016780000083A741F4638EA70A9C
:1056100083254504130101FE232A9100232E110046
:1056200093040500638C05042328210123263101FE
:10563000232C81001309000093090008B38725017A
:1056400003A40700630E0400930504000324040070
:1056500013850400EF005011E31804FE83A54404F1
:1056600013094900E31C39FD13850400EF00D00F36
:1056700003248101032901018329C10083A5840337
:105680006386050013850400EF00100E83A5C40493
:105690006386050013850400EF00100D83A7440303
:1056A000638C07008320C10113850400832441011A
:1056B00013010102678007008320C1018324410197
:1056C000130101026780000067800000130101FFE1
:1056D00013870500232481002322910093050600EF
:1056E0001304050013860600130507002326110086
:1056F00023AE01F4EFB0CF869307F0FF630CF50003
:105700008320C1000324810083244100130101018F
:105710006780000083A7C1F5E38407FE8320C100F2
:105720002320F4000324810083244100130101019C
:1057300067800000130101FF138705002324810007
:10574000232291009305060013040500138606002A
:10575000130507002326110023AE01F4EFB04F8498
:105760009307F0FF630CF5008320C1000324810040
:1057700083244100130101016780000083A7C1F564
:10578000E38407FE8320C1002320F400032481006A
:10579000832441001301010167800000130101FF10
:1057A00023248100232291001304050013850500A2
:1057B0002326110023AE01F4EFB08F8E9307F0FF84
:1057C000630CF5008320C100032481008324410081
:1057D000130101016780000083A7C1F5E38407FE80
:1057E0008320C1002320F40003248100832441008E
:1057F0001301010167800000130101FF13870500F9
:105800002324810023229100930506001304050040
:1058100013860600130507002326110023AE01F4AA
:10582000EFA01FFF9307F0FF630CF5008320C1007A
:1058300003248100832441001301010167800000DB
:1058400083A7C1F5E38407FE8320C1002320F40071
:1058500003248100832441001301010167800000BB
:10586000130101FF23248100B73701803734018001
:1058700023202101938787BC130784BC23261100B2
:10588000232291003389E7406382E70213592940BC
:10589000130484BC93040000832704009384140041
:1058A00013044400E7800700E3E824FF3734018055
:1058B000B7370180938787BC130784BC3389E740DF
:1058C000135929406380E702130484BC9304000049
:1058D000832704009384140013044400E780070026
:1058E000E3E824FF8320C1000324810083244100D6
:1058F000032901001301010167800000130101FF6A
:1059000023248100B737018037340180938787BC17
:10591000130484BC3304F440232291002326110095
:1059200093542440638004021304C4FF3304F4003E
:10593000832704009384F4FF1304C4FFE780070067
:10594000E39804FE8320C1000324810083244100E6
:1059500013010101678000001303F0001307050025
:10596000637EC3029377F7006390070A639205088A
:10597000937606FF1376F600B386E6002320B70081
:105980002322B7002324B7002326B70013070701FB
:10599000E366D7FE6314060067800000B306C340C9
:1059A0009396260097020000B38656006780C600D3
:1059B0002307B700A306B7002306B700A305B70067
:1059C0002305B700A304B7002304B700A303B7005F
:1059D0002303B700A302B7002302B700A301B70057
:1059E0002301B700A300B7002300B70067800000C1
:1059F00093F5F50F93968500B3E5D50093960501D1
:105A0000B3E5D5006FF0DFF693962700970200000C
:105A1000B386560093820000E78006FA9380020066
:105A2000938707FF3307F7403306F600E378C3F6A2
:105A30006FF0DFF3B3C7A50093F73700B308C500D5
:105A4000639407069307300063F0C7069377350029
:105A500013070500639A070613F6C8FFB306E6406E
:105A60009307000263CED7089386050093070700CB
:105A70006378C70203A80600938747009386460011
:105A800023AE07FFE3E8C7FE9307F6FFB387E740BF
:105A900093F7C7FF938747003307F700B385F500F7
:105AA0006368170167800000130705006378150518
:105AB00083C705001307170093851500A30FF7FE92
:105AC000E398E8FE6780000083C60500130717000F
:105AD00093773700A30FD7FE93851500E38E07F663
