:0200000480007A
:100000006F00805A6F00C03A6F0000596F00C058EF
:100010006F0080586F0040586F0000586F00C05745
:100020006F0080576F0040576F0000576F00C05639
:100030006F0080566F0040566F0000566F00C0552D
:100040006F0080556F0040556F0000556F00C05421
:100050006F0080546F0040546F0000546F00C05315
:100060006F0080536F0040536F0000536F00C05209
:100070006F0080526F0040526F0000526F000063AB
:10008000973101009381010717010300130181F7E4
:1000900017050000130505F713651500731055309B
:1000A000138581F4138681253306A640930500004D
:1000B000EF50005B1755000013050555EF309040D9
:1000C000EF50804A1305000093050000130600005E
:0C00D000EF0000016F305040678000001E
:1000E000130101812326117E2324817E2322917E08
:1000F0002320217F232E317D232C417D232A517DF6
:100100002328617D93060000130101FD1306000002
:100110009305000013050020EF209052630205268E
:10012000B7150000130905009385853817050100F0
:1001300013054565371A0000EF405025130A8A3829
:1001400013040000930400009709010093890971CA
:10015000732B20B0F32A00B0130601009385090029
:1001600013050900EF20D06D732720B0F32700B0EE
:10017000B302674133835741B384540033046400AE
:10018000732B20B0F32A00B01306010093850900F9
:1001900013050900EF20D06AF32320B0732500B0C7
:1001A00033866341B3065541B384C4003304D4009D
:1001B000732B20B0F32A00B01306010093850900C9
:1001C00013050900EF20D067732820B0F32800B092
:1001D000330E6841B38E5841B384C4013304D40153
:1001E000732B20B0F32A00B0130601009385090099
:1001F00013050900EF20D064732F20B0F32F00B057
:10020000B3056F4133875F41B384B4003304E40026
:10021000732B20B0F32A00B0130601009385090068
:1002200013050900EF20D061F32220B0F32700B0BE
:1002300033836241B3835741130ABAFFB384640026
:1002400033047400E3160AF0170501001305455541
:10025000EF40D0383719000093058938B356B402FF
:10026000170501001305C554B719000033D6B402B1
:10027000EF40D0111386098097150100938505DEA4
:1002800013050100EF40507B130B050063100504BC
:10029000170501001305055AEF40503413010103FF
:1002A0008320C17E13050B000324817E8324417EBD
:1002B0000329017E8329C17D032A817D832A417D13
:1002C000032B017D1301017F6780000017050100EA
:1002D0001305C551EF409030371500001306058017
:1002E00093040100B30A2600170A0100130A0A54F6
:1002F000039624008395040013050A0093840402E6
:10030000EF40D008039664FE839544FE13050A006F
:10031000EF40D0070396A4FE839584FE13050A00E0
:10032000EF40D0060396E4FE8395C4FE13050A0051
:10033000EF40D005039624FF839504FF13050A00C0
:10034000EF40D004039664FF839544FF13050A0031
:10035000EF40D0030396A4FF839584FF13050A00A2
:10036000EF40D0020396E4FF8395C4FF13050A0013
:10037000EF40D001E39E54F7130B10006FF01FF213
:10038000170501001305C53EEF405025130B100063
:100390006FF0DFF00000000000000000000000002F
:1003A0001305000067800000130000001300000028
:1003B0001305000067800000130000001300000018
:1003C0001305000067800000130000001300000008
:1003D00013050000678000001300000013000000F8
:1003E00013050000678000001300000013000000E8
:1003F00013050000678000001300000013000000D8
:1004000013050000678000001300000013000000C7
:1004100013050000678000001300000013000000B7
:1004200013050000678000001300000013000000A7
:100430001305000067800000130000001300000097
:100440001305000067800000130000001300000087
:100450001305000067800000130000001300000077
:100460001305000067800000130000001300000067
:100470001305000067800000130000001300000057
:100480001305000067800000130000001300000047
:100490001305000067800000130000001300000037
:1004A0001305000067800000130000001300000027
:1004B0001305000067800000130000001300000017
:1004C0001305000067800000130000001300000007
:1004D00013050000678000001300000013000000F7
:1004E00013050000678000001300000013000000E7
:1004F00013050000678000001300000013000000D7
:1005000013050000678000001300000013000000C6
:1005100013050000678000001300000013000000B6
:1005200013050000678000001300000013000000A6
:100530001305000067800000130000001300000096
:100540001305000067800000130000001300000086
:100550001305000067800000130000001300000076
:100560001305000067800000130000001300000066
:100570001305000067800000130000001300000056
:100580001305000067800000130000001300000046
:1005900013050000678000001705010013055500D2
:1005A000EF40D0036FF05FFF130101FC2320110027
:1005B0002322A1002324B1002326C1002328D10037
:1005C000232AE100232CF100232E01012320110313
:1005D0002322510223246102232671022328C1030E
:1005E000232AD103232CE103232EF103F322203409
:1005F00013032000638862021303B0006388620063
:1006000013033000638862006F00C002EF00403EB9
:100610006F00400317050100130545F4EF40007C0F
:100620006F00400217050100130545EEEF40007B07
:100630006F00400117050100130565F4EF40007AD3
:100640006F004002F32210340383020013053000D0
:100650003373A3006314A3009382220093822200C9
:10066000739012348320010003254100832581000B
:100670000326C1008326010103274101832781014D
:100680000328C1018328010283224102032381023E
:100690008323C102032E0103832E4103032F810311
:1006A000832FC10313010104730020307300203035
:1006B0003305A04023AEA1F41305F0FF67800000CE
:1006C00097070100938707F01308500537070010BC
:1006D0002320070183C61700638006062320D70066
:1006E00083C22700638A02042320570003C3370014
:1006F000630403042320670083C34700638E03025F
:100700002320770003C55700630805022320A700B4
:1007100083C56700638205022320B70003C6770004
:1007200093878700630A06002320C70003C80700D9
:10073000E31008FA678000006780000013000000E3
:100740009307800523AEF1F41305F0FF67800000E6
:100750009307800523AEF1F41305F0FF67800000D6
:100760009307800523AEF1F41305F0FF67800000C6
:100770009307800523AEF1F41305F0FF67800000B6
:100780009307800523AEF1F41305F0FF67800000A6
:100790001305F0FF67800000130000001300000045
:1007A0009307C00023AEF1F41305F0FF678000004B
:1007B000B707048023A0A700730050106F0000004B
:1007C0009307800523AEF1F41305F0FF6780000066
:1007D0009307B00023AEF1F41305F0FF678000002B
:1007E000B727000023A2F500130500006780000072
:1007F0009307800523AEF1F41305F0FF6780000036
:100800009307800523AEF1F41305F0FF6780000025
:10081000930780FA23AEF1F413050000678000000F
:100820001305100067800000130000001300000093
:10083000930780FA23AEF1F41305F0FF6780000000
:100840001305F5FF13351500678000001300000045
:100850009307600123AEF1F41305F0FF67800000F9
:100860009307F00123AEF1F41305F0FF6780000059
:100870001305000067800000130000001300000053
:100880009307800523AEF1F41305F0FF67800000A5
:100890001305F0FF67800000130000001300000044
:1008A0009307800523AEF1F41305F0FF6780000085
:1008B0001305000067800000130000001300000013
:1008C000B727000023A2F500130500006780000091
:1008D0001305F0FF67800000130000001300000004
:1008E0001305F0FF678000001300000013000000F4
:1008F0009307200023AEF1F41305F0FF678000009A
:100900009307800523AEF1F41305F0FF6780000024
:100910009307A00023AEF1F41305F0FF67800000F9
:10092000130101FF23202101138981F4832709008A
:1009300023248100232291002326110093840500A3
:1009400013040600638A070213060400938504005B
:1009500017250100130505FAEF0080598320C10017
:1009600013050400032481008324410003290100AE
:100970001301010167800000B7C5010013063000B4
:1009800093850520172501001305C5F6EF004049A2
:1009900093021000232059006FF01FFB130000008A
:1009A00023ACA1F2130500006780000013000000D3
:1009B000138781F3032307003305A3002320A70037
:1009C000637C250097F202009382C2636376550030
:1009D00013050300678000009307C0001303F0FFB6
:1009E00023AEF1F41305030067800000130000003C
:1009F000130101FF23229100232611009307100801
:100A00009384050063CC170D9307F00263D6170398
:100A1000938008FD9302100563E41202170301009E
:100A2000130383BC93982000338768008323070057
:100A3000B385630067800500930E1001638AD80FA9
:100A400093045005170701001307C7B7B70F00102D
:100A500023A09F0083471700638E070423A0FF0095
:100A6000834027006388000423A01F0083423700CF
:100A70006382020423A05F0003434700630C030268
:100A800023A06F00834857006386080223A01F013C
:100A9000834367006380030223A07F0083457700C0
:100AA000638A05001307870023A0BF008344070063
:100AB000E39004FA8320C100832441001301010163
:100AC000678000008320C100130E800523AEC1F5AE
:100AD0008324410013010101678000009300F0406E
:100AE000E3C010F79302F03F63D61203938808C067
:100AF0001303F000E36613F517070100130747C35C
:100B0000939328003385E300832505003386E500B1
:100B100067000600130EC00AE38EC8F963461E0381
:100B2000130F9009E388E8F9930F900AE39AF8F11C
:100B3000130F80FA23AEE1F56FF0DFF737250000E1
:100B400023A2A4006FF01FF7930E600DE39AD8EF75
:100B500023ACA1F26FF01FF61308F00123AE01F5EC
:100B60006FF05FF59306200023AED1F46FF09FF491
:100B7000370404802320A400730050106F0000008D
:100B80009304600123AE91F46FF0DFF22320210182
:100B9000138981F42324810013040600032609002D
:100BA00063060602130604000324810003290100E2
:100BB0008320C10093850400832441001725010090
:100BC000130545D3130101016F008032B7C6010040
:100BD000130630009385062017250100130585D1E3
:100BE000EF00002413081000232009016FF09FFB81
:100BF0008327C500638807208328050163840820B4
:100C00000328050003469500032745018346480154
:100C1000B3E2C600A304550013F306026302031EE9
:100C2000B383E84093050001138F030063F475005C
:100C3000130F0001638AE81C338EE700834E0E0019
:100C4000930F1700130610002300D801232AF50183
:100C50006370761AB386F70183C206001303270078
:100C60009305200023005800232A650063F27518BD
:100C7000338E6700834E0E00130637009306300054
:100C80002300D801232AC50063F47616B382C70077
:100C900003C3020093054700130E400023006800C1
:100CA000232AB50063767E14B38EB70083C60E0088
:100CB00013065700930250002300D800232AC500D2
:100CC00063F872123383C70083450300930E6700F5
:100CD000130E60002300B800232AD501637A7E102A
:100CE000B386D70183C20600130677001303700092
:100CF00023005800232AC500637C730EB385C70008
:100D000083CE050093068700130E80002300D801D0
:100D1000232AD500637E7E0CB382D70003C3020072
:100D2000130697009305900023006800232AC5004E
:100D300063F0750CB38EC70083C60E009302A70044
:100D4000130EA0002300D800232A550063727E0AE8
:100D500033835700834503001306B700930EB0009A
:100D60002300B800232AC50063F47E08B386C700B9
:100D700083C206001303C700130EC00023005800EF
:100D8000232A650063767E06B385670083CE05005F
:100D90001306D7009306D0002300D801232AC500EC
:100DA00063F87604B382C70003C302009305E7002B
:100DB000130EE00023006800232AB500637A7E0248
:100DC000B38EB70083C60E001306F7009302F0003F
:100DD0002300D800232AC50063FC7200B387C70034
:100DE00003C307001307070123006800232AE50057
:100DF00093050000638403009305FFFF3387F5012B
:100E00006384E800678000008348480023280500C9
:100E100013F5D80F2302A80067800000130000001C
:100E2000130101FE232A910083240500232C810055
:100E30002328210123263101232E110023820400BF
:100E400023840400930770FC2384F40023880400A7
:100E50002322B50013040500138905009309060039
:100E6000930600001386050037D512139305000082
:100E7000EF20501CB7028000637455029350F500B8
:100E8000130700F82386E40013F3F00F13557500E1
:100E9000238264009373F50F23807400238604007B
:100EA0002386340123043401A304040097050000C1
:100EB000938545D4232224018320C10123280400E3
:100EC00023260400232A0400232E0400232C0400DC
:100ED000232204022320B40203248101832441013C
:100EE000032901018329C100130101026780000069
:100EF000130101FF23260100638C0522630A0622E9
:100F0000032505003386C5009307100303474501F9
:100F1000232601008326C1009372F70F63E2D70AEC
:100F20000323C10093031300232671000328C1008B
:100F300063E807098328C100138E18002326C10126
:100F4000832EC10063EED707032FC100930F1F004C
:100F50002326F1010327C10063E4E7068326C100CD
:100F600013831600232661008323C10063EA7704FC
:100F70000328C1009308180023261101032EC10085
:100F800063E0C705832EC100138F1E002326E101F5
:100F9000832FC10063E6F7030327C1009306170000
:100FA0002326D1000323C10063EC67008323C10023
:100FB00013881300232601018328C100E3F217F7E9
:100FC00093F20202E38402F423260100032EC100FF
:100FD00063E2C70B832EC100138F1E002326E1019D
:100FE000832FC10063E8F7090327C10093061700A8
:100FF0002326D1000323C10063EE67068323C100CB
:1010000013881300232601018328C10063E4170716
:101010008322C100138E12002326C101832EC1003A
:1010200063EAD705032FC100930F1F002326F101A8
:101030000327C10063E0E7048326C1001383160081
:10104000232661008323C10063E677020328C100E1
:1010500093081800232611018322C10063EC570076
:10106000032EC100930E1E002326D101032FC100C1
:10107000E3F2E7F783CF05002300F5012326010003
:101080000327C10063E2E70A8326C1001383160029
:10109000232661008323C10063E877080328C10089
:1010A00093081800232611018322C10063EE57061E
:1010B000032EC100930E1E002326D101032FC10071
:1010C00063E4E707832FC10013871F002326E10095
:1010D0008326C10063EAD7040323C10093031300EE
:1010E000232671000328C10063E007058328C1009F
:1010F0009382180023265100032EC10063E6C70324
:10110000832EC100138F1E002326E101832FC1000F
:1011100063ECF7010327C100930617002326D100D3
:101120000323C100E3F267F693851500E390C5DE63
:10113000130101016780000013000000130000008C
:101140006388050E03C605006304060E83270500A9
:10115000130101FF9386150003C747019372F70F30
:10116000A30751000343F100937303026396030A3C
:1011700003C547019375F50FA307B1000348F100BC
:1011800093780802639A080803CE4701937EFE0F06
:10119000A307D101034FF100937F0F02639E0F0657
:1011A00003C747019372F70FA30751000343F100F0
:1011B000937303026392030603C547019375F50F0A
:1011C000A307B1000348F10093780802639608046E
:1011D00003CE4701937EFE0FA307D101034FF10019
:1011E000937F0F02639A0F0203C747019372F70FB1
:1011F000A30751000343F10093730302639E0300AE
:1012000003C547019375F50FA307B1000348F1002B
:1012100093780802E38208F4938616002380C700BF
:1012200003C6F6FFE31A06F213010101678000000E
:10123000678000001300000013000000130000008E
:10124000630C0602638A0502032705009706000067
:101250009386469A2326B500834747002328C50076
:10126000232A05002320D50293E2270023025700FA
:10127000732340F16304030067800000B723000C70
:10128000171601001306066783A503003305C54042
:101290001338150093081000339E0801B36EBE008A
:1012A00023A0D3016780000013000000130000009A
:1012B00083270500034795008326050183C2470164
:1012C00033E3E200A304650093F3F20F6398060092
:1012D00013D5630013751500678000001305000027
:1012E00067800000130000001300000013000000DE
:1012F0009307050063800518630E06160327050093
:101300000345950083464701B3E2A600A384570036
:1013100013F31600630003169373360013050000E1
:10132000638C0308130810006380030793082000F0
:101330006386130303470700130510002380E500AD
:1013400003A7070003CE9700834E470133EFCE017A
:10135000A384E70193FF1E0063820F1283460700F8
:10136000B382A500130515002380D20003A7070050
:1013700003C397008343470133E86300A384070155
:1013800093F81300638C080E034E07003387A50003
:10139000130515002300C70103A7070083CE97009C
:1013A000034F4701B36FDF01A384F70193761F005A
:1013B0006386060C6306A60C83420700B383A50070
:1013C000130515002380530003A8070003CE9700E0
:1013D0003383A5000347480193080500B36EC70196
:1013E000A384D701137F1700630A0F08834F0800F7
:1013F00013051500B382A5002300F30183A30700A2
:1014000083C6970003C343013368D300A384070155
:10141000137E130063040E0603C703001385280020
:10142000B38EA5002380E20003AF070083CF9700AF
:1014300083424F01B3E3F201A384770093F61200D5
:10144000638E060203430F001385380023806E006D
:1014500003A7070083C89700034E470133681E01A6
:10146000A3840701937E1E00638A0E00E316A6F490
:10147000678000001305000067800000678000009F
:10148000678000001300000013000000130000003C
:10149000F32740F163960702B726000C17170100E7
:1014A0001307474503A60600B302E54013B3120035
:1014B0009303100033986300B368C80023A016019B
:1014C000370E0100930EFEFF638CD5010325050046
:1014D00093F5F500034F4500B36FBF002302F501FC
:1014E00067800000130000001300000013000000DC
:1014F000638E05029307000C63EAC7020327050009
:10150000232EB5008342870013F3F203B363C300B5
:1015100093F5F30F2304B7000346470093661600C4
:101520002302D700732840F163040800678000009D
:10153000B728000C971E0100938ECE3B03AE080027
:101540003305D541133F1500930F1000B397EF01FA
:1015500033E7C70123A0E800678000001300000004
:1015600063840502032705002320B5022326050016
:10157000834747002328050093E2270023025700F2
:10158000732340F16304030067800000B723000C5D
:10159000971501009385053683A603003305B540F2
:1015A0001336150013081000B318C80033EED80026
:1015B00023A0C30167800000130000001300000097
:1015C00063800502032705002322B50283474700F5
:1015D00093E2870023025700732340F16304030062
:1015E00067800000B723000C9715010093858530B4
:1015F00083A603003305B540133615001308100009
:10160000B318C80033EED80023A0C30167800000E0
:10161000638805126306061283270500834695003A
:1016200003C74701B362D700A30455001373070231
:1016300063080310930300011305060063F4C3005D
:101640001305000103C8050093081000238007015B
:1016500063FAC80E03CE1500930E20002380C70145
:1016600063F2CE0E03CF2500930F30002380E701F5
:1016700063FACF0C83C63500130740002380D700E0
:101680006372C70C83C245001303500023805700C8
:10169000637AC30A83C35500130860002380770070
:1016A0006372C80A83C86500130E70002380170197
:1016B000637ACE0883CE7500130F80002380D70194
:1016C0006372CF0883CF8500930690002380F701D3
:1016D00063FAC60683C295001307A0002380570053
:1016E0006372C70603C3A5009303B000238067009D
:1016F00063FAC30403C8B5009308C0002380070140
:1017000063F2C80403CEC500930ED0002380C70146
:1017100063FACE0203CFD500930FE0002380E701E8
:1017200063F2CF0283C6E5009302F0002380D70066
:1017300063FAC20083C5F5002380B700678000000C
:101740001305000067800000130000001300000074
:10175000832705000347950083C24701A3040500C2
:1017600033E5E2001375E50967800000130000000F
:101770008327050003C58701678000001300000070
:1017800003270500834795008342470133E3F200B6
:10179000A304650013F50206678000001300000033
:1017A000032705008347C70093E207042306570079
:1017B0006780000013000000130000001300000009
:1017C000032705008347C70093F2F70B2306570052
:1017D0006780000000000000000000000000000022
:1017E000130101F52322910A232E31098324470096
:1017F00083290700232A5109930A06003388990296
:101800002320A1092326110A2324810A2320210B46
:1018100023229109232EB107232C41092328610992
:1018200023267109338D5603931028002324810940
:10183000130610001304050013890500938C07009C
:10184000B30D1500131D2D006386C436B38B5903E9
:1018500013890A00130A8700139C2400130B050048
:10186000138E0500930A05001384060013050B0070
:1018700093870C0013070A009306040013860B00DD
:1018800093050E002320C101EFF09FF58322010094
:10189000330B8B0193870C003383A20113070A00DB
:1018A0009306040013860B0013050B009305030039
:1018B000638E6D1323206100EFF09FF283230100FC
:1018C000330B8B0193870C00B388A30123201101F4
:1018D00013070A009306040013860B0013050B0080
:1018E0009385080063846D11EFF09FEF832501005D
:1018F000330B8B0193870C00338EA5012320C1018C
:1019000013070A009306040013860B0013050B004F
:1019100093050E00638C6D0DEFF09FEC832E01009C
:10192000330B8B0193870C00338FAE012320E10131
:1019300013070A009306040013860B0013050B001F
:1019400093050F0063846D0BEFF09FE9832F010077
:10195000330B8B0193870C003388AF0123200101E7
:1019600013070A009306040013860B0013050B00EF
:1019700093050800638C6D07EFF09FE6832201005A
:10198000330B8B0193870C003383A201232061006A
:1019900013070A009306040013860B0013050B00BF
:1019A0009305030063846D05EFF09FE3832301003B
:1019B000330B8B0193870C00B388A3012320110103
:1019C00013070A009306040013860B0013050B008F
:1019D00093850800638C6D01EFF09FE00325010003
:1019E000330B8B01330EA501E3926DE913840A00DA
:1019F000930A0900930D400003ADCC006388B96BD6
:101A000063CE3D33930D2000E382B91B13073000F2
:101A1000639AE97893932A0033897402139A240015
:101A200093091000B3064401B73E0000B3082D012E
:101A3000839C2800E39C3A39B70B010033864601AA
:101A400013050D009383AEAAB74A0000938DFBFFE8
:101A500083200400FBF570002320B40003A90600D6
:101A60007B7A790023A04601832906007BF7790061
:101A70002320E60083A80600832F0D007BB3F80126
:101A8000832E0500FB32D7017B1C5300130F0C0083
:101A9000135E0C0123248105FB275300139B0701D0
:101AA00013580B41B30B980393D00741835504009F
:101AB00013190F01135A094193591A4033873541BD
:101AC000931F0E012390E60083582400B3829003F5
:101AD000338F5B01135EFF4093170E0113D30F4149
:101AE00013DB0701935E13403378BB01B38BD841FE
:101AF00083200400B385520113D9F540131A09015C
:101B0000B3694801130D4D0013058500239176013B
:101B100093580A01938F0900232E31037B9C800187
:101B200003D7060013930801935203012320840175
:101B3000B38EE2002310D60103DF2600139E0F01AF
:101B4000135B0E01B3076F412311F60003D80600A3
:101B500083DB26009384F4FFB3005840B3057B0178
:101B6000239016002391B600130444001306460088
:101B700093864600E39E04EC8320C10A0324810A75
:101B80008324410A0329010A8329C109032A8109FF
:101B9000832A4109032B0109832BC108032C8108E7
:101BA000832C4108032D0108832DC1071301010B6C
:101BB00067800000B387AD409386C7FF13D7260028
:101BC0001306170093707600130705006382000C5C
:101BD0006382900A930B200063827009130A30001D
:101BE00063824007130C4000638280059305500018
:101BF0006382B002930E6000E39CD01B035809007F
:101C000013074700231E07FF835229003309A90148
:101C1000231F57FE0353090013074700231E67FEC7
:101C2000835329003309A901231F77FE8358090034
:101C300013074700231E17FF035B29003309A9017F
:101C4000231F67FF0355090013074700231EA7FE44
:101C5000035E29003309A901231FC7FF8357090029
:101C600013074700231EF7FE835629003309A901F5
:101C7000231FD7FE0356090013074700231EC7FE84
:101C8000835029003309A901231F17FEE384EDD6F1
:101C9000835B0900330AA90113070702231077FFAA
:101CA000835E2900330CAA01330FAC012311D7FF47
:101CB000835F0A00B305AF01B382A5012312F7FFCA
:101CC00003582A003383A201B303A301231307FFA0
:101CD00083580C003389A301231417FF035B2C00E6
:101CE000231567FF03550F002316A7FE035E2F0081
:101CF0002317C7FF83D705002318F7FE83D62500D7
:101D00002319D7FE03D60200231AC7FE83D0220070
:101D1000231B17FE835B0300231C77FF035A23005A
:101D2000231D47FF03DC0300231E87FF83DE230000
:101D3000231FD7FFE39EEDF46FF0DFCB130C5000B1
:101D400063928947B38C9A0213932400B30364000F
:101D500033896300B3096900338A6900939F2C00BB
:101D60003307FD01330BF70103180B00031F2B0092
:101D7000831D0700232001012328E101831627008A
:101D8000E35C90DE93021000E39C5A4CB70E010016
:101D900083220101B72500009388FEFF930008000D
:101DA000930C0D00130F0D0023260100938F9599BE
:101DB00037460000232A1101138B0600232C9100C3
:101DC0002320A10103250400FB76F5012320D40084
:101DD00083A40300FBF7F40123A0F300832A090086
:101DE0007BF8FA012320090103AE09007B73FE0191
:101DF00023A06900832B0A007BFCFB0183280100E0
:101E000023208A0103170400831E240083A50300F6
:101E100003A50800FBB7A5008324090083260F0053
:101E20007BBED40083AA090003280D007BB30A01FE
:101E300083AB0C007B3C7C01FB98870193850800F9
:101E400013D50801232C1105FBA7870193D40701A3
:101E5000938A07002322F106FB166E00938B06007F
:101E600013D80601232ED1047B236E00139C0B0193
:101E7000139E05019394040193550E4193580C4110
:101E800013DE044113150501939E0E01935605417F
:101E90002324C1013385B50313DE0E01939A0A0191
:101EA00013DC0A4193170801835A040013D8074131
:101EB000935703412328F100B3871501B38E18020D
:101EC0003305C500B38AFA00131707011355F5400F
:101ED00013570701931B03012320610623105401AC
:101EE00083542400B38ECE0093D7FE403305F50013
:101EF000B30AA7003383B6032322C101832E410115
:101F0000338E0601B384C401139E0A012311940089
:101F100093540E01B3F7D40193DB0B413305180240
:101F20003303C300935AF340330EC5009354FE406D
:101F300033859A00832A410033036C03338EAA0051
:101F400093140E0133E59700032E81002328A1048A
:101F5000B3875B023303C300935AF340B387C700D0
:101F600013D3F74083270101B38A6A00B3046E03D9
:101F7000330E5041231BC105B38A5702B384C400FA
:101F800013DEF4403383CA00935AF340B3045E0176
:101F9000231A9104032341057B2E650023A0C3016E
:101FA0007B156500B38515022320AA00B388B8030A
:101FB000B38AC50093D4FA40B38616023383C800AF
:101FC000135EF3403385C4013307A700931507015F
:101FD00093D8050183254100B3FAD8013308B8032B
:101FE000B384C60093D6F44083248100330EC80026
:101FF0001355FE403387A60033836703B388E5009B
:1020000013980801B3EA0A0123245107B386540246
:10201000B307C30013D3F740330C5C02338EC60002
:102020001355FE403307A3409315070193D80501CC
:10203000B3FED801B38B6B033308CC009354F84044
:10204000B386CB0093D7F6403383F440131C0301CF
:1020500033EE8E012326C1077B95CA012320A900F8
:10206000FBAACA010327C10083280100832B810139
:1020700093051700938E480023A059012326B10031
:102080002320D10113044400938343001309490022
:1020900093894900130A4A00130F8F00130DCD00D6
:1020A000938C0C01E390BBD26FF01FAD930910002D
:1020B00013972400E3903A073305E400B305E500E5
:1020C000B723000083AC4C003386E500930E0D006F
:1020D000130E0D00938AF3FF6F00C002FBC6E301ED
:1020E0002320D5007BDAE301232046019384F4FF0B
:1020F000130444001305450093854500130646006C
:10210000E38C04A6032B04007B785B0123200401ED
:10211000032F0500FB725F012320550083A80500F3
:10212000FBF0580123A0150083270600FBFB570195
:102130002320760183260500032A0D007BBC46017F
:1021400003A30500832F0E00FB3DF30183A90E00BE
:102150007BB93B0103270400FB23B7017B1BB701BD
:10216000232064017B182C017B2F2C01FB220B0107
:1021700023A0550083280400130D4D00130E8E007C
:10218000938ECE00FB90080123201400E3980CF4FA
:10219000FBD7E3012320F500FBCBE30123207601ED
:1021A0006FF0DFF41395290083AC0C00EF1090352D
:1021B000E30405406350903CB38D9A02B788000059
:1021C00013992400130A000093030000938FF8FF73
:1021D000130C1000930245006356303913F3790055
:1021E00033C73F0393070500930600006302030C07
:1021F000930E10006302D30B130F20006304E30956
:10220000130E30006306C307130B40006308630519
:1022100013085000630A0303930B6000630C7301FF
:1022200083270500FBF0E70093061000232015002C
:102230009307450083A507007BF6E50023A0C700B0
:10224000938616009387470083A807007BF3E80076
:1022500023A06700938616009387470083AE07008C
:102260007BFFEE0023A0E7019386160093874700CB
:1022700003AE07007B7BEE0023A067019386160068
:102280009387470003A80700FB7BE80023A07701A2
:10229000938616009387470083A00700FBF5E000B4
:1022A00023A0B70093861600938747006388D9065A
:1022B00003A60700FB78E60003A3470023A017014D
:1022C000FB7EE30003AF870023A2D7017B7EEF00F4
:1022D00003ABC70023A4C7017B78EB0083AB0701E6
:1022E00023A60701FBF0EB0083A5470123A81700F5
:1022F0007BF6E50083A8870123AAC7007BF3E800EB
:1023000083AEC70123AC67007BFFEE0023AEE7017D
:102310009386860093870702E39CD9F8035E050045
:10232000835B2500930504002310C401231174016D
:10233000638A89239308040013080A00130300002A
:10234000138602009306100093070000B38707016D
:1023500013972700B300ED0063C89701B387974137
:10236000139B2700B3006D01832E060003AF00000E
:102370007BBBEE0103A70500FB10670123A015003E
:102380009386160013064600E392D9FC130313004C
:10239000B38828013308B8016386691C9385080057
:1023A0002390C801239178016FF09FF99390240046
:1023B000930F100033071400639EFA35374800006E
:1023C00013FB34009303F8FF9385F4FF63000B0ABB
:1023D00063085B0563103B65832D0400FBF07D0003
:1023E00023201400832F0700FBF27F0023205700D7
:1023F00003260D00FBB6C200130D4D008327040019
:102400007BA3D70023206700032C04007B1EDC0085
:102410002320C40113074700130444009384F4FFEE
:10242000032504007B7B750023206401032807003B
:10243000FB7578002320B700832A0D007BB9550176
:1024400083290400130D4D007BAA29012320470195
:1024500083280400FB9E28012320D4019384F4FFE9
:102460001307470013044400638804F0032F04009B
:10247000FB7C7F0023209401832B0700FBFD7B0066
:102480002320B70183200D00FBBF1D008322040021
:102490007BA6F2012320C70083260400FB97F601E8
:1024A000032344002320F4007B7C73002322840157
:1024B000032E47007B757E002322A700032B4D00CF
:1024C0007B38650183254400FBAA050123225701BF
:1024D00003294400FB190901032A84002322340143
:1024E000FB787A0023241401832E87007BFF7E0073
:1024F0002324E701832C8D00FB3B9F01832D840067
:10250000FBA07D0123241700832F8400FB927F0111
:102510000326C40023245400FB7676002326D4002F
:102520008327C7007BF3770023266700032CCD00A9
:102530007B3E83010325C400130D0D017B2BC501D8
:10254000232667010328C400FB15C8012326B40015
:102550009384C4FF1307070113040401E39804F0F4
:102560006FF08FE19383130013044400330A5A0180
:10257000E39474C60324810A8320C10A8324410A98
:102580000329010A8329C109032A8109832A4109F0
:10259000032B0109832BC108032C8108832C4108DC
:1025A000032D0108832DC1071301010B6F10407625
:1025B000035F0900130745002310E501835F29002D
:1025C0003309A9012311F5016FF04FE3370F010023
:1025D000939A3A003386460113050D00938BAEAAF9
:1025E000B74D00009300FFFF832F0400FBF27F0133
:1025F0002320540083A706007BF3770123A0660005
:10260000032C06007B7E7C012320C60103AB060061
:1026100003280D00FB350B01032705007B39EE0075
:10262000FB992501138A090093D809012324310558
:10263000FBAE2501139F0E01935F0F4133839F0370
:1026400093D70E411397080183520400131C0A010B
:10265000135E0C41135B1E403388624123900601D8
:1026600083552400B3889703B30EB30113DFFE40F4
:10267000931F0F011359074113D30F01135A194028
:10268000B3721300B3874541032C0400338EB801A5
:10269000135BFE4013180B01B3E50201330D7D00FF
:1026A000330555012391F60013590801138A0500DB
:1026B000232EB102FB193C0103D706009318090130
:1026C00093DF080123203401B38EEF002310D601DD
:1026D00003DF260013130A0193520301B3075F407F
:1026E0002311F60003DC060003DE26009384F4FFCA
:1026F000330BFC413388C20123906601239106010C
:10270000130444001306460093864600E39E04EC3F
:102710006FF08FC6B742000013F63400139B2A00F7
:102720001388F2FF9386F4FF6304060E630CF60928
:102730006306360583240400FBF704012320F4001C
:10274000032307007B7C030123208701032E0D0058
:102750007B35CC01330D6D01832A0400FBA5AA0053
:102760002320B700832304007B99A30023202401A6
:1027700013074700130444009384060083290400D0
:102780007BFA09012320440183280700FBFE08018E
:102790002320D701032F0D00FBBCEE01330D6D018B
:1027A000832B0400FBAD9B012320B7018320040091
:1027B000FB9F90012320F4011307470013044400FA
:1027C0009384F4FF03260400FB72060123205400C7
:1027D00083260700FBF706012320F70003230D00E3
:1027E0007BBC6700032E0400330D6D017B258E0139
:1027F0002320A700832A0400FB958A012320B4002C
:102800009384F4FF1307470013044400638604B65F
:10281000832304007BF9030123202401832907007B
:102820007BFA09012320470183280D00FB3E1A0192
:10283000032F0400B30C6D01FB2BDF012320770174
:10284000832D0400FB90DD01832F4400232014001E
:102850007BF60F012322C40083224700FBF602010E
:102860002322D70083A70C007BB3F600032C44007F
:10287000338E6C017B2D6C002322A70103254400BD
:10288000FB1A65008325840023225401FBF3050114
:102890002324740003298700FB79090123243701CD
:1028A000032A0E00FBB84901832E8400330F6E010A
:1028B000FBAC1E0123249701832B8400FB9D1B018D
:1028C0008320C4002324B401FBFF00012326F4016C
:1028D0000326C700FB7206012326570083260F003C
:1028E000FBB7D2000323C400330D6F017B2CF30030
:1028F00023268701032EC4007B15FE002326A40097
:102900009384C4FF1307070113040401E39204F046
:102910006FF08FA613991A003305E400330F5901A5
:10292000B305E500B722000093932A0083AC4C0066
:10293000939A3A00131B2F003386E500930F0D0086
:1029400013030D001388F2FF6F00C0027BC7D00095
:102950002320E5007BD9D000232026019384F4FFB7
:1029600013044400130545009385450013064600F3
:10297000638404A0832804007BFE08012320C40193
:1029800083270500FBF607012320D50083A005005F
:10299000FBFB000123A07501032A06007B7C0A01D2
:1029A00023208601832E0500832D0D00FBB9BE0177
:1029B00003A70500032903007B3F270183A20F0023
:1029C0007B3E5C0083280400FBA0E801FB97E80144
:1029D0002320F400FB9BC901FBA6C9017BAA770158
:1029E00023A04501032C0400330D7D003303530164
:1029F000B38F6F01FB1E7C012320D401E3980CF4FC
:102A0000FBDDD0002320B501FBC9D0002320360117
:102A10006FF0DFF483240400FBFA740023205401D8
:102A200003290700FB79790023203701032A0D00D1
:102A3000FBB84901832E0400130D4D007BAF1E012E
:102A40002320E701832C0400FB9B1C01232074013D
:102A50001307470013044400938405006FF0DF97C9
:102A600093981A00338E5801B7050100B720000073
:102A7000939E2A0093973A00931B2E00939A4A0044
:102A80001386F5FF23247103938C9099232ED10193
:102A90002320F10223225103930B0D00130B0D0091
:102AA00023240100374C00002326C1009380060038
:102AB000232691022322A101832404007BF39401A5
:102AC0002320640083AF03007BF79F0123A0E30072
:102AD000832609007BF896012320090103AF090032
:102AE000FB729F0123A0590083280A007BFE9801F6
:102AF0002320CA01831E0400831A240003A50300B7
:102B000083270D00FB34F5000326410083250900CF
:102B100003230600FBBF650003A7090083260B0003
:102B20007B3FD70003A80B00FB320E01FB9854003B
:102B30009387080013D60801232C11057BAE54009F
:102B400013530E0113070E002322C107FB94EF015C
:102B50009386040013D50401232E91047BAFEF016B
:102B6000939F060113D80F41832F0100939507010E
:102B700093D505419318050113130301939E0E018C
:102B800013D50841B384B5039358034113D30E0101
:102B90009312060113D602419317070183520400D2
:102BA00003572400939A0A0193D60741B30EF80302
:102BB000B38F0501232AE100B3848401B382F201BB
:102BC00013D70A012310540093DAF44093570F41AE
:102BD000131E0F01232CD101B30EA6008322810105
:102BE00093840E00832E41012320E107330FB603A7
:102BF000B38F9E00B384820193DEF440B38ADA017E
:102C00002311F401B30F530193920F01832F01009D
:102C100093DE02018324C100B302F503330F8F0159
:102C2000B3FA9E00935EFF40135E0E41B3848201AF
:102C300093D2F440338F5E00B30EE70193940E01FC
:102C4000832E0101B38F1602B3EA9A00232851059F
:102C5000330FDE03B38F8F0193DFFF40B3028F0189
:102C600013DFF240B38FEF01B302F041B3841802D7
:102C7000231B5104B38FD703B384840193D2F44050
:102C8000338F8F01935FFF40B384F201231A9104C5
:102C9000032F4105FBA2EA0123A05300FB9AEA019E
:102CA000832F01003308B80323205A01B385F503AD
:102CB000B302880193DAF2400328C1003305B5035B
:102CC000B384850113DFF4403306F603B30F5F01CD
:102CD000B30A85013303F30193DFFA40931503012F
:102CE00093D4050133FF0401B3871702330686012D
:102CF0009352F6403383F2013307670093150701BF
:102D0000B364BF0023249106B388D803338F8701AF
:102D10001355FF40B386D603338688019352F6409D
:102D2000B3075540939A070193DF0A0133F80F0167
:102D3000330E1E02338386011357F340B3058E0111
:102D400093DEF540B308D741139F08013365E801CE
:102D50002326A106FB96A4002320D900FBA4A400EF
:102D600003268100832F4100832A01028327C101AA
:102D7000032E8102032341020327C102930216009E
:102D800033885F0123A099002324510023220101ED
:102D900013044400938343001309490093894900B5
:102DA000130A4A00330DFD00330BCB01B38B6B00CC
:102DB000E31457D06FE05FDC1704010003244421C3
:102DC000032D040013067001930510008326CD0027
:102DD00017F500001305052BEF10504A832404005B
:102DE000930510001306900183A6C40017F5000098
:102DF0001305C52AEF109048832A04000324810A92
:102E00008320C10A83A5CA008324410A0329010A39
:102E10008329C109032A8109832A4109032B010956
:102E2000832BC108032C8108832C4108032D010842
:102E3000832DC1071305A0001301010B6F1010258E
:102E4000130101FE232C810093073500232E11006E
:102E50001304050013952700638006066302060429
:102E600083A0060063EEA00223A0A60013050600BF
:102E70008320C101232085000324810197020100E2
:102E800083A2C214170301000323C3142322B50035
:102E900023265500232465001301010267800000EA
:102EA00023A0A600130500008320C1010324810193
:102EB00013010102678000002326B100EF00906437
:102EC0008325C100E31605FA130500006FF0DFFD4E
:102ED000130101FE232C8100232E11001304050091
:102EE0006382C50203278400930704000324810141
:102EF0008320C1011305060013061000130101020F
:102F00006FE01F8E232A91009384050063880506D5
:102F1000032505002328210123263101131525004F
:102F200013890600EF00105E930905006308050A87
:102F30000327840093070400930609009385040087
:102F400013061000EFE0DF890326040093850900D3
:102F50001385040013162600EF20407E0324810110
:102F600083244101032901018320C1011385090044
:102F70008329C100130101026F00905997040100D9
:102F800083A4040583A004001306700193051000B8
:102F900083A6C00017F5000013050512EF10102ED0
:102FA00083A30400930510001306100183A6C30039
:102FB00017F500001305C511EF10502C83A5040070
:102FC000832441011305A00083A5C50003248101CA
:102FD0008320C101130101026F10500B170401007F
:102FE000032404FF832704001306700193051000D7
:102FF00083A6C70017F500001305C50EEF101028B3
:1030000083220400930510001306800183A6C200EA
:1030100017F500001305850EEF105026032304005A
:1030200083244101032901018325C3008329C100B1
:103030001305A0006FF09FF91300000013000000BB
:10304000130101FF2324810023261100130405002E
:103050006384C502032784009307040003248100CE
:103060008320C1001305060093061000130610000C
:10307000130101016FE0CFF6232291009384050034
:103080006382050603250500232021011315250071
:10309000EF005047130905006306050A0327840063
:1030A0009307040093850400930610001306100094
:1030B000EFE00FF3032604009305090013850400D5
:1030C00013162600EF20806703248100832441002B
:1030D0008320C10013050900032901001301010128
:1030E0006F0010439704010083A484EE83A00400C2
:1030F000130670019305100083A6C00017F50000A9
:10310000130585FBEF10901783A3040093051000AF
:103110001306100183A6C30017F50000130545FB35
:10312000EF10D01583A50400832441001305A000EF
:1031300083A5C500032481008320C1001301010180
:103140006F10C07417040100032484E8832704006F
:10315000130670019305100083A6C70017F5000041
:10316000130545F8EF109011832204009305100019
:103170001306800183A6C20017F50000130505F8A9
:10318000EF10D00F03230400832441000329010022
:103190008325C3001305A0006FF0DFF913000000C2
:1031A00067800000130000001300000013000000FF
:1031B0009377150093063000130750001308100092
:1031C000639407189307050013D6F701B302F600BE
:1031D00093D7124013D3F70193F51700B303F3000D
:1031E0006394050893D7134093D8F70193FE170013
:1031F000338EF800639A0E0693571E4013DFF701D3
:1032000013F61700B30FFF006310060693D71F4095
:1032100093D2F70193F317003383F200639603040C
:103220009357134093D5F70113FE1700B388F500A9
:10323000631C0E0293D7184093DEF70193FF17002B
:10324000338FFE0063920F0293571F4013D6F7018E
:1032500013F31700B302F6006318030093D712406C
:1032600093F31700E38203F6B3E5D70263920506F2
:10327000B3C7D702B3E8D702639C0804B3C7D70229
:1032800033EED70263160E04B3C7D702B3EED702EC
:1032900063900E04B3C7D70233EFD702631A0F024D
:1032A000B3C7D702B3EFD70263940F02B3C7D702F5
:1032B00033E6D702631E0600B3C7D702B3E2D702D4
:1032C00063980200B3C7D70233E3D702E30203FADD
:1032D000B3E3E70263920306B3C7E702B3E5E7028D
:1032E000639C0504B3C7E702B3E8E70263960804EA
:1032F000B3C7E70233EEE70263100E04B3C7E70279
:10330000B3EEE702639A0E02B3C7E70233EFE702B8
:1033100063140F02B3C7E702B3EFE702639E0F0027
:10332000B3C7E70233E6E70263180600B3C7E70254
:10333000B3E2E702E38202FA635CF80013051500CA
:1033400093771500E38007E8930705006FF0DFF13E
:1033500067800000000000001308000063C605122B
:1033600063DC0600B337C000B306D0401348F8FF53
:10337000B386F6403306C0409308060013070500E5
:1033800013830500639A060E63F4C516B7070100A0
:103390006364F622B7070001930680016374F600A8
:1033A00093060001B7270180335ED600938747114B
:1033B000B387C70183C70700130E0002B387D70086
:1033C000B306FE40630CFE003393D500B357F500FF
:1033D000B318D60033E367003317D50013D60801BE
:1033E0003355C3029396080193D6060193570701FC
:1033F0003373C302B385A60213130301B3E7670057
:1034000063FCB700B387F8001303F5FF63E417010B
:1034100063E6B74013050300B387B740B3D5C702CF
:103420001317070113570701B3F7C702B386B60294
:10343000939707013367F700637ED7003387E8006F
:103440009387F5FF636617019385E5FF6364D700F3
:1034500093850700131505013365B500930500003A
:10346000630A0800B337A000B305B040B385F54048
:103470003305A0406780000063F4D5029305000087
:10348000130500006FF0DFFDB337A000B305B040B7
:10349000B385F5403305A0401308F0FF6FF05FECF3
:1034A000B707010063E8F61EB70700019308800123
:1034B00063F4F60093080001B727018033D71601A3
:1034C00093874711B387E70003C7070093070002FC
:1034D00033071701B388E7406396E71C63E4B6300F
:1034E0003335C50013351500930500006FF05FF705
:1034F000630C060CB7070100637CF62C133306102F
:103500001333130013133300B3566600B72701803B
:1035100093874711B387D70083C60700930700023C
:10352000B3866600B38ED7406394D70CB386C5408C
:1035300013530601131606011356060193051000D6
:1035400033D5660293570701B3F66602330EC50200
:1035500093960601B3E7D70063FCC701B387F80071
:103560009306F5FF63E4170163E4C72B1385060098
:10357000B387C741B3D66702131707011357070173
:10358000B3F767023386C602939707013367F700E4
:10359000637EC7003387E8009387F6FF63661701F1
:1035A0009386E6FF6364C700938607001315050141
:1035B0003365D5006FF0DFEA9336061093B6160038
:1035C000939636006FF01FDEB72701809306000048
:1035D00093874711B387D70083C607001303000002
:1035E00093070002B3866600B38ED740E380D7F41A
:1035F000B318D60133DED50013D30801B3576E02DA
:103600001396080113560601B356D5003317D5019A
:10361000B395D501B3E6B60093D50601337E6E02AD
:103620003305F602131E0E01B3E5C50163FEA500C6
:10363000B385B800138EF7FF63E4151D63F2A51C74
:103640009387E7FFB3851501B385A54033D56502A0
:103650009396060193D60601B3F56502330EA602D2
:1036600093950501B3E6B60063FEC601B386D800A4
:103670009305F5FF63EE161763FCC6171305E5FF08
:10368000B386160193950701B386C641B3E5A5003D
:103690006FF01FEB93B8061093B81800939838009A
:1036A0006FF09FE1B35EE600B3961601B3EEDE0065
:1036B00033D3E50013DF0E01B357E303139E0E016E
:1036C000B3951501135E0E013357E5003367B7005C
:1036D00093560701331616013373E303B305FE0255
:1036E00013130301B3E6660063FEB600B386DE0083
:1036F0001383F7FF63EAD61163F8B6109387E7FFE9
:10370000B386D601B386B640B3D5E60313170701D7
:1037100013570701B3F6E6033303BE02939606017F
:103720003367D700637E67003387EE009386F5FF2B
:103730006364D70D6372670C9385E5FF3307D70188
:1037400093970701370F0100B3E7B7009306FFFF18
:10375000B3F5D70013DE0701B376D6001356060182
:10376000B38ED50233076740B306DE0213D30E01D2
:10377000B385C502B385D500B305B300330ECE02C1
:1037800063F4D500330EEE0193D60501B386C6016E
:10379000636AD7026308D70013850700930500000A
:1037A0006FF01FCCB70601009386F6FF33F7D50004
:1037B00013170701B3FEDE00331515013307D701D8
:1037C000E37CE5FC1385F7FF930500006FF05FC90C
:1037D000B7070001637AF60493560601130300014C
:1037E0006FF0DFD293050000130510006FF05FC784
:1037F000138505006FF01FE9938506006FF05FF4F5
:1038000093070E006FF05FE4930703006FF09FEFE4
:103810001305E5FFB38717016FF09FD51305E5FF8B
:10382000B38717016FF05FBF9356860113038001C2
:103830006FF0DFCD1308060093080500138705001D
:103840006390060E63FEC512B7070100636EF61E95
:10385000B7070001930680016374F6009306000128
:10386000B72701803353D60093874711B38767008A
:1038700083C7070013030002B387D700B306F340E2
:10388000630CF3003397D500B357F5003318D60017
:1038900033E7E700B318D500135608013355C702C4
:1038A0009316080193D6060193D708013377C70210
:1038B000B385A60213170701B3E7E70063FCB7005F
:1038C000B307F8001307F5FF63E4070163E0B73EB1
:1038D00013050700B387B74033D7C7029398080191
:1038E00093D80801B3F7C702B386E602939707019E
:1038F000B3E8F80063FED800B30818019307F7FF98
:1039000063E608011307E7FF63E4D80013870700A5
:10391000131505013365E50093050000678000007D
:1039200063F8D500930500001305000067800000D0
:10393000B707010063E8F61EB7070001130880010E
:1039400063F4F60013080001B727018033D706019E
:1039500093874711B387E70003C707009307000267
:10396000330707013388E7406396E71C63E4B6300A
:103970003335C5001335150093050000678000003E
:10398000630C060CB7070100637CF62C1337061096
:103990001337170013173700B356E600B727018017
:1039A00093874711B387D70083C7070093060002A8
:1039B000B387E700B38EF6406394F60CB387C54037
:1039C00093560601131606011356060193051000BF
:1039D00033D5D70213D70801B3F7D7023303C50293
:1039E00093970701B367F70063FC6700B307F8001C
:1039F0001307F5FF63E4070163E4672A1305070073
:103A0000B387674033D7D7029398080193D808014A
:103A1000B3F7D7023306C70293970701B3E8F8005C
:103A200063FEC800B30818019307F7FF63E60801B7
:103A30001307E7FF63E4C8001387070013150501A8
:103A40003365E500678000009336061093B61600D4
:103A5000939636006FF0DFE0B727018093060000F1
:103A600093874711B387D70083C707001307000068
:103A700093060002B387E700B38EF640E380F6F4C6
:103A80003318D60133D3F50093560801335ED302C1
:103A900013160801B395D50113560601B357F50067
:103AA000B3E7B70013D70701B318D5013373D302B7
:103AB000B305C6031313030133676700637EB700C2
:103AC0003307E8001305FEFF6364071D6372B71C2C
:103AD000130EEEFF330707013307B7403355D70204
:103AE0009397070193D707013377D7023303A602D1
:103AF00013170701B3E7E70063FE6700B307F80099
:103B00001307F5FF63EE071763FC67161305E5FF60
:103B1000B387070193150E01B3876740B3E5A5008E
:103B20006FF01FEB13B80610133818001318380085
:103B30006FF09FE1335EE600B3960601336EDE0060
:103B4000B3D8E500935E0E01B3D7D80313130E016B
:103B5000B3950501135303013357E5003367B700ED
:103B60009356070133160601B3F8D803B305F302E1
:103B700093980801B3E6160163FEB600B306DE00B3
:103B80009388F7FF63EAC61163F8B6109387E7FFDF
:103B9000B386C601B386B640B3D5D6031317070163
:103BA00013570701B3F6D603B308B3029396060181
:103BB0003367D700637E17013307EE009386F5FF66
:103BC0006364C70D6372170D9385E5FF3307C70163
:103BD00093970701B70E0100B3E7B7009386FEFF86
:103BE000B3F5D70013D30701B376D60013560601F9
:103BF000338ED50233071741B306D30293580E0113
:103C0000B385C502B385D500B385B8003303C302BD
:103C100063F4D5003303D30193D60501B386660060
:103C2000636AD7026308D700138507009305000075
:103C300067800000B70601009386F6FF33F7D500D2
:103C400013170701337EDE00331505013307C70163
:103C5000E37CE5FC1385F7FF930500006780000017
:103C6000B7070001637AF6049356060113070001B3
:103C70006FF0DFD29305000013051000678000008D
:103C8000130507006FF01FE9938506006FF05FF4DE
:103C9000130E05006FF05FE4938708006FF09FEF4D
:103CA0001305E5FFB38707016FF09FD51305E5FF07
:103CB000B38707016FF01FC2935686011307800177
:103CC0006FF0DFCD9305050093060000130600009A
:103CD000130500006F109049130101FF93050000C8
:103CE000232481002326110013040500EF109051B6
:103CF00083A781F563840700E780070013050400AC
:103D0000EFC01FAB9305050003A541F46F00000150
:103D10009305050003A541F46F109075130101FD93
:103D2000232E310123261102232481022322910212
:103D3000232021039387B500130760019309050031
:103D40006360F7089307000163E0B720EF00007895
:103D50009307800193052000930400011389818259
:103D6000B307F90003A44700138787FF6300E43417
:103D7000832744008326C4000326840093F7C7FFEB
:103D8000B307F40003A747002326D60023A4C600E8
:103D9000136717001385090023A2E700EF004073A3
:103DA000130584008320C10203248102832441027D
:103DB000032901028329C101130101036780000067
:103DC00093F487FF63C2071863E0B418EF00007034
:103DD0009307701F63F6973E93D79400638E071680
:103DE00013074000636CF73293D764009385970301
:103DF0001388870313963500138981823306C9001F
:103E000003244600130686FF630886021305F000AC
:103E10006F0040018326C40063560728630ED60056
:103E2000138406008327440093F7C7FF3387974026
:103E3000E352E5FE93050800032409019308890075
:103E4000630E1425832744009306F00093F7C7FF01
:103E50003387974063CCE636232A190123281901BA
:103E6000635007341307F01F032549006368F724E4
:103E700013F787FF130787003307E900832607003E
:103E800013D6570093071000B397C7003365F500AA
:103E9000930787FF2326F4002324D4002322A900BC
:103EA0002320870023A6860093D725401306100001
:103EB0003316F600636AC50AB377A6006394070257
:103EC0001316160093F5C5FFB377A600938545003A
:103ED000639A070013161600B377A6009385450072
:103EE000E38A07FE1308F0001393350033036900DB
:103EF000130503008327C500138E05006302F52414
:103F000003A747001384070083A7C7001377C7FFE1
:103F1000B30697406342D824E3C206FE3307E400A9
:103F200083264700032684001385090093E61600C4
:103F30002322D7002326F60023A4C700EF00405910
:103F4000130584006FF01FE69307C00023A0F9005B
:103F5000130500006FF01FE5130600209305000411
:103F60001308F0036FF05FE903248900232861013F
:103F70008327440013FBC7FF63689B0033079B4004
:103F80009307F00063CAE70C23229101232A510111
:103F900003A7C1F383AA41F5232C41012326710114
:103FA0009307F0FF330A6401B38A54016306F73CB8
:103FB000B71700009387F700B38AFA00B7F7FFFF3F
:103FC000B3FAFA0093850A0013850900EF10804DBB
:103FD0009307F0FF930B0500630AF5442324810146
:103FE000636E4523138C81F683250C00B385BA00DC
:103FF0002320BC00138705006316AA2A93174501E6
:104000006392072A832B8900B3075B0193E71700AC
:1040100023A2FB0083A601F563F4B60023A8B1F444
:1040200083A6C1F463F4B60023A6B1F4032C810087
:1040300013840B0093F7C7FF3387974063EA9738E1
:104040009307F00063D6E738032A8101832A4101F0
:10405000832BC100832C410093E714002322F4003A
:10406000B3049400232499001367170013850900F3
:1040700023A2E400EF00C0458320C10213058400A1
:1040800003248102032B010183244102032901023D
:104090008329C10113010103678000000325490042
:1040A0006FF09FE0032684006FF09FCD03A4C7004C
:1040B00093852500E38287D86FF09FCB13D79700B5
:1040C0009306400063F2E6149306400163E4E6328F
:1040D0001306C7059306B705131636003306C90045
:1040E00003270600130686FF6318E6006F004029C9
:1040F000032787006308E6008326470093F6C6FF80
:10410000E3E8D7FE0326C7002326C4002324E400E7
:1041100023248600232687006FF01FD91307400150
:104120006378F710130740056364F72E93D7C40034
:104130009385F7061388E706139635006FF0DFCBFB
:10414000130E1E0093773E00130585006380071051
:104150008327C5006FF09FDA0326840093E51400DF
:104160002322B4002326F60023A4C700B30494003E
:10417000232A99002328990093E7160023A6140107
:1041800023A4140123A2F4003307E40013850900DB
:104190002320D700EF00C033130584006FF09FC0C9
:1041A000B307F40003A7470013850900136717003E
:1041B00023A2E700EF00C031130584006FF09FBE1B
:1041C00093D53400938784006FF05FB993E61400B1
:1041D0002322D400B3049400232A990023289900B1
:1041E0009366170023A6140123A4140123A2D4006C
:1041F000B307F4001385090023A0E700EF00402D6A
:10420000130584006FF01FBA13D7670013069703D6
:1042100093068703131636006FF05FEC630C2407D8
:1042200003248900032C8100832744006FF09FE062
:104230009385C7051388B705139635006FF0DFBB6C
:10424000832783009385F5FF639E672693F73500E8
:10425000130383FFE39607FE032749009347F6FF06
:10426000B3F7E7002322F90013161600E3EEC7CEDA
:10427000E30C06CE3377F600631A07001316160018
:104280003377F600130E4E00E30A07FE93050E0087
:104290006FF09FC5138C81F603270C003387EA006B
:1042A0002320EC0083A6C1F39307F0FF6386F61882
:1042B000B3874B41B387E7002320FC0093FC7B00CE
:1042C000638C0C0CB38B9B41B7170000938787005E
:1042D000938B8B00B3859741B38A5B01B3855541BE
:1042E0009395450113DA450193050A0013850900EA
:1042F000EF10401B9307F0FF6300F518330575417D
:10430000B30A450103270C002324790193E71A001F
:10431000B305EA002320BC0023A2FB00E30C24CF5A
:104320009306F00063F0660B0327440093074BFFEE
:1043300093F787FF137717003367F7002322E40012
:10434000130650003307F4002322C7002324C700BC
:1043500063E6F60083A74B006FF0DFCB9305840084
:1043600013850900EF10D010832B890083250C00E2
:1043700083A74B006FF01FCA938A0A016FF09FC496
:1043800093D6264093071000B397D7003365F50006
:104390002322A9006FF05FD7B3855B01B305B0405E
:1043A0009395450113DA450193050A001385090029
:1043B000EF10400F9307F0FFE312F5F4130A00002B
:1043C0006FF05FF4032C81009307100023A2FB0021
:1043D00013850900EF00C00F13050000032A8101B7
:1043E000832A4101032B0101832BC100832C41004F
:1043F0006FF05F9B9306400563E4E60413D7C700A4
:104400001306F7069306E706131636006FF01FCD66
:10441000130740156364F70493D7F4009385870767
:1044200013887707139635006FF01F9D03248900CA
:10443000832744006FF01FC023AE71F36FF01FE8B5
:104440009306401563E4E60413D7F70013068707C5
:1044500093067707131636006FF05FC813074055B1
:104460006364F70493D724019385D7071388C7079C
:10447000139635006FF05F98938C8CFFB38A9A0186
:10448000B38A7A41130A00006FF0DFE793064055C4
:1044900063E4E60213D727011306D7079306C7077D
:1044A000131636006FF09FC31306803F9305F00785
:1044B0001308E0076FF05F941306803F9306E00750
:1044C0006FF0DFC1832749006FF01FDA67800000BB
:1044D000678000001305000067800000B79500802A
:1044E000138601C393850505138501C46F00004140
:1044F000130101FF8325450023248100232291001D
:1045000023261100138401F99304050063848500B8
:10451000EF40103483A58400930784066386F5007A
:1045200013850400EF40D03283A5C4001304040DAA
:10453000638E8500032481008320C100138504005D
:1045400083244100130101016F4090308320C1009A
:1045500003248100832441001301010167800000CE
:104560001305000067800000130101FE232C810069
:10457000B7470080138401F99387C74D232E11009C
:10458000232A9100232821012326310123244101DC
:1045900023ACF1F41306800093074000930500005C
:1045A0001305C4052326F40023200400232204005D
:1045B000232404002322040623280400232A0400C1
:1045C000232C0400EF10C009B7070100375A008000
:1045D000B759008037590080B7540080130A8ADE2B
:1045E0009389C9E4130949ED9384C4F49387970030
:1045F00013068000930500001305440C2320440398
:10460000232234032324240323269402232AF4069A
:10461000232E8400232404062326040623280406CC
:104620002326040C232C0406232E0406232004082E
:10463000EF100003B70702001307840693872701D2
:104640001305C412130680009305000023244409B7
:104650002326340923282409232A9408232EF40C22
:104660002322E4082328040C232A040C232C040C02
:10467000232A04122320040E2322040E2324040ED2
:10468000EF00107E9307040D2328440F232A340FD4
:10469000232C240F232E940E8320C1012326F40EF5
:1046A0000324810183244101032901018329C100DD
:1046B000032A8100130101026780000083A781F5AE
:1046C000130101FE23263101232E1100232C81002A
:1046D000232A910023282101930905006386070EF0
:1046E000138901C39304F0FF832749000324890041
:1046F0009387F7FF63D807006F0000081304840650
:10470000638C97060317C4009387F7FFE31807FE2F
:10471000B707FFFF938717002326F4002322040620
:10472000232004002324040023220400232804005F
:10473000232A0400232C04001306800093050000A4
:104740001305C405EF00D07123280402232A0402B4
:1047500023220404232404048320C101130504003C
:104760000324810183244101032901018329C1001C
:10477000130101026780000003240900630604009E
:10478000130904006FF05FF69305C01A1385090042
:10479000EFF0CFD813040500630C05021305C50024
:1047A00093074000232004002322F4002324A400C4
:1047B0001306001A93050000EF00906A2320890079
:1047C000130904006FF05FF2EFF01FDA6FF05FF192
:1047D000232009009307C00023A0F9006FF0DFF742
:1047E00083274503638407006780000003A781F5E2
:1047F000B74700809387074F232AF502E31607FE89
:104800006FF09FD66780000067800000B74500808A
:10481000138601C39385454D130500006F00000EFC
:10482000B7450080138601C3938505561305000024
:104830006F00C00C130101FE232C8100232E1100F8
:10484000130405006306050083274503638C0700F6
:1048500013050400032481018320C1011301010217
:104860006F0080372326C1002324B100EFF05FF7EB
:1048700013050400032481010326C1008325810060
:104880008320C101130101026F000035130101FEF5
:10489000232A910083A441F4232C8100232E1100AC
:1048A00013040500138605006386040083A74403F0
:1048B0006380070293050400032481018320C10162
:1048C0001385040083244101130101026F00C030ED
:1048D000138504002326B100EFF09FF09305040038
:1048E000032481010326C1008320C1011385040034
:1048F00083244101130101026F00002E130101FD09
:1049000023202103232E3101232C4101232A51018D
:104910002328610123267101232611022324810209
:1049200023229102130B0500938B0500930A0600C6
:10493000130A0000930910001309F0FF83A44A0032
:1049400003A48A009384F4FF63C804028357C4005D
:1049500063FEF9008317E4009305040013050B00C0
:1049600063862701E7800B00336AAA009384F4FF73
:1049700013048406E39C24FD83AA0A00E3900AFC46
:104980008320C102032481028324410203290102FE
:104990008329C101832A4101032B0101832BC1001B
:1049A00013050A00032A8101130101036780000037
:1049B000130101FB232021053389C6029307C1019E
:1049C0002322F1029307100023248104232291045F
:1049D000232E3103232EB100232611042324F102B8
:1049E00023202103232621039309060013840600B4
:1049F000930405009305070063060500832745031C
:104A0000638607068397C500139727016342070251
:104A100003A74506B7E6FFFF9386F6FF372600009B
:104A2000B3E7C7003377D7002396F50023A2E50646
:104A30001306410213850400EF405025630805006A
:104A40008327C1023309F940335439038320C10459
:104A50001305040003248104832441040329010471
:104A60008329C10313010105678000002326E100AB
:104A7000EFF01FD78325C1006FF0DFF8130101FBB2
:104A800023229104B384C502232E310383A941F468
:104A90009307C1012322F10293071000232481040C
:104AA0002320210523261104232EA1002324F10213
:104AB0002320910223269102138905001304060086
:104AC000938506006386090083A74903638607066A
:104AD0008397C500139727016342070203A7450682
:104AE000B7E6FFFF9386F6FF37260000B3E7C7005F
:104AF0003377D7002396F50023A2E506130641027B
:104B000013850900EF409018630805008327C10250
:104B1000B384F44033D424038320C1041305040078
:104B20000324810483244104032901048329C1034C
:104B30001301010567800000138509002326D100B9
:104B4000EFF01FCA8325C1006FF09FF8130101FC2D
:104B50002324C1022326D1022328E102232AF102C1
:104B6000232C0103232E11031386050083258500C2
:104B700093068102232E11002326D100EF10803FDF
:104B80008320C101130101046780000003A341F4E5
:104B9000130101FC2324C1022326D1022322B102E6
:104BA0002328E102232AF102232C0103232E1103DF
:104BB00083258300930641021306050013050300B5
:104BC000232E11002326D100EF10C03A8320C1010B
:104BD0001301010467800000130101FE232C8100F2
:104BE000232E1100130405006306050083274503E7
:104BF00063800706832786009387F7FF2324F60048
:104C000063DC07000327860163CAE70293F7F50F09
:104C10001307A0006384E7028327060013F5F50F4E
:104C2000138717002320E6002380B7008320C101EB
:104C300003248101130101026780000013050400B1
:104C4000032481018320C101130101026F00803020
:104C50002326C1002324B100EFF09FB80326C10032
:104C6000832581006FF01FF9130101FE232A210122
:104C700003A941F4232C9100232E11009304050075
:104C800063060900832749036388070683A7850015
:104C90009387F7FF23A4F50063DC070003A78501D2
:104CA00063CCE70293F7F40F1307A0006386E702D3
:104CB00083A7050013F5F40F1387170023A0E50061
:104CC000238097008320C1018324810103294101AE
:104CD00013010102678000008320C10113860500D3
:104CE00013050900938504000329410183248101F0
:104CF000130101026F000026130509002326B100ED
:104D0000EFF01FAE8325C1006FF05FF8130101FCC7
:104D1000232C81021304050013850500232A910228
:104D2000232E110293840500EF00903BB7270180EA
:104D3000938747212324F102930710002326F102D1
:104D4000032744039307010293061500232AF10069
:104D500093072000232091022322A102232ED100B9
:104D6000232CF10083258400630007068397C50088
:104D7000139727016342070203A74506B7E6FFFF23
:104D80009386F6FF37260000B3E7C7003377D700D6
:104D90002396F50023A2E50613064101130504003E
:104DA000EF40C06E8320C103032481031335150037
:104DB0003305A0401375B500832441031305F5FFA7
:104DC0001301010467800000130504002326B100CD
:104DD000EFF01FA18325C1006FF05FF99305050077
:104DE00003A541F46FF09FF2130101FF232481001A
:104DF000138405008395E50023261100EF0000646D
:104E000063400502832704058320C100B387A70000
:104E10002328F404032481001301010167800000AA
:104E20008357C40037F7FFFF1307F7FFB3F7E70017
:104E30008320C1002316F400032481001301010123
:104E40006780000013050000678000008397C5009D
:104E5000130101FE232C8100232A91002328210124
:104E600023263101232E110013F7071013840500A8
:104E700093040500130906009389060063100704D4
:104E800037F7FFFF1307F7FFB3F7E7008315E400D9
:104E90002316F400032481018320C10193860900B5
:104EA000130609008329C1000329010113850400A9
:104EB00083244101130101026F0080648395E500A2
:104EC0009306200013060000EF00C0508317C400B3
:104ED0006FF01FFB130101FF2324810013840500E1
:104EE0008395E50023261100EF00C04E9307F0FFE5
:104EF0006308F5028357C400371700008320C10000
:104F0000B3E7E7009397070193D707412328A40449
:104F10002316F400032481001301010167800000BF
:104F20008357C40037F7FFFF1307F7FFB3F7E70016
:104F30009397070193D707418320C1002316F400FC
:104F40000324810013010101678000008395E500BF
:104F50006F004036130101FE232C8100232A9100AB
:104F600023282101232E1100130905009384050035
:104F700013040600630605008327450363800716B4
:104F8000832784010317C4002324F4009377870048
:104F90006380070883270401638C070623263101F9
:104FA0009316270193F9F40F93F4F40F63D80608CE
:104FB0000327040083264401B307F74063D8D70AC8
:104FC00083268400130617002320C4009386F6FF6F
:104FD0002324D400230037010327440193871700BB
:104FE0006302F70C8357C40093F71700639A070C0A
:104FF0008329C1008320C101032481010329010108
:10500000138504008324410113010102678000001D
:105010009305040013050900EF00000E631E050848
:105020000317C400232631018327040193162701A7
:1050300093F9F40F93F4F40FE3CC06F683264406B9
:1050400037E6FFFFB72500003367B7001306F6FF0A
:10505000B3F6C6002316E400032704002322D40677
:1050600083264401B307F740E3CCD7F4930504004B
:1050700013050900EF40C033631E05020327040037
:105080008326840093071000130617009386F6FF0B
:105090002320C4002324D400230037010327440124
:1050A000E312F7F49305040013050900EF404030C4
:1050B000E30005F48329C1009304F0FF6FF09FF330
:1050C0009307A000E396F4F293050400130509008A
:1050D000EF40002EE30E05F06FF0DFFDEFF04FF034
:1050E0006FF01FEA9307050003A541F4138605003E
:1050F000938507006FF01FE683A741F4130101FFBA
:10510000232481002322910023261100930405000B
:10511000138405006386070003A74703630C070E8B
:105120008317C40013F78700630A070603270401E7
:105130006306070893F61700638806028326440176
:105140002324040013050000B306D040232CD40010
:10515000630A07028320C1000324810083244100E5
:10516000130101016780000093F627001306000079
:1051700063940600032644012324C40013050000A1
:10518000E31A07FC13F70708E30607FC93E7070495
:105190002316F4001305F0FF6FF0DFFB13F7070190
:1051A0006300070813F74700631C07020327040185
:1051B00093E787002316F400E31E07F693F607280B
:1051C00013060020E388C6F6930504001385040047
:1051D000EF40C07C8317C400032704016FF09FF5E4
:1051E00083250403638E0500130704046388E50028
:1051F00013850400EF00D0278317C400232804027E
:105200000327040193F7B7FD232204002320E400C1
:105210006FF01FFA13850700EFF08FDC6FF05FF07F
:105220001307900023A0E40093E707042316F4007B
:105230001305F0FF6FF01FF29307300063FEC70203
:10524000B3E7A50093F73700639407029306300095
:105250006F0040011306C6FF130545009385450006
:1052600063FCC6000327050083A70500E304F7FEDF
:105270009306F6FF6F00C0009306F6FF6308060270
:1052800093861600B306D5006F0080006380A602E7
:105290008347050003C70500130515009385150016
:1052A000E386E7FE3385E7406780000013050000D2
:1052B00067800000130101FF232481002322910055
:1052C00013040500138505002326110023AE01F405
:1052D000EFB00FCC9307F0FF630CF5008320C10003
:1052E0000324810083244100130101016780000031
:1052F00083A7C1F5E38407FE8320C1002320F400C7
:105300000324810083244100130101016780000010
:1053100083A741F4638EA70A83254504130101FE88
:10532000232A9100232E110093040500638C0504A9
:105330002328210123263101232C81001309000099
:1053400093090008B387250103A40700630E040036
:10535000930504000324040013850400EF0050119A
:10536000E31804FE83A5440413094900E31C39FD36
:1053700013850400EF00D00F0324810103290101EC
:105380008329C10083A58403638605001385040077
:10539000EF00100E83A5C404638605001385040086
:1053A000EF00100D83A74403638C07008320C10125
:1053B0001385040083244101130101026780070063
:1053C0008320C10183244101130101026780000091
:1053D00067800000130101FF13870500232481006B
:1053E000232291009305060013040500138606008E
:1053F000130507002326110023AE01F4EFB04FC7B9
:105400009307F0FF630CF5008320C10003248100A3
:1054100083244100130101016780000083A7C1F5C7
:10542000E38407FE8320C1002320F40003248100CD
:10543000832441001301010167800000130101FF73
:105440001387050023248100232291009305060081
:105450001304050013860600130507002326110018
:1054600023AE01F4EFB0CFC49307F0FF630CF50057
:105470008320C10003248100832441001301010122
:105480006780000083A7C1F5E38407FE8320C10085
:105490002320F4000324810083244100130101012F
:1054A00067800000130101FF232481002322910063
:1054B00013040500138505002326110023AE01F413
:1054C000EFB00FCF9307F0FF630CF5008320C1000E
:1054D000032481008324410013010101678000003F
:1054E00083A7C1F5E38407FE8320C1002320F400D5
:1054F000032481008324410013010101678000001F
:10550000130101FF1387050023248100232291004A
:105510009305060013040500138606001305070013
:105520002326110023AE01F4EFB08FBF9307F0FFE5
:10553000630CF5008320C100032481008324410013
:10554000130101016780000083A7C1F5E38407FE12
:105550008320C1002320F400032481008324410020
:105560001301010167800000130101FF2324810062
:10557000B737018037340180232021019387078FBB
:105580001307048F23261100232291003389E7405B
:105590006382E702135929401304048F9304000027
:1055A000832704009384140013044400E780070059
:1055B000E3E824FF37340180B73701809387078FF2
:1055C0001307048F3389E740135929406380E702AA
:1055D0001304048F930400008327040093841400B1
:1055E00013044400E7800700E3E824FF8320C100A0
:1055F00003248100832441000329010013010101D8
:1056000067800000130101FF23248100B737018068
:10561000373401809387078F1304048F3304F440D9
:105620002322910023261100935424406380040216
:105630001304C4FF3304F400832704009384F4FFAD
:105640001304C4FFE7800700E39804FE8320C10031
:1056500003248100832441001301010167800000BD
:105660001303F00013070500637EC3029377F7006E
:105670006390070A63920508937606FF1376F60097
:10568000B386E6002320B7002322B7002324B70007
:105690002326B70013070701E366D7FE631406004D
:1056A00067800000B306C34093962600970200006F
:1056B000B38656006780C6002307B700A306B7006D
:1056C0002306B700A305B7002305B700A304B7005E
:1056D0002304B700A303B7002303B700A302B70056
:1056E0002302B700A301B7002301B700A300B7004E
:1056F0002300B7006780000093F5F50F93968500AF
:10570000B3E5D50093960501B3E5D5006FF0DFF65C
:105710009396270097020000B386560093820000FC
:10572000E78006FA93800200938707FF3307F7406C
:105730003306F600E378C3F66FF0DFF3B3C7A500D6
:1057400093F73700B308C50063940706930730004A
:1057500063F0C7069377350013070500639A0706C1
:1057600013F6C8FFB306E6409307000263CED708DE
:1057700093860500930707006378C70203A8060015
:10578000938747009386460023AE07FFE3E8C7FEF2
:105790009307F6FFB387E74093F7C7FF9387470068
:1057A0003307F700B385F5006368170167800000D1
:1057B000130705006378150583C705001307170055
:1057C00093851500A30FF7FEE398E8FE67800000BD
:1057D00083C605001307170093773700A30FD7FE82
:1057E00093851500E38E07F683C60500130717009F
:1057F00093773700A30FD7FE93851500E39A07FC34
:105800006FF01FF667800000130101FF232681005F
:105810001304000283A3050083A2450083AF850023
:1058200003AFC50083AE050103AE450103A38501A7
:1058300003A8C50183A6050213074702B307E64084
:10584000232E77FC232057FE2322F7FF2324E7FF94
:105850002326D7FF2328C7FF232A67FE232C07FF11
:10586000232ED7FE93854502E346F4FA938605007E
:10587000930707006378C70203A8060093874700D1
:105880009386460023AE07FFE3E8C7FE9307F6FFC3
:10589000B387E74093F7C7FF938747003307F700C5
:1058A000B385F500636817010324C10013010101EA
:1058B0006780000083C70500130717009385150054
:1058C000A30FF7FEE382E8FE83C705001307170066
:1058D00093851500A30FF7FEE39EE8FC6FF0DFFC55
:1058E0009377350013070500639C0704B7867F7F15
:1058F0009386F6F79305F0FF03260700130747008A
:10590000B377D600B387D700B3E7C700B3E7D700B4
:10591000E384B7FE8346C7FFB307A740638406044A
:105920008346D7FF638C06020345E7FF3335A000AB
:105930003305F5001305E5FF67800000E38806FAEC
:10594000834707001307170093763700E39807FE95
:105950003307A7401305F7FF678000001385D7FFC3
:10596000678000001385C7FF6780000083A701F6EA
:10597000638C070403A747001308F0016340E8089D
:105980001318270063060502338307012324C30885
:1059900083A88718130610003316E600B3E8C80082
:1059A00023A417192324D310930620006306D502DD
:1059B0001307170023A2E700B387070123A4B7004A
:1059C00013050000678000001388810C23A001F7F5
:1059D0009387810C6FF01FFA83A6C718130717006F
:1059E00023A2E700B3E6C60023A6D718B3870701B2
:1059F00023A4B70013050000678000001305F0FF23
:105A000067800000130101FD232C410123202103A5
:105A100003A901F6232611026308090A232E310186
:105A2000232A5101232861012326710123248102A5
:105A30002322910223248101130B0500938B05007F
:105A40009309F0FF930A1000832449001384F4FFA4
:105A5000634E040493942400B304990063900B08EC
:105A60008327490083A644009387F7FF638C870A46
:105A700023A20400638606028327891833978A00CD
:105A8000032C4900B377F70063960706E78006000A
:105A90000327490083A701F663108709639E270740
:105AA0001304F4FF9384C4FFE31A34FB032481023C
:105AB000832441028329C101832A4101032B01016F
:105AC000832BC100032C81008320C1020329010222
:105AD000032A8101130101036780000083A744109A
